{
  "contractName": "ERC165",
  "abi": [
    {
      "inputs": [],
      "stateMutability": "nonpayable",
      "type": "constructor"
    },
    {
      "inputs": [
        {
          "internalType": "bytes4",
          "name": "interfaceId",
          "type": "bytes4"
        }
      ],
      "name": "supportsInterface",
      "outputs": [
        {
          "internalType": "bool",
          "name": "",
          "type": "bool"
        }
      ],
      "stateMutability": "view",
      "type": "function"
    },
    {
      "inputs": [
        {
          "internalType": "bytes",
          "name": "objectSign",
          "type": "bytes"
        }
      ],
      "name": "calcFingerPrint",
      "outputs": [
        {
          "internalType": "bytes4",
          "name": "",
          "type": "bytes4"
        }
      ],
      "stateMutability": "pure",
      "type": "function"
    },
    {
      "inputs": [
        {
          "internalType": "bytes4",
          "name": "interfaceId",
          "type": "bytes4"
        }
      ],
      "name": "_registerInterface",
      "outputs": [],
      "stateMutability": "nonpayable",
      "type": "function"
    }
  ],
  "bytecode": "0x608060405234801561000f575f80fd5b506100626100576040518060400160405280601981526020017f737570706f727473496e7465726661636528627974657334290000000000000081525061006760201b60201c565b61007760201b60201c565b6101c0565b5f81805190602001209050919050565b63ffffffff60e01b817bffffffffffffffffffffffffffffffffffffffffffffffffffffffff1916036100df576040517f08c379a00000000000000000000000000000000000000000000000000000000081526004016100d6906101a2565b60405180910390fd5b60015f80837bffffffffffffffffffffffffffffffffffffffffffffffffffffffff19167bffffffffffffffffffffffffffffffffffffffffffffffffffffffff191681526020019081526020015f205f6101000a81548160ff02191690831515021790555050565b5f82825260208201905092915050565b7f4552433136353a20494e56414c494420494e54455246414345000000000000005f82015250565b5f61018c601983610148565b915061019782610158565b602082019050919050565b5f6020820190508181035f8301526101b981610180565b9050919050565b610520806101cd5f395ff3fe608060405234801561000f575f80fd5b506004361061003f575f3560e01c806301ffc9a714610043578063068417d914610073578063ec9c48d51461008f575b5f80fd5b61005d60048036038101906100589190610269565b6100bf565b60405161006a91906102ae565b60405180910390f35b61008d60048036038101906100889190610269565b610122565b005b6100a960048036038101906100a49190610403565b6101f3565b6040516100b69190610459565b60405180910390f35b5f805f837bffffffffffffffffffffffffffffffffffffffffffffffffffffffff19167bffffffffffffffffffffffffffffffffffffffffffffffffffffffff191681526020019081526020015f205f9054906101000a900460ff169050919050565b63ffffffff60e01b817bffffffffffffffffffffffffffffffffffffffffffffffffffffffff19160361018a576040517f08c379a0000000000000000000000000000000000000000000000000000000008152600401610181906104cc565b60405180910390fd5b60015f80837bffffffffffffffffffffffffffffffffffffffffffffffffffffffff19167bffffffffffffffffffffffffffffffffffffffffffffffffffffffff191681526020019081526020015f205f6101000a81548160ff02191690831515021790555050565b5f81805190602001209050919050565b5f604051905090565b5f80fd5b5f80fd5b5f7fffffffff0000000000000000000000000000000000000000000000000000000082169050919050565b61024881610214565b8114610252575f80fd5b50565b5f813590506102638161023f565b92915050565b5f6020828403121561027e5761027d61020c565b5b5f61028b84828501610255565b91505092915050565b5f8115159050919050565b6102a881610294565b82525050565b5f6020820190506102c15f83018461029f565b92915050565b5f80fd5b5f80fd5b5f601f19601f8301169050919050565b7f4e487b71000000000000000000000000000000000000000000000000000000005f52604160045260245ffd5b610315826102cf565b810181811067ffffffffffffffff82111715610334576103336102df565b5b80604052505050565b5f610346610203565b9050610352828261030c565b919050565b5f67ffffffffffffffff821115610371576103706102df565b5b61037a826102cf565b9050602081019050919050565b828183375f83830152505050565b5f6103a76103a284610357565b61033d565b9050828152602081018484840111156103c3576103c26102cb565b5b6103ce848285610387565b509392505050565b5f82601f8301126103ea576103e96102c7565b5b81356103fa848260208601610395565b91505092915050565b5f602082840312156104185761041761020c565b5b5f82013567ffffffffffffffff81111561043557610434610210565b5b610441848285016103d6565b91505092915050565b61045381610214565b82525050565b5f60208201905061046c5f83018461044a565b92915050565b5f82825260208201905092915050565b7f4552433136353a20494e56414c494420494e54455246414345000000000000005f82015250565b5f6104b6601983610472565b91506104c182610482565b602082019050919050565b5f6020820190508181035f8301526104e3816104aa565b905091905056fea264697066735822122010c8af6227e59f7bd56af1502806716fdbc5f91aa3aa8c9179cef5590c9b8da864736f6c63430008140033",
  "immutableReferences": {},
  "source": "// SPDX-License-Identifier: MIT\r\npragma solidity ^0.8.0;\r\n\r\nimport \"./Interfaces/IERC165.sol\";\r\n\r\ncontract ERC165 is IERC165 {\r\n    mapping(bytes4 => bool) private supportedInterfaces;\r\n\r\n    constructor() {\r\n        _registerInterface(calcFingerPrint(\"supportsInterface(bytes4)\"));\r\n    }\r\n\r\n    function supportsInterface(\r\n        bytes4 interfaceId\r\n    ) external view override returns (bool) {\r\n        return supportedInterfaces[interfaceId];\r\n    }\r\n\r\n    function calcFingerPrint(bytes memory objectSign) public pure returns (bytes4) {\r\n        return bytes4(keccak256(objectSign));\r\n    }\r\n\r\n    function _registerInterface(bytes4 interfaceId) public {\r\n        require(interfaceId != 0xffffffff, \"ERC165: INVALID INTERFACE\");\r\n        supportedInterfaces[interfaceId] = true;\r\n    }\r\n}\r\n",
  "sourcePath": "G:\\nft-market-place\\src\\contracts\\ERC165.sol",
  "compiler": {
    "name": "solc",
    "version": "0.8.20+commit.a1b79de6.Emscripten.clang"
  },
  "schemaVersion": "3.4.13",
  "updatedAt": "2023-05-16T09:57:43.635Z",
  "devdoc": {
    "kind": "dev",
    "methods": {},
    "version": 1
  },
  "userdoc": {
    "kind": "user",
    "methods": {},
    "version": 1
  }
}