{
  "contractName": "ERC721",
  "abi": [
    {
      "anonymous": false,
      "inputs": [
        {
          "indexed": true,
          "internalType": "address",
          "name": "owner",
          "type": "address"
        },
        {
          "indexed": true,
          "internalType": "address",
          "name": "approved",
          "type": "address"
        },
        {
          "indexed": true,
          "internalType": "uint256",
          "name": "tokenId",
          "type": "uint256"
        }
      ],
      "name": "Approval",
      "type": "event"
    },
    {
      "anonymous": false,
      "inputs": [
        {
          "indexed": true,
          "internalType": "address",
          "name": "from",
          "type": "address"
        },
        {
          "indexed": true,
          "internalType": "address",
          "name": "to",
          "type": "address"
        },
        {
          "indexed": true,
          "internalType": "uint256",
          "name": "tokenId",
          "type": "uint256"
        }
      ],
      "name": "Transfer",
      "type": "event"
    },
    {
      "inputs": [
        {
          "internalType": "address",
          "name": "_owner",
          "type": "address"
        }
      ],
      "name": "balanceOf",
      "outputs": [
        {
          "internalType": "uint256",
          "name": "",
          "type": "uint256"
        }
      ],
      "stateMutability": "view",
      "type": "function"
    },
    {
      "inputs": [
        {
          "internalType": "uint256",
          "name": "_tokenId",
          "type": "uint256"
        }
      ],
      "name": "ownerOf",
      "outputs": [
        {
          "internalType": "address",
          "name": "",
          "type": "address"
        }
      ],
      "stateMutability": "view",
      "type": "function"
    },
    {
      "inputs": [
        {
          "internalType": "address",
          "name": "_from",
          "type": "address"
        },
        {
          "internalType": "address",
          "name": "_to",
          "type": "address"
        },
        {
          "internalType": "uint256",
          "name": "tokenID",
          "type": "uint256"
        }
      ],
      "name": "transferFrom",
      "outputs": [],
      "stateMutability": "nonpayable",
      "type": "function"
    },
    {
      "inputs": [
        {
          "internalType": "address",
          "name": "_to",
          "type": "address"
        },
        {
          "internalType": "uint256",
          "name": "tokenId",
          "type": "uint256"
        }
      ],
      "name": "approve",
      "outputs": [],
      "stateMutability": "nonpayable",
      "type": "function"
    }
  ],
  "bytecode": "0x608060405234801561001057600080fd5b50610c97806100206000396000f3fe608060405234801561001057600080fd5b506004361061004c5760003560e01c8063095ea7b31461005157806323b872dd1461006d5780636352211e1461008957806370a08231146100b9575b600080fd5b61006b600480360381019061006691906107e7565b6100e9565b005b61008760048036038101906100829190610827565b610284565b005b6100a3600480360381019061009e919061087a565b6102a7565b6040516100b091906108b6565b60405180910390f35b6100d360048036038101906100ce91906108d1565b610357565b6040516100e0919061090d565b60405180910390f35b60006100f4826102a7565b90508073ffffffffffffffffffffffffffffffffffffffff168373ffffffffffffffffffffffffffffffffffffffff1603610164576040517f08c379a000000000000000000000000000000000000000000000000000000000815260040161015b90610985565b60405180910390fd5b8073ffffffffffffffffffffffffffffffffffffffff163373ffffffffffffffffffffffffffffffffffffffff16146101d2576040517f08c379a00000000000000000000000000000000000000000000000000000000081526004016101c9906109f1565b60405180910390fd5b826002600084815260200190815260200160002060006101000a81548173ffffffffffffffffffffffffffffffffffffffff021916908373ffffffffffffffffffffffffffffffffffffffff160217905550818373ffffffffffffffffffffffffffffffffffffffff168273ffffffffffffffffffffffffffffffffffffffff167f8c5be1e5ebec7d5bd14f71427d1e84f3dd0314c0f7b2291e5b200ac8c7c3b92560405160405180910390a4505050565b61028e338261040e565b61029757600080fd5b6102a283838361049d565b505050565b60008060008084815260200190815260200160002060009054906101000a900473ffffffffffffffffffffffffffffffffffffffff169050600073ffffffffffffffffffffffffffffffffffffffff168173ffffffffffffffffffffffffffffffffffffffff160361034e576040517f08c379a000000000000000000000000000000000000000000000000000000000815260040161034590610a5d565b60405180910390fd5b80915050919050565b60008073ffffffffffffffffffffffffffffffffffffffff168273ffffffffffffffffffffffffffffffffffffffff16036103c7576040517f08c379a00000000000000000000000000000000000000000000000000000000081526004016103be90610a5d565b60405180910390fd5b600160008373ffffffffffffffffffffffffffffffffffffffff1673ffffffffffffffffffffffffffffffffffffffff168152602001908152602001600020549050919050565b6000610419826106dd565b610458576040517f08c379a000000000000000000000000000000000000000000000000000000000815260040161044f90610ac9565b60405180910390fd5b6000610463836102a7565b90508073ffffffffffffffffffffffffffffffffffffffff168473ffffffffffffffffffffffffffffffffffffffff161491505092915050565b600073ffffffffffffffffffffffffffffffffffffffff168273ffffffffffffffffffffffffffffffffffffffff160361050c576040517f08c379a000000000000000000000000000000000000000000000000000000000815260040161050390610b35565b60405180910390fd5b8273ffffffffffffffffffffffffffffffffffffffff1661052c826102a7565b73ffffffffffffffffffffffffffffffffffffffff1614610582576040517f08c379a000000000000000000000000000000000000000000000000000000000815260040161057990610ba1565b60405180910390fd5b8160008083815260200190815260200160002060006101000a81548173ffffffffffffffffffffffffffffffffffffffff021916908373ffffffffffffffffffffffffffffffffffffffff160217905550600160008373ffffffffffffffffffffffffffffffffffffffff1673ffffffffffffffffffffffffffffffffffffffff168152602001908152602001600020600081548092919061062390610bf0565b9190505550600160008473ffffffffffffffffffffffffffffffffffffffff1673ffffffffffffffffffffffffffffffffffffffff168152602001908152602001600020600081548092919061067890610c38565b9190505550808273ffffffffffffffffffffffffffffffffffffffff168473ffffffffffffffffffffffffffffffffffffffff167fddf252ad1be2c89b69c2b068fc378daa952ba7f163c4a11628f55a4df523b3ef60405160405180910390a4505050565b60008060008084815260200190815260200160002060009054906101000a900473ffffffffffffffffffffffffffffffffffffffff169050600073ffffffffffffffffffffffffffffffffffffffff168173ffffffffffffffffffffffffffffffffffffffff161415915050919050565b600080fd5b600073ffffffffffffffffffffffffffffffffffffffff82169050919050565b600061077e82610753565b9050919050565b61078e81610773565b811461079957600080fd5b50565b6000813590506107ab81610785565b92915050565b6000819050919050565b6107c4816107b1565b81146107cf57600080fd5b50565b6000813590506107e1816107bb565b92915050565b600080604083850312156107fe576107fd61074e565b5b600061080c8582860161079c565b925050602061081d858286016107d2565b9150509250929050565b6000806000606084860312156108405761083f61074e565b5b600061084e8682870161079c565b935050602061085f8682870161079c565b9250506040610870868287016107d2565b9150509250925092565b6000602082840312156108905761088f61074e565b5b600061089e848285016107d2565b91505092915050565b6108b081610773565b82525050565b60006020820190506108cb60008301846108a7565b92915050565b6000602082840312156108e7576108e661074e565b5b60006108f58482850161079c565b91505092915050565b610907816107b1565b82525050565b600060208201905061092260008301846108fe565b92915050565b600082825260208201905092915050565b7f4572726f7220617070726f76616c20746f2063757272656e74206f776e657200600082015250565b600061096f601f83610928565b915061097a82610939565b602082019050919050565b6000602082019050818103600083015261099e81610962565b9050919050565b7f4375727272656e742063616c6c6572206973206e6f7420746865206f776e6572600082015250565b60006109db602083610928565b91506109e6826109a5565b602082019050919050565b60006020820190508181036000830152610a0a816109ce565b9050919050565b7f4f776e65722076616c7565206973206e756c6c00000000000000000000000000600082015250565b6000610a47601383610928565b9150610a5282610a11565b602082019050919050565b60006020820190508181036000830152610a7681610a3a565b9050919050565b7f746f6b656e20646f65736e742065787369737473000000000000000000000000600082015250565b6000610ab3601483610928565b9150610abe82610a7d565b602082019050919050565b60006020820190508181036000830152610ae281610aa6565b9050919050565b7f72656369657665722061646472657373206973206e756c6c0000000000000000600082015250565b6000610b1f601883610928565b9150610b2a82610ae9565b602082019050919050565b60006020820190508181036000830152610b4e81610b12565b9050919050565b7f6f776e6572206f6620746f6b656e206e6f7420636f7272656374000000000000600082015250565b6000610b8b601a83610928565b9150610b9682610b55565b602082019050919050565b60006020820190508181036000830152610bba81610b7e565b9050919050565b7f4e487b7100000000000000000000000000000000000000000000000000000000600052601160045260246000fd5b6000610bfb826107b1565b91507fffffffffffffffffffffffffffffffffffffffffffffffffffffffffffffffff8203610c2d57610c2c610bc1565b5b600182019050919050565b6000610c43826107b1565b915060008203610c5657610c55610bc1565b5b60018203905091905056fea26469706673582212200f38a47459b1043f13b325443f80b0ac20d6b7d03c58b871575590382a52d7c864736f6c63430008130033",
  "immutableReferences": {},
  "source": "// SPDX-License-Identifier: MIT\r\npragma solidity ^0.8.0;\r\n\r\nimport \"./ERC721.sol\";\r\n\r\ncontract ERC721 {\r\n    mapping(uint => address) private _tokenOwner;\r\n    mapping(address => uint) private _OwnedTokenCounts;\r\n    mapping(uint => address) private _tokenApproval;\r\n    event Transfer(\r\n        address indexed from,\r\n        address indexed to,\r\n        uint indexed tokenId\r\n    );\r\n    event Approval(\r\n        address indexed owner,\r\n        address indexed approved,\r\n        uint indexed tokenId\r\n    );\r\n\r\n    function _mint(uint tokenId, address to) internal virtual {\r\n        require(to != address(0), \"Address is 0\");\r\n        require(!_exists(tokenId), \"Token already minted\");\r\n\r\n        _tokenOwner[tokenId] = to;\r\n        _OwnedTokenCounts[to]++;\r\n\r\n        emit Transfer(address(0), to, tokenId);\r\n    }\r\n\r\n    function balanceOf(address _owner) public view returns (uint) {\r\n        require(_owner != address(0), \"Owner value is null\");\r\n        return _OwnedTokenCounts[_owner];\r\n    }\r\n\r\n    function ownerOf(uint _tokenId) public view returns (address) {\r\n        address owner = _tokenOwner[_tokenId];\r\n        require(owner != address(0), \"Owner value is null\");\r\n        return owner;\r\n    }\r\n\r\n    function _exists(uint tokenId) internal view returns (bool) {\r\n        address owner = _tokenOwner[tokenId];\r\n        return owner != address(0);\r\n    }\r\n\r\n    function _transferFrom(address _from, address _to, uint tokenID) internal {\r\n        require(_to != address(0), \"reciever address is null\");\r\n        require(ownerOf(tokenID) == _from, \"owner of token not correct\");\r\n        _tokenOwner[tokenID] = _to;\r\n        _OwnedTokenCounts[_to]++;\r\n        _OwnedTokenCounts[_from]--;\r\n        emit Transfer(_from, _to, tokenID);\r\n    }\r\n\r\n    function transferFrom(address _from, address _to, uint tokenID) public {\r\n        require(isApprovedOrOwner(msg.sender, tokenID));\r\n        _transferFrom(_from, _to, tokenID);\r\n    }\r\n\r\n    function approve(address _to, uint tokenId) public {\r\n        address owner = ownerOf(tokenId);\r\n        require(_to != owner, \"Error approval to current owner\");\r\n        require(msg.sender == owner, \"Currrent caller is not the owner\");\r\n        _tokenApproval[tokenId] = _to;\r\n        emit Approval(owner, _to, tokenId);\r\n    }\r\n\r\n    function isApprovedOrOwner(\r\n        address spender,\r\n        uint tokenId\r\n    ) internal view returns (bool) {\r\n        require(_exists(tokenId), \"token doesnt exsists\");\r\n        address owner = ownerOf(tokenId);\r\n        return (spender == owner);\r\n    }\r\n}\r\n",
  "sourcePath": "G:\\nft-market-place\\src\\contracts\\ERC721.sol",
  "compiler": {
    "name": "solc",
    "version": "0.8.19+commit.7dd6d404.Emscripten.clang"
  },
  "schemaVersion": "3.4.13",
  "updatedAt": "2023-04-12T18:22:14.020Z",
  "devdoc": {
    "kind": "dev",
    "methods": {},
    "version": 1
  },
  "userdoc": {
    "kind": "user",
    "methods": {},
    "version": 1
  }
}