{
  "contractName": "ERC721",
  "abi": [
    {
      "anonymous": false,
      "inputs": [
        {
          "indexed": true,
          "internalType": "address",
          "name": "_owner",
          "type": "address"
        },
        {
          "indexed": true,
          "internalType": "address",
          "name": "_approved",
          "type": "address"
        },
        {
          "indexed": true,
          "internalType": "uint256",
          "name": "_tokenId",
          "type": "uint256"
        }
      ],
      "name": "Approval",
      "type": "event"
    },
    {
      "anonymous": false,
      "inputs": [
        {
          "indexed": true,
          "internalType": "address",
          "name": "_from",
          "type": "address"
        },
        {
          "indexed": true,
          "internalType": "address",
          "name": "_to",
          "type": "address"
        },
        {
          "indexed": true,
          "internalType": "uint256",
          "name": "_tokenId",
          "type": "uint256"
        }
      ],
      "name": "Transfer",
      "type": "event"
    },
    {
      "inputs": [
        {
          "internalType": "bytes4",
          "name": "interfaceId",
          "type": "bytes4"
        }
      ],
      "name": "_registerInterface",
      "outputs": [],
      "stateMutability": "nonpayable",
      "type": "function"
    },
    {
      "inputs": [
        {
          "internalType": "bytes",
          "name": "objectSign",
          "type": "bytes"
        }
      ],
      "name": "calcFingerPrint",
      "outputs": [
        {
          "internalType": "bytes4",
          "name": "",
          "type": "bytes4"
        }
      ],
      "stateMutability": "pure",
      "type": "function"
    },
    {
      "inputs": [
        {
          "internalType": "bytes4",
          "name": "interfaceId",
          "type": "bytes4"
        }
      ],
      "name": "supportsInterface",
      "outputs": [
        {
          "internalType": "bool",
          "name": "",
          "type": "bool"
        }
      ],
      "stateMutability": "view",
      "type": "function"
    },
    {
      "inputs": [
        {
          "internalType": "address",
          "name": "_owner",
          "type": "address"
        }
      ],
      "name": "balanceOf",
      "outputs": [
        {
          "internalType": "uint256",
          "name": "",
          "type": "uint256"
        }
      ],
      "stateMutability": "view",
      "type": "function"
    },
    {
      "inputs": [
        {
          "internalType": "uint256",
          "name": "_tokenId",
          "type": "uint256"
        }
      ],
      "name": "ownerOf",
      "outputs": [
        {
          "internalType": "address",
          "name": "",
          "type": "address"
        }
      ],
      "stateMutability": "view",
      "type": "function"
    },
    {
      "inputs": [
        {
          "internalType": "address",
          "name": "_from",
          "type": "address"
        },
        {
          "internalType": "address",
          "name": "_to",
          "type": "address"
        },
        {
          "internalType": "uint256",
          "name": "tokenID",
          "type": "uint256"
        }
      ],
      "name": "transferFrom",
      "outputs": [],
      "stateMutability": "nonpayable",
      "type": "function"
    },
    {
      "inputs": [
        {
          "internalType": "address",
          "name": "_to",
          "type": "address"
        },
        {
          "internalType": "uint256",
          "name": "tokenId",
          "type": "uint256"
        }
      ],
      "name": "approve",
      "outputs": [],
      "stateMutability": "nonpayable",
      "type": "function"
    }
  ],
  "bytecode": "0x60806040523480156200001157600080fd5b50620000686200005c6040518060400160405280601181526020017f737570706f727473496e746572666163650000000000000000000000000000008152506200006e60201b60201c565b6200007f60201b60201c565b620001d9565b600081805190602001209050919050565b63ffffffff60e01b817bffffffffffffffffffffffffffffffffffffffffffffffffffffffff191603620000ea576040517f08c379a0000000000000000000000000000000000000000000000000000000008152600401620000e190620001b7565b60405180910390fd5b6001600080837bffffffffffffffffffffffffffffffffffffffffffffffffffffffff19167bffffffffffffffffffffffffffffffffffffffffffffffffffffffff1916815260200190815260200160002060006101000a81548160ff02191690831515021790555050565b600082825260208201905092915050565b7f4552433136353a20494e56414c494420494e5445524641434500000000000000600082015250565b60006200019f60198362000156565b9150620001ac8262000167565b602082019050919050565b60006020820190508181036000830152620001d28162000190565b9050919050565b61118280620001e96000396000f3fe608060405234801561001057600080fd5b506004361061007d5760003560e01c806323b872dd1161005b57806323b872dd146100ea5780636352211e1461010657806370a0823114610136578063ec9c48d5146101665761007d565b806301ffc9a714610082578063068417d9146100b2578063095ea7b3146100ce575b600080fd5b61009c600480360381019061009791906109b6565b610196565b6040516100a991906109fe565b60405180910390f35b6100cc60048036038101906100c791906109b6565b6101fd565b005b6100e860048036038101906100e39190610aad565b6102d1565b005b61010460048036038101906100ff9190610aed565b61046c565b005b610120600480360381019061011b9190610b40565b61048f565b60405161012d9190610b7c565b60405180910390f35b610150600480360381019061014b9190610b97565b610540565b60405161015d9190610bd3565b60405180910390f35b610180600480360381019061017b9190610d34565b6105f7565b60405161018d9190610d8c565b60405180910390f35b6000806000837bffffffffffffffffffffffffffffffffffffffffffffffffffffffff19167bffffffffffffffffffffffffffffffffffffffffffffffffffffffff1916815260200190815260200160002060009054906101000a900460ff169050919050565b63ffffffff60e01b817bffffffffffffffffffffffffffffffffffffffffffffffffffffffff191603610265576040517f08c379a000000000000000000000000000000000000000000000000000000000815260040161025c90610e04565b60405180910390fd5b6001600080837bffffffffffffffffffffffffffffffffffffffffffffffffffffffff19167bffffffffffffffffffffffffffffffffffffffffffffffffffffffff1916815260200190815260200160002060006101000a81548160ff02191690831515021790555050565b60006102dc8261048f565b90508073ffffffffffffffffffffffffffffffffffffffff168373ffffffffffffffffffffffffffffffffffffffff160361034c576040517f08c379a000000000000000000000000000000000000000000000000000000000815260040161034390610e70565b60405180910390fd5b8073ffffffffffffffffffffffffffffffffffffffff163373ffffffffffffffffffffffffffffffffffffffff16146103ba576040517f08c379a00000000000000000000000000000000000000000000000000000000081526004016103b190610edc565b60405180910390fd5b826003600084815260200190815260200160002060006101000a81548173ffffffffffffffffffffffffffffffffffffffff021916908373ffffffffffffffffffffffffffffffffffffffff160217905550818373ffffffffffffffffffffffffffffffffffffffff168273ffffffffffffffffffffffffffffffffffffffff167f8c5be1e5ebec7d5bd14f71427d1e84f3dd0314c0f7b2291e5b200ac8c7c3b92560405160405180910390a4505050565b6104763382610608565b61047f57600080fd5b61048a838383610697565b505050565b6000806001600084815260200190815260200160002060009054906101000a900473ffffffffffffffffffffffffffffffffffffffff169050600073ffffffffffffffffffffffffffffffffffffffff168173ffffffffffffffffffffffffffffffffffffffff1603610537576040517f08c379a000000000000000000000000000000000000000000000000000000000815260040161052e90610f48565b60405180910390fd5b80915050919050565b60008073ffffffffffffffffffffffffffffffffffffffff168273ffffffffffffffffffffffffffffffffffffffff16036105b0576040517f08c379a00000000000000000000000000000000000000000000000000000000081526004016105a790610f48565b60405180910390fd5b600260008373ffffffffffffffffffffffffffffffffffffffff1673ffffffffffffffffffffffffffffffffffffffff168152602001908152602001600020549050919050565b600081805190602001209050919050565b6000610613826108d8565b610652576040517f08c379a000000000000000000000000000000000000000000000000000000000815260040161064990610fb4565b60405180910390fd5b600061065d8361048f565b90508073ffffffffffffffffffffffffffffffffffffffff168473ffffffffffffffffffffffffffffffffffffffff161491505092915050565b600073ffffffffffffffffffffffffffffffffffffffff168273ffffffffffffffffffffffffffffffffffffffff1603610706576040517f08c379a00000000000000000000000000000000000000000000000000000000081526004016106fd90611020565b60405180910390fd5b8273ffffffffffffffffffffffffffffffffffffffff166107268261048f565b73ffffffffffffffffffffffffffffffffffffffff161461077c576040517f08c379a00000000000000000000000000000000000000000000000000000000081526004016107739061108c565b60405180910390fd5b816001600083815260200190815260200160002060006101000a81548173ffffffffffffffffffffffffffffffffffffffff021916908373ffffffffffffffffffffffffffffffffffffffff160217905550600260008373ffffffffffffffffffffffffffffffffffffffff1673ffffffffffffffffffffffffffffffffffffffff168152602001908152602001600020600081548092919061081e906110db565b9190505550600260008473ffffffffffffffffffffffffffffffffffffffff1673ffffffffffffffffffffffffffffffffffffffff168152602001908152602001600020600081548092919061087390611123565b9190505550808273ffffffffffffffffffffffffffffffffffffffff168473ffffffffffffffffffffffffffffffffffffffff167fddf252ad1be2c89b69c2b068fc378daa952ba7f163c4a11628f55a4df523b3ef60405160405180910390a4505050565b6000806001600084815260200190815260200160002060009054906101000a900473ffffffffffffffffffffffffffffffffffffffff169050600073ffffffffffffffffffffffffffffffffffffffff168173ffffffffffffffffffffffffffffffffffffffff161415915050919050565b6000604051905090565b600080fd5b600080fd5b60007fffffffff0000000000000000000000000000000000000000000000000000000082169050919050565b6109938161095e565b811461099e57600080fd5b50565b6000813590506109b08161098a565b92915050565b6000602082840312156109cc576109cb610954565b5b60006109da848285016109a1565b91505092915050565b60008115159050919050565b6109f8816109e3565b82525050565b6000602082019050610a1360008301846109ef565b92915050565b600073ffffffffffffffffffffffffffffffffffffffff82169050919050565b6000610a4482610a19565b9050919050565b610a5481610a39565b8114610a5f57600080fd5b50565b600081359050610a7181610a4b565b92915050565b6000819050919050565b610a8a81610a77565b8114610a9557600080fd5b50565b600081359050610aa781610a81565b92915050565b60008060408385031215610ac457610ac3610954565b5b6000610ad285828601610a62565b9250506020610ae385828601610a98565b9150509250929050565b600080600060608486031215610b0657610b05610954565b5b6000610b1486828701610a62565b9350506020610b2586828701610a62565b9250506040610b3686828701610a98565b9150509250925092565b600060208284031215610b5657610b55610954565b5b6000610b6484828501610a98565b91505092915050565b610b7681610a39565b82525050565b6000602082019050610b916000830184610b6d565b92915050565b600060208284031215610bad57610bac610954565b5b6000610bbb84828501610a62565b91505092915050565b610bcd81610a77565b82525050565b6000602082019050610be86000830184610bc4565b92915050565b600080fd5b600080fd5b6000601f19601f8301169050919050565b7f4e487b7100000000000000000000000000000000000000000000000000000000600052604160045260246000fd5b610c4182610bf8565b810181811067ffffffffffffffff82111715610c6057610c5f610c09565b5b80604052505050565b6000610c7361094a565b9050610c7f8282610c38565b919050565b600067ffffffffffffffff821115610c9f57610c9e610c09565b5b610ca882610bf8565b9050602081019050919050565b82818337600083830152505050565b6000610cd7610cd284610c84565b610c69565b905082815260208101848484011115610cf357610cf2610bf3565b5b610cfe848285610cb5565b509392505050565b600082601f830112610d1b57610d1a610bee565b5b8135610d2b848260208601610cc4565b91505092915050565b600060208284031215610d4a57610d49610954565b5b600082013567ffffffffffffffff811115610d6857610d67610959565b5b610d7484828501610d06565b91505092915050565b610d868161095e565b82525050565b6000602082019050610da16000830184610d7d565b92915050565b600082825260208201905092915050565b7f4552433136353a20494e56414c494420494e5445524641434500000000000000600082015250565b6000610dee601983610da7565b9150610df982610db8565b602082019050919050565b60006020820190508181036000830152610e1d81610de1565b9050919050565b7f4572726f7220617070726f76616c20746f2063757272656e74206f776e657200600082015250565b6000610e5a601f83610da7565b9150610e6582610e24565b602082019050919050565b60006020820190508181036000830152610e8981610e4d565b9050919050565b7f4375727272656e742063616c6c6572206973206e6f7420746865206f776e6572600082015250565b6000610ec6602083610da7565b9150610ed182610e90565b602082019050919050565b60006020820190508181036000830152610ef581610eb9565b9050919050565b7f4f776e65722076616c7565206973206e756c6c00000000000000000000000000600082015250565b6000610f32601383610da7565b9150610f3d82610efc565b602082019050919050565b60006020820190508181036000830152610f6181610f25565b9050919050565b7f746f6b656e20646f65736e742065787369737473000000000000000000000000600082015250565b6000610f9e601483610da7565b9150610fa982610f68565b602082019050919050565b60006020820190508181036000830152610fcd81610f91565b9050919050565b7f72656369657665722061646472657373206973206e756c6c0000000000000000600082015250565b600061100a601883610da7565b915061101582610fd4565b602082019050919050565b6000602082019050818103600083015261103981610ffd565b9050919050565b7f6f776e6572206f6620746f6b656e206e6f7420636f7272656374000000000000600082015250565b6000611076601a83610da7565b915061108182611040565b602082019050919050565b600060208201905081810360008301526110a581611069565b9050919050565b7f4e487b7100000000000000000000000000000000000000000000000000000000600052601160045260246000fd5b60006110e682610a77565b91507fffffffffffffffffffffffffffffffffffffffffffffffffffffffffffffffff8203611118576111176110ac565b5b600182019050919050565b600061112e82610a77565b915060008203611141576111406110ac565b5b60018203905091905056fea2646970667358221220aeb0963439a1f6f58ba76169022a17abbf0dbbed7016120426c00a3a6c9af53664736f6c63430008130033",
  "immutableReferences": {},
  "source": "// SPDX-License-Identifier: MIT\r\npragma solidity ^0.8.0;\r\n\r\nimport \"./ERC165.sol\";\r\nimport \"./Interfaces/IERC721.sol\";\r\n\r\ncontract ERC721 is ERC165, IERC721{\r\n    mapping(uint => address) private _tokenOwner;\r\n    mapping(address => uint) private _OwnedTokenCounts;\r\n    mapping(uint => address) private _tokenApproval;\r\n\r\n    function _mint(uint tokenId, address to) internal virtual {\r\n        require(to != address(0), \"Address is 0\");\r\n        require(!_exists(tokenId), \"Token already minted\");\r\n\r\n        _tokenOwner[tokenId] = to;\r\n        _OwnedTokenCounts[to]++;\r\n\r\n        emit Transfer(address(0), to, tokenId);\r\n    }\r\n\r\n    function balanceOf(address _owner) public view returns (uint) {\r\n        require(_owner != address(0), \"Owner value is null\");\r\n        return _OwnedTokenCounts[_owner];\r\n    }\r\n\r\n    function ownerOf(uint _tokenId) public view returns (address) {\r\n        address owner = _tokenOwner[_tokenId];\r\n        require(owner != address(0), \"Owner value is null\");\r\n        return owner;\r\n    }\r\n\r\n    function _exists(uint tokenId) internal view returns (bool) {\r\n        address owner = _tokenOwner[tokenId];\r\n        return owner != address(0);\r\n    }\r\n\r\n    function _transferFrom(address _from, address _to, uint tokenID) internal {\r\n        require(_to != address(0), \"reciever address is null\");\r\n        require(ownerOf(tokenID) == _from, \"owner of token not correct\");\r\n        _tokenOwner[tokenID] = _to;\r\n        _OwnedTokenCounts[_to]++;\r\n        _OwnedTokenCounts[_from]--;\r\n        emit Transfer(_from, _to, tokenID);\r\n    }\r\n\r\n    function transferFrom(address _from, address _to, uint tokenID) public {\r\n        // checking if msg.sender and owner of tokenID are same\r\n        require(isApprovedOrOwner(msg.sender, tokenID));\r\n        _transferFrom(_from, _to, tokenID);\r\n    }\r\n\r\n    function approve(address _to, uint tokenId) public {\r\n        address owner = ownerOf(tokenId);\r\n        require(_to != owner, \"Error approval to current owner\");\r\n        require(msg.sender == owner, \"Currrent caller is not the owner\");\r\n        _tokenApproval[tokenId] = _to;\r\n        emit Approval(owner, _to, tokenId);\r\n    }\r\n\r\n    function isApprovedOrOwner(\r\n        address spender,\r\n        uint tokenId\r\n    ) internal view returns (bool) {\r\n        require(_exists(tokenId), \"token doesnt exsists\");\r\n        address owner = ownerOf(tokenId);\r\n        return (spender == owner);\r\n    }\r\n}\r\n",
  "sourcePath": "G:\\nft-market-place\\src\\contracts\\ERC721.sol",
  "compiler": {
    "name": "solc",
    "version": "0.8.19+commit.7dd6d404.Emscripten.clang"
  },
  "schemaVersion": "3.4.13",
  "updatedAt": "2023-04-17T18:26:44.174Z",
  "devdoc": {
    "kind": "dev",
    "methods": {},
    "version": 1
  },
  "userdoc": {
    "kind": "user",
    "methods": {},
    "version": 1
  }
}