{
  "contractName": "ERC721Ennumerator",
  "abi": [
    {
      "inputs": [],
      "stateMutability": "nonpayable",
      "type": "constructor"
    },
    {
      "anonymous": false,
      "inputs": [
        {
          "indexed": true,
          "internalType": "address",
          "name": "_owner",
          "type": "address"
        },
        {
          "indexed": true,
          "internalType": "address",
          "name": "_approved",
          "type": "address"
        },
        {
          "indexed": true,
          "internalType": "uint256",
          "name": "_tokenId",
          "type": "uint256"
        }
      ],
      "name": "Approval",
      "type": "event"
    },
    {
      "anonymous": false,
      "inputs": [
        {
          "indexed": true,
          "internalType": "address",
          "name": "_from",
          "type": "address"
        },
        {
          "indexed": true,
          "internalType": "address",
          "name": "_to",
          "type": "address"
        },
        {
          "indexed": true,
          "internalType": "uint256",
          "name": "_tokenId",
          "type": "uint256"
        }
      ],
      "name": "Transfer",
      "type": "event"
    },
    {
      "inputs": [
        {
          "internalType": "bytes4",
          "name": "interfaceId",
          "type": "bytes4"
        }
      ],
      "name": "_registerInterface",
      "outputs": [],
      "stateMutability": "nonpayable",
      "type": "function"
    },
    {
      "inputs": [
        {
          "internalType": "address",
          "name": "_to",
          "type": "address"
        },
        {
          "internalType": "uint256",
          "name": "tokenId",
          "type": "uint256"
        }
      ],
      "name": "approve",
      "outputs": [],
      "stateMutability": "nonpayable",
      "type": "function"
    },
    {
      "inputs": [
        {
          "internalType": "address",
          "name": "_owner",
          "type": "address"
        }
      ],
      "name": "balanceOf",
      "outputs": [
        {
          "internalType": "uint256",
          "name": "",
          "type": "uint256"
        }
      ],
      "stateMutability": "view",
      "type": "function"
    },
    {
      "inputs": [
        {
          "internalType": "bytes",
          "name": "objectSign",
          "type": "bytes"
        }
      ],
      "name": "calcFingerPrint",
      "outputs": [
        {
          "internalType": "bytes4",
          "name": "",
          "type": "bytes4"
        }
      ],
      "stateMutability": "pure",
      "type": "function"
    },
    {
      "inputs": [
        {
          "internalType": "uint256",
          "name": "_tokenId",
          "type": "uint256"
        }
      ],
      "name": "ownerOf",
      "outputs": [
        {
          "internalType": "address",
          "name": "",
          "type": "address"
        }
      ],
      "stateMutability": "view",
      "type": "function"
    },
    {
      "inputs": [
        {
          "internalType": "bytes4",
          "name": "interfaceId",
          "type": "bytes4"
        }
      ],
      "name": "supportsInterface",
      "outputs": [
        {
          "internalType": "bool",
          "name": "",
          "type": "bool"
        }
      ],
      "stateMutability": "view",
      "type": "function"
    },
    {
      "inputs": [
        {
          "internalType": "address",
          "name": "_from",
          "type": "address"
        },
        {
          "internalType": "address",
          "name": "_to",
          "type": "address"
        },
        {
          "internalType": "uint256",
          "name": "tokenID",
          "type": "uint256"
        }
      ],
      "name": "transferFrom",
      "outputs": [],
      "stateMutability": "nonpayable",
      "type": "function"
    },
    {
      "inputs": [],
      "name": "totalSupply",
      "outputs": [
        {
          "internalType": "uint256",
          "name": "",
          "type": "uint256"
        }
      ],
      "stateMutability": "view",
      "type": "function"
    },
    {
      "inputs": [
        {
          "internalType": "uint256",
          "name": "index",
          "type": "uint256"
        }
      ],
      "name": "tokenByIndex",
      "outputs": [
        {
          "internalType": "uint256",
          "name": "",
          "type": "uint256"
        }
      ],
      "stateMutability": "view",
      "type": "function"
    },
    {
      "inputs": [
        {
          "internalType": "address",
          "name": "owner",
          "type": "address"
        },
        {
          "internalType": "uint256",
          "name": "index",
          "type": "uint256"
        }
      ],
      "name": "tokenOfOwnerByIndex",
      "outputs": [
        {
          "internalType": "uint256",
          "name": "",
          "type": "uint256"
        }
      ],
      "stateMutability": "view",
      "type": "function"
    }
  ],
  "bytecode": "0x60806040523480156200001157600080fd5b50620000686200005c6040518060400160405280601981526020017f737570706f727473496e746572666163652862797465733429000000000000008152506200027d60201b60201c565b6200028e60201b60201c565b62000193620000b26040518060400160405280600f81526020017f617070726f7665286279746573342900000000000000000000000000000000008152506200027d60201b60201c565b620000f86040518060400160405280601481526020017f7472616e7366657246726f6d28627974657334290000000000000000000000008152506200027d60201b60201c565b6200013e6040518060400160405280600f81526020017f6f776e65724f66286279746573342900000000000000000000000000000000008152506200027d60201b60201c565b620001846040518060400160405280601181526020017f62616c616e63654f6628627974657334290000000000000000000000000000008152506200027d60201b60201c565b1818186200028e60201b60201c565b62000277620001dd6040518060400160405280601b81526020017f746f6b656e4f664f776e65724279496e646578286279746573342900000000008152506200027d60201b60201c565b620002236040518060400160405280601481526020017f746f6b656e4279496e64657828627974657334290000000000000000000000008152506200027d60201b60201c565b620002696040518060400160405280601381526020017f746f74616c537570706c792862797465733429000000000000000000000000008152506200027d60201b60201c565b18186200028e60201b60201c565b620003e8565b600081805190602001209050919050565b63ffffffff60e01b817bffffffffffffffffffffffffffffffffffffffffffffffffffffffff191603620002f9576040517f08c379a0000000000000000000000000000000000000000000000000000000008152600401620002f090620003c6565b60405180910390fd5b6001600080837bffffffffffffffffffffffffffffffffffffffffffffffffffffffff19167bffffffffffffffffffffffffffffffffffffffffffffffffffffffff1916815260200190815260200160002060006101000a81548160ff02191690831515021790555050565b600082825260208201905092915050565b7f4552433136353a20494e56414c494420494e5445524641434500000000000000600082015250565b6000620003ae60198362000365565b9150620003bb8262000376565b602082019050919050565b60006020820190508181036000830152620003e1816200039f565b9050919050565b61145680620003f86000396000f3fe608060405234801561001057600080fd5b506004361061009e5760003560e01c80632f745c59116100665780632f745c59146101455780634f6ccce7146101755780636352211e146101a557806370a08231146101d5578063ec9c48d5146102055761009e565b806301ffc9a7146100a3578063068417d9146100d3578063095ea7b3146100ef57806318160ddd1461010b57806323b872dd14610129575b600080fd5b6100bd60048036038101906100b89190610b83565b610235565b6040516100ca9190610bcb565b60405180910390f35b6100ed60048036038101906100e89190610b83565b61029c565b005b61010960048036038101906101049190610c7a565b610370565b005b61011361050b565b6040516101209190610cc9565b60405180910390f35b610143600480360381019061013e9190610ce4565b610518565b005b61015f600480360381019061015a9190610c7a565b61053b565b60405161016c9190610cc9565b60405180910390f35b61018f600480360381019061018a9190610d37565b6105eb565b60405161019c9190610cc9565b60405180910390f35b6101bf60048036038101906101ba9190610d37565b61065c565b6040516101cc9190610d73565b60405180910390f35b6101ef60048036038101906101ea9190610d8e565b61070d565b6040516101fc9190610cc9565b60405180910390f35b61021f600480360381019061021a9190610f01565b6107c4565b60405161022c9190610f59565b60405180910390f35b6000806000837bffffffffffffffffffffffffffffffffffffffffffffffffffffffff19167bffffffffffffffffffffffffffffffffffffffffffffffffffffffff1916815260200190815260200160002060009054906101000a900460ff169050919050565b63ffffffff60e01b817bffffffffffffffffffffffffffffffffffffffffffffffffffffffff191603610304576040517f08c379a00000000000000000000000000000000000000000000000000000000081526004016102fb90610fd1565b60405180910390fd5b6001600080837bffffffffffffffffffffffffffffffffffffffffffffffffffffffff19167bffffffffffffffffffffffffffffffffffffffffffffffffffffffff1916815260200190815260200160002060006101000a81548160ff02191690831515021790555050565b600061037b8261065c565b90508073ffffffffffffffffffffffffffffffffffffffff168373ffffffffffffffffffffffffffffffffffffffff16036103eb576040517f08c379a00000000000000000000000000000000000000000000000000000000081526004016103e29061103d565b60405180910390fd5b8073ffffffffffffffffffffffffffffffffffffffff163373ffffffffffffffffffffffffffffffffffffffff1614610459576040517f08c379a0000000000000000000000000000000000000000000000000000000008152600401610450906110a9565b60405180910390fd5b826003600084815260200190815260200160002060006101000a81548173ffffffffffffffffffffffffffffffffffffffff021916908373ffffffffffffffffffffffffffffffffffffffff160217905550818373ffffffffffffffffffffffffffffffffffffffff168273ffffffffffffffffffffffffffffffffffffffff167f8c5be1e5ebec7d5bd14f71427d1e84f3dd0314c0f7b2291e5b200ac8c7c3b92560405160405180910390a4505050565b6000600480549050905090565b61052233826107d5565b61052b57600080fd5b610536838383610864565b505050565b60006105468361070d565b8210610587576040517f08c379a000000000000000000000000000000000000000000000000000000000815260040161057e90611115565b60405180910390fd5b600660008473ffffffffffffffffffffffffffffffffffffffff1673ffffffffffffffffffffffffffffffffffffffff16815260200190815260200160002082815481106105d8576105d7611135565b5b9060005260206000200154905092915050565b60006105f561050b565b8210610636576040517f08c379a000000000000000000000000000000000000000000000000000000000815260040161062d906111b0565b60405180910390fd5b6004828154811061064a57610649611135565b5b90600052602060002001549050919050565b6000806001600084815260200190815260200160002060009054906101000a900473ffffffffffffffffffffffffffffffffffffffff169050600073ffffffffffffffffffffffffffffffffffffffff168173ffffffffffffffffffffffffffffffffffffffff1603610704576040517f08c379a00000000000000000000000000000000000000000000000000000000081526004016106fb9061121c565b60405180910390fd5b80915050919050565b60008073ffffffffffffffffffffffffffffffffffffffff168273ffffffffffffffffffffffffffffffffffffffff160361077d576040517f08c379a00000000000000000000000000000000000000000000000000000000081526004016107749061121c565b60405180910390fd5b600260008373ffffffffffffffffffffffffffffffffffffffff1673ffffffffffffffffffffffffffffffffffffffff168152602001908152602001600020549050919050565b600081805190602001209050919050565b60006107e082610aa5565b61081f576040517f08c379a000000000000000000000000000000000000000000000000000000000815260040161081690611288565b60405180910390fd5b600061082a8361065c565b90508073ffffffffffffffffffffffffffffffffffffffff168473ffffffffffffffffffffffffffffffffffffffff161491505092915050565b600073ffffffffffffffffffffffffffffffffffffffff168273ffffffffffffffffffffffffffffffffffffffff16036108d3576040517f08c379a00000000000000000000000000000000000000000000000000000000081526004016108ca906112f4565b60405180910390fd5b8273ffffffffffffffffffffffffffffffffffffffff166108f38261065c565b73ffffffffffffffffffffffffffffffffffffffff1614610949576040517f08c379a000000000000000000000000000000000000000000000000000000000815260040161094090611360565b60405180910390fd5b816001600083815260200190815260200160002060006101000a81548173ffffffffffffffffffffffffffffffffffffffff021916908373ffffffffffffffffffffffffffffffffffffffff160217905550600260008373ffffffffffffffffffffffffffffffffffffffff1673ffffffffffffffffffffffffffffffffffffffff16815260200190815260200160002060008154809291906109eb906113af565b9190505550600260008473ffffffffffffffffffffffffffffffffffffffff1673ffffffffffffffffffffffffffffffffffffffff1681526020019081526020016000206000815480929190610a40906113f7565b9190505550808273ffffffffffffffffffffffffffffffffffffffff168473ffffffffffffffffffffffffffffffffffffffff167fddf252ad1be2c89b69c2b068fc378daa952ba7f163c4a11628f55a4df523b3ef60405160405180910390a4505050565b6000806001600084815260200190815260200160002060009054906101000a900473ffffffffffffffffffffffffffffffffffffffff169050600073ffffffffffffffffffffffffffffffffffffffff168173ffffffffffffffffffffffffffffffffffffffff161415915050919050565b6000604051905090565b600080fd5b600080fd5b60007fffffffff0000000000000000000000000000000000000000000000000000000082169050919050565b610b6081610b2b565b8114610b6b57600080fd5b50565b600081359050610b7d81610b57565b92915050565b600060208284031215610b9957610b98610b21565b5b6000610ba784828501610b6e565b91505092915050565b60008115159050919050565b610bc581610bb0565b82525050565b6000602082019050610be06000830184610bbc565b92915050565b600073ffffffffffffffffffffffffffffffffffffffff82169050919050565b6000610c1182610be6565b9050919050565b610c2181610c06565b8114610c2c57600080fd5b50565b600081359050610c3e81610c18565b92915050565b6000819050919050565b610c5781610c44565b8114610c6257600080fd5b50565b600081359050610c7481610c4e565b92915050565b60008060408385031215610c9157610c90610b21565b5b6000610c9f85828601610c2f565b9250506020610cb085828601610c65565b9150509250929050565b610cc381610c44565b82525050565b6000602082019050610cde6000830184610cba565b92915050565b600080600060608486031215610cfd57610cfc610b21565b5b6000610d0b86828701610c2f565b9350506020610d1c86828701610c2f565b9250506040610d2d86828701610c65565b9150509250925092565b600060208284031215610d4d57610d4c610b21565b5b6000610d5b84828501610c65565b91505092915050565b610d6d81610c06565b82525050565b6000602082019050610d886000830184610d64565b92915050565b600060208284031215610da457610da3610b21565b5b6000610db284828501610c2f565b91505092915050565b600080fd5b600080fd5b6000601f19601f8301169050919050565b7f4e487b7100000000000000000000000000000000000000000000000000000000600052604160045260246000fd5b610e0e82610dc5565b810181811067ffffffffffffffff82111715610e2d57610e2c610dd6565b5b80604052505050565b6000610e40610b17565b9050610e4c8282610e05565b919050565b600067ffffffffffffffff821115610e6c57610e6b610dd6565b5b610e7582610dc5565b9050602081019050919050565b82818337600083830152505050565b6000610ea4610e9f84610e51565b610e36565b905082815260208101848484011115610ec057610ebf610dc0565b5b610ecb848285610e82565b509392505050565b600082601f830112610ee857610ee7610dbb565b5b8135610ef8848260208601610e91565b91505092915050565b600060208284031215610f1757610f16610b21565b5b600082013567ffffffffffffffff811115610f3557610f34610b26565b5b610f4184828501610ed3565b91505092915050565b610f5381610b2b565b82525050565b6000602082019050610f6e6000830184610f4a565b92915050565b600082825260208201905092915050565b7f4552433136353a20494e56414c494420494e5445524641434500000000000000600082015250565b6000610fbb601983610f74565b9150610fc682610f85565b602082019050919050565b60006020820190508181036000830152610fea81610fae565b9050919050565b7f4572726f7220617070726f76616c20746f2063757272656e74206f776e657200600082015250565b6000611027601f83610f74565b915061103282610ff1565b602082019050919050565b600060208201905081810360008301526110568161101a565b9050919050565b7f4375727272656e742063616c6c6572206973206e6f7420746865206f776e6572600082015250565b6000611093602083610f74565b915061109e8261105d565b602082019050919050565b600060208201905081810360008301526110c281611086565b9050919050565b7f4f776e657220496e646578206f7574206f6620626f6e64732000000000000000600082015250565b60006110ff601983610f74565b915061110a826110c9565b602082019050919050565b6000602082019050818103600083015261112e816110f2565b9050919050565b7f4e487b7100000000000000000000000000000000000000000000000000000000600052603260045260246000fd5b7f4e6f7420656e6f75676820746f6b656e73000000000000000000000000000000600082015250565b600061119a601183610f74565b91506111a582611164565b602082019050919050565b600060208201905081810360008301526111c98161118d565b9050919050565b7f4f776e65722076616c7565206973206e756c6c00000000000000000000000000600082015250565b6000611206601383610f74565b9150611211826111d0565b602082019050919050565b60006020820190508181036000830152611235816111f9565b9050919050565b7f746f6b656e20646f65736e742065787369737473000000000000000000000000600082015250565b6000611272601483610f74565b915061127d8261123c565b602082019050919050565b600060208201905081810360008301526112a181611265565b9050919050565b7f72656369657665722061646472657373206973206e756c6c0000000000000000600082015250565b60006112de601883610f74565b91506112e9826112a8565b602082019050919050565b6000602082019050818103600083015261130d816112d1565b9050919050565b7f6f776e6572206f6620746f6b656e206e6f7420636f7272656374000000000000600082015250565b600061134a601a83610f74565b915061135582611314565b602082019050919050565b600060208201905081810360008301526113798161133d565b9050919050565b7f4e487b7100000000000000000000000000000000000000000000000000000000600052601160045260246000fd5b60006113ba82610c44565b91507fffffffffffffffffffffffffffffffffffffffffffffffffffffffffffffffff82036113ec576113eb611380565b5b600182019050919050565b600061140282610c44565b91506000820361141557611414611380565b5b60018203905091905056fea2646970667358221220497ccd04beccbd0b9c3b35a583bb62e65fe72c24363bf34c9306a1ebd92a0d4164736f6c63430008130033",
  "immutableReferences": {},
  "source": "// SPDX-License-Identifier: MIT\r\npragma solidity ^0.8.0;\r\n\r\nimport \"./ERC721.sol\";\r\nimport \"./Interfaces/IERC721Enumerable.sol\";\r\n\r\ncontract ERC721Ennumerator is ERC721, IERC721Enumerable {\r\n    uint256[] private _allTokens;\r\n\r\n    constructor() {\r\n        _registerInterface(\r\n            calcFingerPrint(\"totalSupply(bytes4)\") ^\r\n                calcFingerPrint(\"tokenByIndex(bytes4)\") ^\r\n                calcFingerPrint(\"tokenOfOwnerByIndex(bytes4)\")\r\n        );\r\n    }\r\n\r\n    // tokenId to index in _allTokens array\r\n    mapping(uint => uint) private _allTokensIndex;\r\n    // owner to array of all tokens owned by him\r\n    mapping(address => uint256[]) private _ownedTokens;\r\n    // tokenId to index of owner token list (above)\r\n    mapping(uint => uint) private _ownedTokensIndex;\r\n\r\n    function totalSupply() public view returns (uint) {\r\n        return _allTokens.length;\r\n    }\r\n\r\n    function tokenByIndex(uint index) public view returns (uint) {\r\n        require(index < totalSupply(), \"Not enough tokens\");\r\n        return _allTokens[index];\r\n    }\r\n\r\n    function tokenOfOwnerByIndex(\r\n        address owner,\r\n        uint index\r\n    ) public view returns (uint) {\r\n        require(index < balanceOf(owner), \"Owner Index out of bonds \");\r\n        return _ownedTokens[owner][index];\r\n    }\r\n\r\n    function _mint(uint256 tokenID, address to) internal override(ERC721) {\r\n        super._mint(tokenID, to);\r\n        _addTokensToAllTokensEnnumeration(tokenID);\r\n        _addTokensToOwnerTokensEnnumeration(tokenID, to);\r\n    }\r\n\r\n    function _addTokensToOwnerTokensEnnumeration(\r\n        uint tokenID,\r\n        address to\r\n    ) private {\r\n        _ownedTokens[to].push(tokenID);\r\n        _ownedTokensIndex[tokenID] = _ownedTokens[to].length;\r\n    }\r\n\r\n    function _addTokensToAllTokensEnnumeration(uint tokenID) private {\r\n        _allTokensIndex[tokenID] = _allTokens.length;\r\n        _allTokens.push(tokenID);\r\n    }\r\n}\r\n",
  "sourcePath": "G:\\nft-market-place\\src\\contracts\\ERC721Ennumerator.sol",
  "compiler": {
    "name": "solc",
    "version": "0.8.19+commit.7dd6d404.Emscripten.clang"
  },
  "schemaVersion": "3.4.13",
  "updatedAt": "2023-04-22T06:46:11.885Z",
  "devdoc": {
    "kind": "dev",
    "methods": {},
    "version": 1
  },
  "userdoc": {
    "kind": "user",
    "methods": {},
    "version": 1
  }
}