{
  "contractName": "ERC721Connector",
  "abi": [
    {
      "inputs": [
        {
          "internalType": "string",
          "name": "_name",
          "type": "string"
        },
        {
          "internalType": "string",
          "name": "_symbol",
          "type": "string"
        }
      ],
      "stateMutability": "nonpayable",
      "type": "constructor"
    },
    {
      "anonymous": false,
      "inputs": [
        {
          "indexed": true,
          "internalType": "address",
          "name": "from",
          "type": "address"
        },
        {
          "indexed": true,
          "internalType": "address",
          "name": "to",
          "type": "address"
        },
        {
          "indexed": true,
          "internalType": "uint256",
          "name": "tokenId",
          "type": "uint256"
        }
      ],
      "name": "Transfer",
      "type": "event"
    },
    {
      "inputs": [],
      "name": "NameGetter",
      "outputs": [
        {
          "internalType": "string",
          "name": "",
          "type": "string"
        }
      ],
      "stateMutability": "view",
      "type": "function"
    },
    {
      "inputs": [
        {
          "internalType": "address",
          "name": "_owner",
          "type": "address"
        }
      ],
      "name": "balanceOf",
      "outputs": [
        {
          "internalType": "uint256",
          "name": "",
          "type": "uint256"
        }
      ],
      "stateMutability": "view",
      "type": "function"
    },
    {
      "inputs": [
        {
          "internalType": "uint256",
          "name": "_tokenId",
          "type": "uint256"
        }
      ],
      "name": "ownerOf",
      "outputs": [
        {
          "internalType": "address",
          "name": "",
          "type": "address"
        }
      ],
      "stateMutability": "view",
      "type": "function"
    },
    {
      "inputs": [],
      "name": "symbolGetter",
      "outputs": [
        {
          "internalType": "string",
          "name": "",
          "type": "string"
        }
      ],
      "stateMutability": "view",
      "type": "function"
    },
    {
      "inputs": [
        {
          "internalType": "uint256",
          "name": "index",
          "type": "uint256"
        }
      ],
      "name": "tokenByIndex",
      "outputs": [
        {
          "internalType": "uint256",
          "name": "",
          "type": "uint256"
        }
      ],
      "stateMutability": "view",
      "type": "function"
    },
    {
      "inputs": [
        {
          "internalType": "address",
          "name": "owner",
          "type": "address"
        },
        {
          "internalType": "uint256",
          "name": "index",
          "type": "uint256"
        }
      ],
      "name": "tokenOfOwnerByIndex",
      "outputs": [
        {
          "internalType": "uint256",
          "name": "",
          "type": "uint256"
        }
      ],
      "stateMutability": "view",
      "type": "function"
    },
    {
      "inputs": [
        {
          "internalType": "address",
          "name": "_from",
          "type": "address"
        },
        {
          "internalType": "address",
          "name": "_to",
          "type": "address"
        },
        {
          "internalType": "uint256",
          "name": "tokenID",
          "type": "uint256"
        }
      ],
      "name": "transferFrom",
      "outputs": [],
      "stateMutability": "nonpayable",
      "type": "function"
    }
  ],
  "bytecode": "0x60806040523480156200001157600080fd5b5060405162001373380380620013738339818101604052810190620000379190620001fa565b818181600090816200004a9190620004ca565b5080600190816200005c9190620004ca565b5050505050620005b1565b6000604051905090565b600080fd5b600080fd5b600080fd5b600080fd5b6000601f19601f8301169050919050565b7f4e487b7100000000000000000000000000000000000000000000000000000000600052604160045260246000fd5b620000d08262000085565b810181811067ffffffffffffffff82111715620000f257620000f162000096565b5b80604052505050565b60006200010762000067565b9050620001158282620000c5565b919050565b600067ffffffffffffffff82111562000138576200013762000096565b5b620001438262000085565b9050602081019050919050565b60005b838110156200017057808201518184015260208101905062000153565b60008484015250505050565b6000620001936200018d846200011a565b620000fb565b905082815260208101848484011115620001b257620001b162000080565b5b620001bf84828562000150565b509392505050565b600082601f830112620001df57620001de6200007b565b5b8151620001f18482602086016200017c565b91505092915050565b6000806040838503121562000214576200021362000071565b5b600083015167ffffffffffffffff81111562000235576200023462000076565b5b6200024385828601620001c7565b925050602083015167ffffffffffffffff81111562000267576200026662000076565b5b6200027585828601620001c7565b9150509250929050565b600081519050919050565b7f4e487b7100000000000000000000000000000000000000000000000000000000600052602260045260246000fd5b60006002820490506001821680620002d257607f821691505b602082108103620002e857620002e76200028a565b5b50919050565b60008190508160005260206000209050919050565b60006020601f8301049050919050565b600082821b905092915050565b600060088302620003527fffffffffffffffffffffffffffffffffffffffffffffffffffffffffffffffff8262000313565b6200035e868362000313565b95508019841693508086168417925050509392505050565b6000819050919050565b6000819050919050565b6000620003ab620003a56200039f8462000376565b62000380565b62000376565b9050919050565b6000819050919050565b620003c7836200038a565b620003df620003d682620003b2565b84845462000320565b825550505050565b600090565b620003f6620003e7565b62000403818484620003bc565b505050565b5b818110156200042b576200041f600082620003ec565b60018101905062000409565b5050565b601f8211156200047a576200044481620002ee565b6200044f8462000303565b810160208510156200045f578190505b620004776200046e8562000303565b83018262000408565b50505b505050565b600082821c905092915050565b60006200049f600019846008026200047f565b1980831691505092915050565b6000620004ba83836200048c565b9150826002028217905092915050565b620004d5826200027f565b67ffffffffffffffff811115620004f157620004f062000096565b5b620004fd8254620002b9565b6200050a8282856200042f565b600060209050601f8311600181146200054257600084156200052d578287015190505b620005398582620004ac565b865550620005a9565b601f1984166200055286620002ee565b60005b828110156200057c5784890151825560018201915060208501945060208101905062000555565b868310156200059c578489015162000598601f8916826200048c565b8355505b6001600288020188555050505b505050505050565b610db280620005c16000396000f3fe608060405234801561001057600080fd5b506004361061007d5760003560e01c80632f745c591161005b5780632f745c59146100da5780634f6ccce71461010a5780636352211e1461013a57806370a082311461016a5761007d565b80630d546dfd1461008257806317c2272e146100a057806323b872dd146100be575b600080fd5b61008a61019a565b6040516100979190610835565b60405180910390f35b6100a861022c565b6040516100b59190610835565b60405180910390f35b6100d860048036038101906100d391906108f0565b6102be565b005b6100f460048036038101906100ef9190610943565b6102ce565b6040516101019190610992565b60405180910390f35b610124600480360381019061011f91906109ad565b61037e565b6040516101319190610992565b60405180910390f35b610154600480360381019061014f91906109ad565b6103ef565b60405161016191906109e9565b60405180910390f35b610184600480360381019061017f9190610a04565b6104a0565b6040516101919190610992565b60405180910390f35b6060600180546101a990610a60565b80601f01602080910402602001604051908101604052809291908181526020018280546101d590610a60565b80156102225780601f106101f757610100808354040283529160200191610222565b820191906000526020600020905b81548152906001019060200180831161020557829003601f168201915b5050505050905090565b60606000805461023b90610a60565b80601f016020809104026020016040519081016040528092919081815260200182805461026790610a60565b80156102b45780601f10610289576101008083540402835291602001916102b4565b820191906000526020600020905b81548152906001019060200180831161029757829003601f168201915b5050505050905090565b6102c9838383610557565b505050565b60006102d9836104a0565b821061031a576040517f08c379a000000000000000000000000000000000000000000000000000000000815260040161031190610add565b60405180910390fd5b600760008473ffffffffffffffffffffffffffffffffffffffff1673ffffffffffffffffffffffffffffffffffffffff168152602001908152602001600020828154811061036b5761036a610afd565b5b9060005260206000200154905092915050565b6000610388610798565b82106103c9576040517f08c379a00000000000000000000000000000000000000000000000000000000081526004016103c090610b78565b60405180910390fd5b600582815481106103dd576103dc610afd565b5b90600052602060002001549050919050565b6000806002600084815260200190815260200160002060009054906101000a900473ffffffffffffffffffffffffffffffffffffffff169050600073ffffffffffffffffffffffffffffffffffffffff168173ffffffffffffffffffffffffffffffffffffffff1603610497576040517f08c379a000000000000000000000000000000000000000000000000000000000815260040161048e90610be4565b60405180910390fd5b80915050919050565b60008073ffffffffffffffffffffffffffffffffffffffff168273ffffffffffffffffffffffffffffffffffffffff1603610510576040517f08c379a000000000000000000000000000000000000000000000000000000000815260040161050790610be4565b60405180910390fd5b600360008373ffffffffffffffffffffffffffffffffffffffff1673ffffffffffffffffffffffffffffffffffffffff168152602001908152602001600020549050919050565b600073ffffffffffffffffffffffffffffffffffffffff168273ffffffffffffffffffffffffffffffffffffffff16036105c6576040517f08c379a00000000000000000000000000000000000000000000000000000000081526004016105bd90610c50565b60405180910390fd5b8273ffffffffffffffffffffffffffffffffffffffff166105e6826103ef565b73ffffffffffffffffffffffffffffffffffffffff161461063c576040517f08c379a000000000000000000000000000000000000000000000000000000000815260040161063390610cbc565b60405180910390fd5b816002600083815260200190815260200160002060006101000a81548173ffffffffffffffffffffffffffffffffffffffff021916908373ffffffffffffffffffffffffffffffffffffffff160217905550600360008373ffffffffffffffffffffffffffffffffffffffff1673ffffffffffffffffffffffffffffffffffffffff16815260200190815260200160002060008154809291906106de90610d0b565b9190505550600360008473ffffffffffffffffffffffffffffffffffffffff1673ffffffffffffffffffffffffffffffffffffffff168152602001908152602001600020600081548092919061073390610d53565b9190505550808273ffffffffffffffffffffffffffffffffffffffff168473ffffffffffffffffffffffffffffffffffffffff167fddf252ad1be2c89b69c2b068fc378daa952ba7f163c4a11628f55a4df523b3ef60405160405180910390a4505050565b6000600580549050905090565b600081519050919050565b600082825260208201905092915050565b60005b838110156107df5780820151818401526020810190506107c4565b60008484015250505050565b6000601f19601f8301169050919050565b6000610807826107a5565b61081181856107b0565b93506108218185602086016107c1565b61082a816107eb565b840191505092915050565b6000602082019050818103600083015261084f81846107fc565b905092915050565b600080fd5b600073ffffffffffffffffffffffffffffffffffffffff82169050919050565b60006108878261085c565b9050919050565b6108978161087c565b81146108a257600080fd5b50565b6000813590506108b48161088e565b92915050565b6000819050919050565b6108cd816108ba565b81146108d857600080fd5b50565b6000813590506108ea816108c4565b92915050565b60008060006060848603121561090957610908610857565b5b6000610917868287016108a5565b9350506020610928868287016108a5565b9250506040610939868287016108db565b9150509250925092565b6000806040838503121561095a57610959610857565b5b6000610968858286016108a5565b9250506020610979858286016108db565b9150509250929050565b61098c816108ba565b82525050565b60006020820190506109a76000830184610983565b92915050565b6000602082840312156109c3576109c2610857565b5b60006109d1848285016108db565b91505092915050565b6109e38161087c565b82525050565b60006020820190506109fe60008301846109da565b92915050565b600060208284031215610a1a57610a19610857565b5b6000610a28848285016108a5565b91505092915050565b7f4e487b7100000000000000000000000000000000000000000000000000000000600052602260045260246000fd5b60006002820490506001821680610a7857607f821691505b602082108103610a8b57610a8a610a31565b5b50919050565b7f4f776e657220496e646578206f7574206f6620626f6e64732000000000000000600082015250565b6000610ac76019836107b0565b9150610ad282610a91565b602082019050919050565b60006020820190508181036000830152610af681610aba565b9050919050565b7f4e487b7100000000000000000000000000000000000000000000000000000000600052603260045260246000fd5b7f4e6f7420656e6f75676820746f6b656e73000000000000000000000000000000600082015250565b6000610b626011836107b0565b9150610b6d82610b2c565b602082019050919050565b60006020820190508181036000830152610b9181610b55565b9050919050565b7f4f776e65722076616c7565206973206e756c6c00000000000000000000000000600082015250565b6000610bce6013836107b0565b9150610bd982610b98565b602082019050919050565b60006020820190508181036000830152610bfd81610bc1565b9050919050565b7f72656369657665722061646472657373206973206e756c6c0000000000000000600082015250565b6000610c3a6018836107b0565b9150610c4582610c04565b602082019050919050565b60006020820190508181036000830152610c6981610c2d565b9050919050565b7f6f776e6572206f6620746f6b656e206e6f7420636f7272656374000000000000600082015250565b6000610ca6601a836107b0565b9150610cb182610c70565b602082019050919050565b60006020820190508181036000830152610cd581610c99565b9050919050565b7f4e487b7100000000000000000000000000000000000000000000000000000000600052601160045260246000fd5b6000610d16826108ba565b91507fffffffffffffffffffffffffffffffffffffffffffffffffffffffffffffffff8203610d4857610d47610cdc565b5b600182019050919050565b6000610d5e826108ba565b915060008203610d7157610d70610cdc565b5b60018203905091905056fea26469706673582212204f4051af4bdcf4b508b34cfcc4d5fdb09a348be1b5ad48d857cc9660f28624db64736f6c63430008130033",
  "immutableReferences": {},
  "source": "// SPDX-License-Identifier: MIT\r\npragma solidity ^0.8.0;\r\n\r\nimport \"./ERC721Metadata.sol\";\r\nimport \"./ERC721Ennumerator.sol\";\r\n\r\ncontract ERC721Connector is ERC721Metadata, ERC721Ennumerator {\r\n    // constructor that takes in the same two string parameters as the \r\n    // ERC721Metadata constructor and passes them to the ERC721Metadata \r\n    // constructor using the ERC721Metadata(_name, _symbol) syntax.\r\n    constructor(string memory _name, string memory _symbol) ERC721Metadata(_name, _symbol){\r\n\r\n    }\r\n}\r\n",
  "sourcePath": "G:\\nft-market-place\\src\\contracts\\ERC721Connector.sol",
  "compiler": {
    "name": "solc",
    "version": "0.8.19+commit.7dd6d404.Emscripten.clang"
  },
  "schemaVersion": "3.4.13",
  "updatedAt": "2023-04-10T20:18:42.047Z",
  "devdoc": {
    "kind": "dev",
    "methods": {},
    "version": 1
  },
  "userdoc": {
    "kind": "user",
    "methods": {},
    "version": 1
  }
}