{
  "contractName": "ERC721Connector",
  "abi": [
    {
      "inputs": [
        {
          "internalType": "string",
          "name": "_name",
          "type": "string"
        },
        {
          "internalType": "string",
          "name": "_symbol",
          "type": "string"
        }
      ],
      "stateMutability": "nonpayable",
      "type": "constructor"
    },
    {
      "anonymous": false,
      "inputs": [
        {
          "indexed": true,
          "internalType": "address",
          "name": "_owner",
          "type": "address"
        },
        {
          "indexed": true,
          "internalType": "address",
          "name": "_approved",
          "type": "address"
        },
        {
          "indexed": true,
          "internalType": "uint256",
          "name": "_tokenId",
          "type": "uint256"
        }
      ],
      "name": "Approval",
      "type": "event"
    },
    {
      "anonymous": false,
      "inputs": [
        {
          "indexed": true,
          "internalType": "address",
          "name": "_from",
          "type": "address"
        },
        {
          "indexed": true,
          "internalType": "address",
          "name": "_to",
          "type": "address"
        },
        {
          "indexed": true,
          "internalType": "uint256",
          "name": "_tokenId",
          "type": "uint256"
        }
      ],
      "name": "Transfer",
      "type": "event"
    },
    {
      "inputs": [],
      "name": "NameGetter",
      "outputs": [
        {
          "internalType": "string",
          "name": "",
          "type": "string"
        }
      ],
      "stateMutability": "view",
      "type": "function"
    },
    {
      "inputs": [],
      "name": "SymbolGetter",
      "outputs": [
        {
          "internalType": "string",
          "name": "",
          "type": "string"
        }
      ],
      "stateMutability": "view",
      "type": "function"
    },
    {
      "inputs": [
        {
          "internalType": "bytes4",
          "name": "interfaceId",
          "type": "bytes4"
        }
      ],
      "name": "_registerInterface",
      "outputs": [],
      "stateMutability": "nonpayable",
      "type": "function"
    },
    {
      "inputs": [
        {
          "internalType": "address",
          "name": "_to",
          "type": "address"
        },
        {
          "internalType": "uint256",
          "name": "tokenId",
          "type": "uint256"
        }
      ],
      "name": "approve",
      "outputs": [],
      "stateMutability": "nonpayable",
      "type": "function"
    },
    {
      "inputs": [
        {
          "internalType": "address",
          "name": "_owner",
          "type": "address"
        }
      ],
      "name": "balanceOf",
      "outputs": [
        {
          "internalType": "uint256",
          "name": "",
          "type": "uint256"
        }
      ],
      "stateMutability": "view",
      "type": "function"
    },
    {
      "inputs": [
        {
          "internalType": "bytes",
          "name": "objectSign",
          "type": "bytes"
        }
      ],
      "name": "calcFingerPrint",
      "outputs": [
        {
          "internalType": "bytes4",
          "name": "",
          "type": "bytes4"
        }
      ],
      "stateMutability": "pure",
      "type": "function"
    },
    {
      "inputs": [
        {
          "internalType": "uint256",
          "name": "_tokenId",
          "type": "uint256"
        }
      ],
      "name": "ownerOf",
      "outputs": [
        {
          "internalType": "address",
          "name": "",
          "type": "address"
        }
      ],
      "stateMutability": "view",
      "type": "function"
    },
    {
      "inputs": [
        {
          "internalType": "bytes4",
          "name": "interfaceId",
          "type": "bytes4"
        }
      ],
      "name": "supportsInterface",
      "outputs": [
        {
          "internalType": "bool",
          "name": "",
          "type": "bool"
        }
      ],
      "stateMutability": "view",
      "type": "function"
    },
    {
      "inputs": [
        {
          "internalType": "uint256",
          "name": "index",
          "type": "uint256"
        }
      ],
      "name": "tokenByIndex",
      "outputs": [
        {
          "internalType": "uint256",
          "name": "",
          "type": "uint256"
        }
      ],
      "stateMutability": "view",
      "type": "function"
    },
    {
      "inputs": [
        {
          "internalType": "address",
          "name": "owner",
          "type": "address"
        },
        {
          "internalType": "uint256",
          "name": "index",
          "type": "uint256"
        }
      ],
      "name": "tokenOfOwnerByIndex",
      "outputs": [
        {
          "internalType": "uint256",
          "name": "",
          "type": "uint256"
        }
      ],
      "stateMutability": "view",
      "type": "function"
    },
    {
      "inputs": [],
      "name": "totalSupply",
      "outputs": [
        {
          "internalType": "uint256",
          "name": "",
          "type": "uint256"
        }
      ],
      "stateMutability": "view",
      "type": "function"
    },
    {
      "inputs": [
        {
          "internalType": "address",
          "name": "_from",
          "type": "address"
        },
        {
          "internalType": "address",
          "name": "_to",
          "type": "address"
        },
        {
          "internalType": "uint256",
          "name": "tokenID",
          "type": "uint256"
        }
      ],
      "name": "transferFrom",
      "outputs": [],
      "stateMutability": "nonpayable",
      "type": "function"
    }
  ],
  "bytecode": "0x60806040523480156200001157600080fd5b50604051620020ea380380620020ea8339818101604052810190620000379190620005e4565b81816200008f620000836040518060400160405280601981526020017f737570706f727473496e746572666163652862797465733429000000000000008152506200036960201b60201c565b6200037a60201b60201c565b8160019081620000a09190620008b4565b508060029081620000b29190620008b4565b5062000150620000fd6040518060400160405280601481526020017f53796d626f6c47657474657228627974657334290000000000000000000000008152506200036960201b60201c565b620001436040518060400160405280601281526020017f4e616d65476574746572286279746573342900000000000000000000000000008152506200036960201b60201c565b186200037a60201b60201c565b50506200027d6200019c6040518060400160405280600f81526020017f617070726f7665286279746573342900000000000000000000000000000000008152506200036960201b60201c565b620001e26040518060400160405280601481526020017f7472616e7366657246726f6d28627974657334290000000000000000000000008152506200036960201b60201c565b620002286040518060400160405280600f81526020017f6f776e65724f66286279746573342900000000000000000000000000000000008152506200036960201b60201c565b6200026e6040518060400160405280601181526020017f62616c616e63654f6628627974657334290000000000000000000000000000008152506200036960201b60201c565b1818186200037a60201b60201c565b62000361620002c76040518060400160405280601b81526020017f746f6b656e4f664f776e65724279496e646578286279746573342900000000008152506200036960201b60201c565b6200030d6040518060400160405280601481526020017f746f6b656e4279496e64657828627974657334290000000000000000000000008152506200036960201b60201c565b620003536040518060400160405280601381526020017f746f74616c537570706c792862797465733429000000000000000000000000008152506200036960201b60201c565b18186200037a60201b60201c565b505062000a1e565b600081805190602001209050919050565b63ffffffff60e01b817bffffffffffffffffffffffffffffffffffffffffffffffffffffffff191603620003e5576040517f08c379a0000000000000000000000000000000000000000000000000000000008152600401620003dc90620009fc565b60405180910390fd5b6001600080837bffffffffffffffffffffffffffffffffffffffffffffffffffffffff19167bffffffffffffffffffffffffffffffffffffffffffffffffffffffff1916815260200190815260200160002060006101000a81548160ff02191690831515021790555050565b6000604051905090565b600080fd5b600080fd5b600080fd5b600080fd5b6000601f19601f8301169050919050565b7f4e487b7100000000000000000000000000000000000000000000000000000000600052604160045260246000fd5b620004ba826200046f565b810181811067ffffffffffffffff82111715620004dc57620004db62000480565b5b80604052505050565b6000620004f162000451565b9050620004ff8282620004af565b919050565b600067ffffffffffffffff82111562000522576200052162000480565b5b6200052d826200046f565b9050602081019050919050565b60005b838110156200055a5780820151818401526020810190506200053d565b60008484015250505050565b60006200057d620005778462000504565b620004e5565b9050828152602081018484840111156200059c576200059b6200046a565b5b620005a98482856200053a565b509392505050565b600082601f830112620005c957620005c862000465565b5b8151620005db84826020860162000566565b91505092915050565b60008060408385031215620005fe57620005fd6200045b565b5b600083015167ffffffffffffffff8111156200061f576200061e62000460565b5b6200062d85828601620005b1565b925050602083015167ffffffffffffffff81111562000651576200065062000460565b5b6200065f85828601620005b1565b9150509250929050565b600081519050919050565b7f4e487b7100000000000000000000000000000000000000000000000000000000600052602260045260246000fd5b60006002820490506001821680620006bc57607f821691505b602082108103620006d257620006d162000674565b5b50919050565b60008190508160005260206000209050919050565b60006020601f8301049050919050565b600082821b905092915050565b6000600883026200073c7fffffffffffffffffffffffffffffffffffffffffffffffffffffffffffffffff82620006fd565b620007488683620006fd565b95508019841693508086168417925050509392505050565b6000819050919050565b6000819050919050565b6000620007956200078f620007898462000760565b6200076a565b62000760565b9050919050565b6000819050919050565b620007b18362000774565b620007c9620007c0826200079c565b8484546200070a565b825550505050565b600090565b620007e0620007d1565b620007ed818484620007a6565b505050565b5b81811015620008155762000809600082620007d6565b600181019050620007f3565b5050565b601f82111562000864576200082e81620006d8565b6200083984620006ed565b8101602085101562000849578190505b620008616200085885620006ed565b830182620007f2565b50505b505050565b600082821c905092915050565b6000620008896000198460080262000869565b1980831691505092915050565b6000620008a4838362000876565b9150826002028217905092915050565b620008bf8262000669565b67ffffffffffffffff811115620008db57620008da62000480565b5b620008e78254620006a3565b620008f482828562000819565b600060209050601f8311600181146200092c576000841562000917578287015190505b62000923858262000896565b86555062000993565b601f1984166200093c86620006d8565b60005b8281101562000966578489015182556001820191506020850194506020810190506200093f565b8683101562000986578489015162000982601f89168262000876565b8355505b6001600288020188555050505b505050505050565b600082825260208201905092915050565b7f4552433136353a20494e56414c494420494e5445524641434500000000000000600082015250565b6000620009e46019836200099b565b9150620009f182620009ac565b602082019050919050565b6000602082019050818103600083015262000a1781620009d5565b9050919050565b6116bc8062000a2e6000396000f3fe608060405234801561001057600080fd5b50600436106100b45760003560e01c80632f745c59116100715780632f745c59146101795780634f6ccce7146101a95780635f756f70146101d95780636352211e146101f757806370a0823114610227578063ec9c48d514610257576100b4565b806301ffc9a7146100b9578063068417d9146100e9578063095ea7b31461010557806317c2272e1461012157806318160ddd1461013f57806323b872dd1461015d575b600080fd5b6100d360048036038101906100ce9190610cf9565b610287565b6040516100e09190610d41565b60405180910390f35b61010360048036038101906100fe9190610cf9565b6102ee565b005b61011f600480360381019061011a9190610df0565b6103c2565b005b61012961055d565b6040516101369190610ec0565b60405180910390f35b6101476105ef565b6040516101549190610ef1565b60405180910390f35b61017760048036038101906101729190610f0c565b6105fc565b005b610193600480360381019061018e9190610df0565b61061f565b6040516101a09190610ef1565b60405180910390f35b6101c360048036038101906101be9190610f5f565b6106cf565b6040516101d09190610ef1565b60405180910390f35b6101e1610740565b6040516101ee9190610ec0565b60405180910390f35b610211600480360381019061020c9190610f5f565b6107d2565b60405161021e9190610f9b565b60405180910390f35b610241600480360381019061023c9190610fb6565b610883565b60405161024e9190610ef1565b60405180910390f35b610271600480360381019061026c9190611118565b61093a565b60405161027e9190611170565b60405180910390f35b6000806000837bffffffffffffffffffffffffffffffffffffffffffffffffffffffff19167bffffffffffffffffffffffffffffffffffffffffffffffffffffffff1916815260200190815260200160002060009054906101000a900460ff169050919050565b63ffffffff60e01b817bffffffffffffffffffffffffffffffffffffffffffffffffffffffff191603610356576040517f08c379a000000000000000000000000000000000000000000000000000000000815260040161034d906111d7565b60405180910390fd5b6001600080837bffffffffffffffffffffffffffffffffffffffffffffffffffffffff19167bffffffffffffffffffffffffffffffffffffffffffffffffffffffff1916815260200190815260200160002060006101000a81548160ff02191690831515021790555050565b60006103cd826107d2565b90508073ffffffffffffffffffffffffffffffffffffffff168373ffffffffffffffffffffffffffffffffffffffff160361043d576040517f08c379a000000000000000000000000000000000000000000000000000000000815260040161043490611243565b60405180910390fd5b8073ffffffffffffffffffffffffffffffffffffffff163373ffffffffffffffffffffffffffffffffffffffff16146104ab576040517f08c379a00000000000000000000000000000000000000000000000000000000081526004016104a2906112af565b60405180910390fd5b826005600084815260200190815260200160002060006101000a81548173ffffffffffffffffffffffffffffffffffffffff021916908373ffffffffffffffffffffffffffffffffffffffff160217905550818373ffffffffffffffffffffffffffffffffffffffff168273ffffffffffffffffffffffffffffffffffffffff167f8c5be1e5ebec7d5bd14f71427d1e84f3dd0314c0f7b2291e5b200ac8c7c3b92560405160405180910390a4505050565b60606001805461056c906112fe565b80601f0160208091040260200160405190810160405280929190818152602001828054610598906112fe565b80156105e55780601f106105ba576101008083540402835291602001916105e5565b820191906000526020600020905b8154815290600101906020018083116105c857829003601f168201915b5050505050905090565b6000600680549050905090565b610606338261094b565b61060f57600080fd5b61061a8383836109da565b505050565b600061062a83610883565b821061066b576040517f08c379a00000000000000000000000000000000000000000000000000000000081526004016106629061137b565b60405180910390fd5b600860008473ffffffffffffffffffffffffffffffffffffffff1673ffffffffffffffffffffffffffffffffffffffff16815260200190815260200160002082815481106106bc576106bb61139b565b5b9060005260206000200154905092915050565b60006106d96105ef565b821061071a576040517f08c379a000000000000000000000000000000000000000000000000000000000815260040161071190611416565b60405180910390fd5b6006828154811061072e5761072d61139b565b5b90600052602060002001549050919050565b60606002805461074f906112fe565b80601f016020809104026020016040519081016040528092919081815260200182805461077b906112fe565b80156107c85780601f1061079d576101008083540402835291602001916107c8565b820191906000526020600020905b8154815290600101906020018083116107ab57829003601f168201915b5050505050905090565b6000806003600084815260200190815260200160002060009054906101000a900473ffffffffffffffffffffffffffffffffffffffff169050600073ffffffffffffffffffffffffffffffffffffffff168173ffffffffffffffffffffffffffffffffffffffff160361087a576040517f08c379a000000000000000000000000000000000000000000000000000000000815260040161087190611482565b60405180910390fd5b80915050919050565b60008073ffffffffffffffffffffffffffffffffffffffff168273ffffffffffffffffffffffffffffffffffffffff16036108f3576040517f08c379a00000000000000000000000000000000000000000000000000000000081526004016108ea90611482565b60405180910390fd5b600460008373ffffffffffffffffffffffffffffffffffffffff1673ffffffffffffffffffffffffffffffffffffffff168152602001908152602001600020549050919050565b600081805190602001209050919050565b600061095682610c1b565b610995576040517f08c379a000000000000000000000000000000000000000000000000000000000815260040161098c906114ee565b60405180910390fd5b60006109a0836107d2565b90508073ffffffffffffffffffffffffffffffffffffffff168473ffffffffffffffffffffffffffffffffffffffff161491505092915050565b600073ffffffffffffffffffffffffffffffffffffffff168273ffffffffffffffffffffffffffffffffffffffff1603610a49576040517f08c379a0000000000000000000000000000000000000000000000000000000008152600401610a409061155a565b60405180910390fd5b8273ffffffffffffffffffffffffffffffffffffffff16610a69826107d2565b73ffffffffffffffffffffffffffffffffffffffff1614610abf576040517f08c379a0000000000000000000000000000000000000000000000000000000008152600401610ab6906115c6565b60405180910390fd5b816003600083815260200190815260200160002060006101000a81548173ffffffffffffffffffffffffffffffffffffffff021916908373ffffffffffffffffffffffffffffffffffffffff160217905550600460008373ffffffffffffffffffffffffffffffffffffffff1673ffffffffffffffffffffffffffffffffffffffff1681526020019081526020016000206000815480929190610b6190611615565b9190505550600460008473ffffffffffffffffffffffffffffffffffffffff1673ffffffffffffffffffffffffffffffffffffffff1681526020019081526020016000206000815480929190610bb69061165d565b9190505550808273ffffffffffffffffffffffffffffffffffffffff168473ffffffffffffffffffffffffffffffffffffffff167fddf252ad1be2c89b69c2b068fc378daa952ba7f163c4a11628f55a4df523b3ef60405160405180910390a4505050565b6000806003600084815260200190815260200160002060009054906101000a900473ffffffffffffffffffffffffffffffffffffffff169050600073ffffffffffffffffffffffffffffffffffffffff168173ffffffffffffffffffffffffffffffffffffffff161415915050919050565b6000604051905090565b600080fd5b600080fd5b60007fffffffff0000000000000000000000000000000000000000000000000000000082169050919050565b610cd681610ca1565b8114610ce157600080fd5b50565b600081359050610cf381610ccd565b92915050565b600060208284031215610d0f57610d0e610c97565b5b6000610d1d84828501610ce4565b91505092915050565b60008115159050919050565b610d3b81610d26565b82525050565b6000602082019050610d566000830184610d32565b92915050565b600073ffffffffffffffffffffffffffffffffffffffff82169050919050565b6000610d8782610d5c565b9050919050565b610d9781610d7c565b8114610da257600080fd5b50565b600081359050610db481610d8e565b92915050565b6000819050919050565b610dcd81610dba565b8114610dd857600080fd5b50565b600081359050610dea81610dc4565b92915050565b60008060408385031215610e0757610e06610c97565b5b6000610e1585828601610da5565b9250506020610e2685828601610ddb565b9150509250929050565b600081519050919050565b600082825260208201905092915050565b60005b83811015610e6a578082015181840152602081019050610e4f565b60008484015250505050565b6000601f19601f8301169050919050565b6000610e9282610e30565b610e9c8185610e3b565b9350610eac818560208601610e4c565b610eb581610e76565b840191505092915050565b60006020820190508181036000830152610eda8184610e87565b905092915050565b610eeb81610dba565b82525050565b6000602082019050610f066000830184610ee2565b92915050565b600080600060608486031215610f2557610f24610c97565b5b6000610f3386828701610da5565b9350506020610f4486828701610da5565b9250506040610f5586828701610ddb565b9150509250925092565b600060208284031215610f7557610f74610c97565b5b6000610f8384828501610ddb565b91505092915050565b610f9581610d7c565b82525050565b6000602082019050610fb06000830184610f8c565b92915050565b600060208284031215610fcc57610fcb610c97565b5b6000610fda84828501610da5565b91505092915050565b600080fd5b600080fd5b7f4e487b7100000000000000000000000000000000000000000000000000000000600052604160045260246000fd5b61102582610e76565b810181811067ffffffffffffffff8211171561104457611043610fed565b5b80604052505050565b6000611057610c8d565b9050611063828261101c565b919050565b600067ffffffffffffffff82111561108357611082610fed565b5b61108c82610e76565b9050602081019050919050565b82818337600083830152505050565b60006110bb6110b684611068565b61104d565b9050828152602081018484840111156110d7576110d6610fe8565b5b6110e2848285611099565b509392505050565b600082601f8301126110ff576110fe610fe3565b5b813561110f8482602086016110a8565b91505092915050565b60006020828403121561112e5761112d610c97565b5b600082013567ffffffffffffffff81111561114c5761114b610c9c565b5b611158848285016110ea565b91505092915050565b61116a81610ca1565b82525050565b60006020820190506111856000830184611161565b92915050565b7f4552433136353a20494e56414c494420494e5445524641434500000000000000600082015250565b60006111c1601983610e3b565b91506111cc8261118b565b602082019050919050565b600060208201905081810360008301526111f0816111b4565b9050919050565b7f4572726f7220617070726f76616c20746f2063757272656e74206f776e657200600082015250565b600061122d601f83610e3b565b9150611238826111f7565b602082019050919050565b6000602082019050818103600083015261125c81611220565b9050919050565b7f4375727272656e742063616c6c6572206973206e6f7420746865206f776e6572600082015250565b6000611299602083610e3b565b91506112a482611263565b602082019050919050565b600060208201905081810360008301526112c88161128c565b9050919050565b7f4e487b7100000000000000000000000000000000000000000000000000000000600052602260045260246000fd5b6000600282049050600182168061131657607f821691505b602082108103611329576113286112cf565b5b50919050565b7f4f776e657220496e646578206f7574206f6620626f6e64732000000000000000600082015250565b6000611365601983610e3b565b91506113708261132f565b602082019050919050565b6000602082019050818103600083015261139481611358565b9050919050565b7f4e487b7100000000000000000000000000000000000000000000000000000000600052603260045260246000fd5b7f4e6f7420656e6f75676820746f6b656e73000000000000000000000000000000600082015250565b6000611400601183610e3b565b915061140b826113ca565b602082019050919050565b6000602082019050818103600083015261142f816113f3565b9050919050565b7f4f776e65722076616c7565206973206e756c6c00000000000000000000000000600082015250565b600061146c601383610e3b565b915061147782611436565b602082019050919050565b6000602082019050818103600083015261149b8161145f565b9050919050565b7f746f6b656e20646f65736e742065787369737473000000000000000000000000600082015250565b60006114d8601483610e3b565b91506114e3826114a2565b602082019050919050565b60006020820190508181036000830152611507816114cb565b9050919050565b7f72656369657665722061646472657373206973206e756c6c0000000000000000600082015250565b6000611544601883610e3b565b915061154f8261150e565b602082019050919050565b6000602082019050818103600083015261157381611537565b9050919050565b7f6f776e6572206f6620746f6b656e206e6f7420636f7272656374000000000000600082015250565b60006115b0601a83610e3b565b91506115bb8261157a565b602082019050919050565b600060208201905081810360008301526115df816115a3565b9050919050565b7f4e487b7100000000000000000000000000000000000000000000000000000000600052601160045260246000fd5b600061162082610dba565b91507fffffffffffffffffffffffffffffffffffffffffffffffffffffffffffffffff8203611652576116516115e6565b5b600182019050919050565b600061166882610dba565b91506000820361167b5761167a6115e6565b5b60018203905091905056fea26469706673582212202bd0d5235c19020ca449d0e0ef5fc12ba1fe699b6bdc2f13730b1a832e2472bd64736f6c63430008130033",
  "immutableReferences": {},
  "source": "// SPDX-License-Identifier: MIT\r\npragma solidity ^0.8.0;\r\n\r\nimport \"./ERC721Metadata.sol\";\r\nimport \"./ERC721Ennumerator.sol\";\r\n\r\ncontract ERC721Connector is ERC721Metadata, ERC721Ennumerator {\r\n    // constructor that takes in the same two string parameters as the \r\n    // ERC721Metadata constructor and passes them to the ERC721Metadata \r\n    // constructor using the ERC721Metadata(_name, _symbol) syntax.\r\n    constructor(string memory _name, string memory _symbol) ERC721Metadata(_name, _symbol){\r\n\r\n    }\r\n}\r\n",
  "sourcePath": "G:\\nft-market-place\\src\\contracts\\ERC721Connector.sol",
  "compiler": {
    "name": "solc",
    "version": "0.8.19+commit.7dd6d404.Emscripten.clang"
  },
  "schemaVersion": "3.4.13",
  "updatedAt": "2023-04-28T07:32:41.899Z",
  "devdoc": {
    "kind": "dev",
    "methods": {},
    "version": 1
  },
  "userdoc": {
    "kind": "user",
    "methods": {
      "NameGetter()": {
        "notice": "A descriptive name for a collection of NFTs in this contract"
      },
      "SymbolGetter()": {
        "notice": "An abbreviated name for NFTs in this contract"
      }
    },
    "version": 1
  }
}