{
  "contractName": "ERC721Metadata",
  "abi": [
    {
      "inputs": [
        {
          "internalType": "string",
          "name": "_name",
          "type": "string"
        },
        {
          "internalType": "string",
          "name": "_symbol",
          "type": "string"
        }
      ],
      "stateMutability": "nonpayable",
      "type": "constructor"
    },
    {
      "inputs": [
        {
          "internalType": "bytes4",
          "name": "interfaceId",
          "type": "bytes4"
        }
      ],
      "name": "_registerInterface",
      "outputs": [],
      "stateMutability": "nonpayable",
      "type": "function"
    },
    {
      "inputs": [
        {
          "internalType": "bytes",
          "name": "objectSign",
          "type": "bytes"
        }
      ],
      "name": "calcFingerPrint",
      "outputs": [
        {
          "internalType": "bytes4",
          "name": "",
          "type": "bytes4"
        }
      ],
      "stateMutability": "pure",
      "type": "function"
    },
    {
      "inputs": [
        {
          "internalType": "bytes4",
          "name": "interfaceId",
          "type": "bytes4"
        }
      ],
      "name": "supportsInterface",
      "outputs": [
        {
          "internalType": "bool",
          "name": "",
          "type": "bool"
        }
      ],
      "stateMutability": "view",
      "type": "function"
    },
    {
      "inputs": [],
      "name": "NameGetter",
      "outputs": [
        {
          "internalType": "string",
          "name": "",
          "type": "string"
        }
      ],
      "stateMutability": "view",
      "type": "function"
    },
    {
      "inputs": [],
      "name": "SymbolGetter",
      "outputs": [
        {
          "internalType": "string",
          "name": "",
          "type": "string"
        }
      ],
      "stateMutability": "view",
      "type": "function"
    }
  ],
  "bytecode": "0x608060405234801562000010575f80fd5b5060405162000f6138038062000f618339818101604052810190620000369190620003be565b6200008c620000806040518060400160405280601981526020017f737570706f727473496e746572666163652862797465733429000000000000008152506200015560201b60201c565b6200016560201b60201c565b81600190816200009d919062000678565b508060029081620000af919062000678565b506200014d620000fa6040518060400160405280601481526020017f53796d626f6c47657474657228627974657334290000000000000000000000008152506200015560201b60201c565b620001406040518060400160405280601281526020017f4e616d65476574746572286279746573342900000000000000000000000000008152506200015560201b60201c565b186200016560201b60201c565b5050620007da565b5f81805190602001209050919050565b63ffffffff60e01b817bffffffffffffffffffffffffffffffffffffffffffffffffffffffff191603620001d0576040517f08c379a0000000000000000000000000000000000000000000000000000000008152600401620001c790620007ba565b60405180910390fd5b60015f80837bffffffffffffffffffffffffffffffffffffffffffffffffffffffff19167bffffffffffffffffffffffffffffffffffffffffffffffffffffffff191681526020019081526020015f205f6101000a81548160ff02191690831515021790555050565b5f604051905090565b5f80fd5b5f80fd5b5f80fd5b5f80fd5b5f601f19601f8301169050919050565b7f4e487b71000000000000000000000000000000000000000000000000000000005f52604160045260245ffd5b6200029a8262000252565b810181811067ffffffffffffffff82111715620002bc57620002bb62000262565b5b80604052505050565b5f620002d062000239565b9050620002de82826200028f565b919050565b5f67ffffffffffffffff8211156200030057620002ff62000262565b5b6200030b8262000252565b9050602081019050919050565b5f5b83811015620003375780820151818401526020810190506200031a565b5f8484015250505050565b5f620003586200035284620002e3565b620002c5565b9050828152602081018484840111156200037757620003766200024e565b5b6200038484828562000318565b509392505050565b5f82601f830112620003a357620003a26200024a565b5b8151620003b584826020860162000342565b91505092915050565b5f8060408385031215620003d757620003d662000242565b5b5f83015167ffffffffffffffff811115620003f757620003f662000246565b5b62000405858286016200038c565b925050602083015167ffffffffffffffff81111562000429576200042862000246565b5b62000437858286016200038c565b9150509250929050565b5f81519050919050565b7f4e487b71000000000000000000000000000000000000000000000000000000005f52602260045260245ffd5b5f60028204905060018216806200049057607f821691505b602082108103620004a657620004a56200044b565b5b50919050565b5f819050815f5260205f209050919050565b5f6020601f8301049050919050565b5f82821b905092915050565b5f600883026200050a7fffffffffffffffffffffffffffffffffffffffffffffffffffffffffffffffff82620004cd565b620005168683620004cd565b95508019841693508086168417925050509392505050565b5f819050919050565b5f819050919050565b5f620005606200055a62000554846200052e565b62000537565b6200052e565b9050919050565b5f819050919050565b6200057b8362000540565b620005936200058a8262000567565b848454620004d9565b825550505050565b5f90565b620005a96200059b565b620005b681848462000570565b505050565b5b81811015620005dd57620005d15f826200059f565b600181019050620005bc565b5050565b601f8211156200062c57620005f681620004ac565b6200060184620004be565b8101602085101562000611578190505b620006296200062085620004be565b830182620005bb565b50505b505050565b5f82821c905092915050565b5f6200064e5f198460080262000631565b1980831691505092915050565b5f6200066883836200063d565b9150826002028217905092915050565b620006838262000441565b67ffffffffffffffff8111156200069f576200069e62000262565b5b620006ab825462000478565b620006b8828285620005e1565b5f60209050601f831160018114620006ee575f8415620006d9578287015190505b620006e585826200065b565b86555062000754565b601f198416620006fe86620004ac565b5f5b82811015620007275784890151825560018201915060208501945060208101905062000700565b8683101562000747578489015162000743601f8916826200063d565b8355505b6001600288020188555050505b505050505050565b5f82825260208201905092915050565b7f4552433136353a20494e56414c494420494e54455246414345000000000000005f82015250565b5f620007a26019836200075c565b9150620007af826200076c565b602082019050919050565b5f6020820190508181035f830152620007d38162000794565b9050919050565b61077980620007e85f395ff3fe608060405234801561000f575f80fd5b5060043610610055575f3560e01c806301ffc9a714610059578063068417d91461008957806317c2272e146100a55780635f756f70146100c3578063ec9c48d5146100e1575b5f80fd5b610073600480360381019061006e91906103db565b610111565b6040516100809190610420565b60405180910390f35b6100a3600480360381019061009e91906103db565b610174565b005b6100ad610245565b6040516100ba91906104c3565b60405180910390f35b6100cb6102d5565b6040516100d891906104c3565b60405180910390f35b6100fb60048036038101906100f6919061060f565b610365565b6040516101089190610665565b60405180910390f35b5f805f837bffffffffffffffffffffffffffffffffffffffffffffffffffffffff19167bffffffffffffffffffffffffffffffffffffffffffffffffffffffff191681526020019081526020015f205f9054906101000a900460ff169050919050565b63ffffffff60e01b817bffffffffffffffffffffffffffffffffffffffffffffffffffffffff1916036101dc576040517f08c379a00000000000000000000000000000000000000000000000000000000081526004016101d3906106c8565b60405180910390fd5b60015f80837bffffffffffffffffffffffffffffffffffffffffffffffffffffffff19167bffffffffffffffffffffffffffffffffffffffffffffffffffffffff191681526020019081526020015f205f6101000a81548160ff02191690831515021790555050565b60606001805461025490610713565b80601f016020809104026020016040519081016040528092919081815260200182805461028090610713565b80156102cb5780601f106102a2576101008083540402835291602001916102cb565b820191905f5260205f20905b8154815290600101906020018083116102ae57829003601f168201915b5050505050905090565b6060600280546102e490610713565b80601f016020809104026020016040519081016040528092919081815260200182805461031090610713565b801561035b5780601f106103325761010080835404028352916020019161035b565b820191905f5260205f20905b81548152906001019060200180831161033e57829003601f168201915b5050505050905090565b5f81805190602001209050919050565b5f604051905090565b5f80fd5b5f80fd5b5f7fffffffff0000000000000000000000000000000000000000000000000000000082169050919050565b6103ba81610386565b81146103c4575f80fd5b50565b5f813590506103d5816103b1565b92915050565b5f602082840312156103f0576103ef61037e565b5b5f6103fd848285016103c7565b91505092915050565b5f8115159050919050565b61041a81610406565b82525050565b5f6020820190506104335f830184610411565b92915050565b5f81519050919050565b5f82825260208201905092915050565b5f5b83811015610470578082015181840152602081019050610455565b5f8484015250505050565b5f601f19601f8301169050919050565b5f61049582610439565b61049f8185610443565b93506104af818560208601610453565b6104b88161047b565b840191505092915050565b5f6020820190508181035f8301526104db818461048b565b905092915050565b5f80fd5b5f80fd5b7f4e487b71000000000000000000000000000000000000000000000000000000005f52604160045260245ffd5b6105218261047b565b810181811067ffffffffffffffff821117156105405761053f6104eb565b5b80604052505050565b5f610552610375565b905061055e8282610518565b919050565b5f67ffffffffffffffff82111561057d5761057c6104eb565b5b6105868261047b565b9050602081019050919050565b828183375f83830152505050565b5f6105b36105ae84610563565b610549565b9050828152602081018484840111156105cf576105ce6104e7565b5b6105da848285610593565b509392505050565b5f82601f8301126105f6576105f56104e3565b5b81356106068482602086016105a1565b91505092915050565b5f602082840312156106245761062361037e565b5b5f82013567ffffffffffffffff81111561064157610640610382565b5b61064d848285016105e2565b91505092915050565b61065f81610386565b82525050565b5f6020820190506106785f830184610656565b92915050565b7f4552433136353a20494e56414c494420494e54455246414345000000000000005f82015250565b5f6106b2601983610443565b91506106bd8261067e565b602082019050919050565b5f6020820190508181035f8301526106df816106a6565b9050919050565b7f4e487b71000000000000000000000000000000000000000000000000000000005f52602260045260245ffd5b5f600282049050600182168061072a57607f821691505b60208210810361073d5761073c6106e6565b5b5091905056fea26469706673582212200f3816e956e6beb6be334f33f624c0a411fae0bb3938ca6b721f4f8ff305f4b964736f6c63430008140033",
  "immutableReferences": {},
  "source": "// SPDX-License-Identifier: MIT\r\npragma solidity ^0.8.0;\r\nimport \"./Interfaces/IERC721Metadata.sol\";\r\nimport \"./ERC165.sol\";\r\n\r\ncontract ERC721Metadata is IERC721Metadata, ERC165 {\r\n    string private name;\r\n    string private symbol;\r\n\r\n    constructor(string memory _name, string memory _symbol) {\r\n        name = _name;\r\n        symbol = _symbol;\r\n        _registerInterface(\r\n            calcFingerPrint(\"NameGetter(bytes4)\") ^ calcFingerPrint(\"SymbolGetter(bytes4)\")\r\n        );\r\n    }\r\n\r\n    function NameGetter() external view returns (string memory) {\r\n        return name;\r\n    }\r\n\r\n    function SymbolGetter() external view returns (string memory) {\r\n        return symbol;\r\n    }\r\n}\r\n",
  "sourcePath": "G:\\nft-market-place\\src\\contracts\\ERC721Metadata.sol",
  "compiler": {
    "name": "solc",
    "version": "0.8.20+commit.a1b79de6.Emscripten.clang"
  },
  "schemaVersion": "3.4.13",
  "updatedAt": "2023-05-22T08:10:58.510Z",
  "devdoc": {
    "kind": "dev",
    "methods": {},
    "version": 1
  },
  "userdoc": {
    "kind": "user",
    "methods": {
      "NameGetter()": {
        "notice": "A descriptive name for a collection of NFTs in this contract"
      },
      "SymbolGetter()": {
        "notice": "An abbreviated name for NFTs in this contract"
      }
    },
    "version": 1
  }
}