{
  "contractName": "ERC721Ennumerator",
  "abi": [
    {
      "anonymous": false,
      "inputs": [
        {
          "indexed": true,
          "internalType": "address",
          "name": "owner",
          "type": "address"
        },
        {
          "indexed": true,
          "internalType": "address",
          "name": "approved",
          "type": "address"
        },
        {
          "indexed": true,
          "internalType": "uint256",
          "name": "tokenId",
          "type": "uint256"
        }
      ],
      "name": "Approval",
      "type": "event"
    },
    {
      "anonymous": false,
      "inputs": [
        {
          "indexed": true,
          "internalType": "address",
          "name": "from",
          "type": "address"
        },
        {
          "indexed": true,
          "internalType": "address",
          "name": "to",
          "type": "address"
        },
        {
          "indexed": true,
          "internalType": "uint256",
          "name": "tokenId",
          "type": "uint256"
        }
      ],
      "name": "Transfer",
      "type": "event"
    },
    {
      "inputs": [
        {
          "internalType": "address",
          "name": "_to",
          "type": "address"
        },
        {
          "internalType": "uint256",
          "name": "tokenId",
          "type": "uint256"
        }
      ],
      "name": "approve",
      "outputs": [],
      "stateMutability": "nonpayable",
      "type": "function"
    },
    {
      "inputs": [
        {
          "internalType": "address",
          "name": "_owner",
          "type": "address"
        }
      ],
      "name": "balanceOf",
      "outputs": [
        {
          "internalType": "uint256",
          "name": "",
          "type": "uint256"
        }
      ],
      "stateMutability": "view",
      "type": "function"
    },
    {
      "inputs": [
        {
          "internalType": "uint256",
          "name": "_tokenId",
          "type": "uint256"
        }
      ],
      "name": "ownerOf",
      "outputs": [
        {
          "internalType": "address",
          "name": "",
          "type": "address"
        }
      ],
      "stateMutability": "view",
      "type": "function"
    },
    {
      "inputs": [
        {
          "internalType": "address",
          "name": "_from",
          "type": "address"
        },
        {
          "internalType": "address",
          "name": "_to",
          "type": "address"
        },
        {
          "internalType": "uint256",
          "name": "tokenID",
          "type": "uint256"
        }
      ],
      "name": "transferFrom",
      "outputs": [],
      "stateMutability": "nonpayable",
      "type": "function"
    },
    {
      "inputs": [
        {
          "internalType": "uint256",
          "name": "index",
          "type": "uint256"
        }
      ],
      "name": "tokenByIndex",
      "outputs": [
        {
          "internalType": "uint256",
          "name": "",
          "type": "uint256"
        }
      ],
      "stateMutability": "view",
      "type": "function"
    },
    {
      "inputs": [
        {
          "internalType": "address",
          "name": "owner",
          "type": "address"
        },
        {
          "internalType": "uint256",
          "name": "index",
          "type": "uint256"
        }
      ],
      "name": "tokenOfOwnerByIndex",
      "outputs": [
        {
          "internalType": "uint256",
          "name": "",
          "type": "uint256"
        }
      ],
      "stateMutability": "view",
      "type": "function"
    }
  ],
  "bytecode": "0x608060405234801561001057600080fd5b50610f42806100206000396000f3fe608060405234801561001057600080fd5b50600436106100625760003560e01c8063095ea7b31461006757806323b872dd146100835780632f745c591461009f5780634f6ccce7146100cf5780636352211e146100ff57806370a082311461012f575b600080fd5b610081600480360381019061007c919061098b565b61015f565b005b61009d600480360381019061009891906109cb565b6102fa565b005b6100b960048036038101906100b4919061098b565b61031d565b6040516100c69190610a2d565b60405180910390f35b6100e960048036038101906100e49190610a48565b6103cd565b6040516100f69190610a2d565b60405180910390f35b61011960048036038101906101149190610a48565b61043e565b6040516101269190610a84565b60405180910390f35b61014960048036038101906101449190610a9f565b6104ee565b6040516101569190610a2d565b60405180910390f35b600061016a8261043e565b90508073ffffffffffffffffffffffffffffffffffffffff168373ffffffffffffffffffffffffffffffffffffffff16036101da576040517f08c379a00000000000000000000000000000000000000000000000000000000081526004016101d190610b29565b60405180910390fd5b8073ffffffffffffffffffffffffffffffffffffffff163373ffffffffffffffffffffffffffffffffffffffff1614610248576040517f08c379a000000000000000000000000000000000000000000000000000000000815260040161023f90610b95565b60405180910390fd5b826002600084815260200190815260200160002060006101000a81548173ffffffffffffffffffffffffffffffffffffffff021916908373ffffffffffffffffffffffffffffffffffffffff160217905550818373ffffffffffffffffffffffffffffffffffffffff168273ffffffffffffffffffffffffffffffffffffffff167f8c5be1e5ebec7d5bd14f71427d1e84f3dd0314c0f7b2291e5b200ac8c7c3b92560405160405180910390a4505050565b61030433826105a5565b61030d57600080fd5b610318838383610634565b505050565b6000610328836104ee565b8210610369576040517f08c379a000000000000000000000000000000000000000000000000000000000815260040161036090610c01565b60405180910390fd5b600560008473ffffffffffffffffffffffffffffffffffffffff1673ffffffffffffffffffffffffffffffffffffffff16815260200190815260200160002082815481106103ba576103b9610c21565b5b9060005260206000200154905092915050565b60006103d7610874565b8210610418576040517f08c379a000000000000000000000000000000000000000000000000000000000815260040161040f90610c9c565b60405180910390fd5b6003828154811061042c5761042b610c21565b5b90600052602060002001549050919050565b60008060008084815260200190815260200160002060009054906101000a900473ffffffffffffffffffffffffffffffffffffffff169050600073ffffffffffffffffffffffffffffffffffffffff168173ffffffffffffffffffffffffffffffffffffffff16036104e5576040517f08c379a00000000000000000000000000000000000000000000000000000000081526004016104dc90610d08565b60405180910390fd5b80915050919050565b60008073ffffffffffffffffffffffffffffffffffffffff168273ffffffffffffffffffffffffffffffffffffffff160361055e576040517f08c379a000000000000000000000000000000000000000000000000000000000815260040161055590610d08565b60405180910390fd5b600160008373ffffffffffffffffffffffffffffffffffffffff1673ffffffffffffffffffffffffffffffffffffffff168152602001908152602001600020549050919050565b60006105b082610881565b6105ef576040517f08c379a00000000000000000000000000000000000000000000000000000000081526004016105e690610d74565b60405180910390fd5b60006105fa8361043e565b90508073ffffffffffffffffffffffffffffffffffffffff168473ffffffffffffffffffffffffffffffffffffffff161491505092915050565b600073ffffffffffffffffffffffffffffffffffffffff168273ffffffffffffffffffffffffffffffffffffffff16036106a3576040517f08c379a000000000000000000000000000000000000000000000000000000000815260040161069a90610de0565b60405180910390fd5b8273ffffffffffffffffffffffffffffffffffffffff166106c38261043e565b73ffffffffffffffffffffffffffffffffffffffff1614610719576040517f08c379a000000000000000000000000000000000000000000000000000000000815260040161071090610e4c565b60405180910390fd5b8160008083815260200190815260200160002060006101000a81548173ffffffffffffffffffffffffffffffffffffffff021916908373ffffffffffffffffffffffffffffffffffffffff160217905550600160008373ffffffffffffffffffffffffffffffffffffffff1673ffffffffffffffffffffffffffffffffffffffff16815260200190815260200160002060008154809291906107ba90610e9b565b9190505550600160008473ffffffffffffffffffffffffffffffffffffffff1673ffffffffffffffffffffffffffffffffffffffff168152602001908152602001600020600081548092919061080f90610ee3565b9190505550808273ffffffffffffffffffffffffffffffffffffffff168473ffffffffffffffffffffffffffffffffffffffff167fddf252ad1be2c89b69c2b068fc378daa952ba7f163c4a11628f55a4df523b3ef60405160405180910390a4505050565b6000600380549050905090565b60008060008084815260200190815260200160002060009054906101000a900473ffffffffffffffffffffffffffffffffffffffff169050600073ffffffffffffffffffffffffffffffffffffffff168173ffffffffffffffffffffffffffffffffffffffff161415915050919050565b600080fd5b600073ffffffffffffffffffffffffffffffffffffffff82169050919050565b6000610922826108f7565b9050919050565b61093281610917565b811461093d57600080fd5b50565b60008135905061094f81610929565b92915050565b6000819050919050565b61096881610955565b811461097357600080fd5b50565b6000813590506109858161095f565b92915050565b600080604083850312156109a2576109a16108f2565b5b60006109b085828601610940565b92505060206109c185828601610976565b9150509250929050565b6000806000606084860312156109e4576109e36108f2565b5b60006109f286828701610940565b9350506020610a0386828701610940565b9250506040610a1486828701610976565b9150509250925092565b610a2781610955565b82525050565b6000602082019050610a426000830184610a1e565b92915050565b600060208284031215610a5e57610a5d6108f2565b5b6000610a6c84828501610976565b91505092915050565b610a7e81610917565b82525050565b6000602082019050610a996000830184610a75565b92915050565b600060208284031215610ab557610ab46108f2565b5b6000610ac384828501610940565b91505092915050565b600082825260208201905092915050565b7f4572726f7220617070726f76616c20746f2063757272656e74206f776e657200600082015250565b6000610b13601f83610acc565b9150610b1e82610add565b602082019050919050565b60006020820190508181036000830152610b4281610b06565b9050919050565b7f4375727272656e742063616c6c6572206973206e6f7420746865206f776e6572600082015250565b6000610b7f602083610acc565b9150610b8a82610b49565b602082019050919050565b60006020820190508181036000830152610bae81610b72565b9050919050565b7f4f776e657220496e646578206f7574206f6620626f6e64732000000000000000600082015250565b6000610beb601983610acc565b9150610bf682610bb5565b602082019050919050565b60006020820190508181036000830152610c1a81610bde565b9050919050565b7f4e487b7100000000000000000000000000000000000000000000000000000000600052603260045260246000fd5b7f4e6f7420656e6f75676820746f6b656e73000000000000000000000000000000600082015250565b6000610c86601183610acc565b9150610c9182610c50565b602082019050919050565b60006020820190508181036000830152610cb581610c79565b9050919050565b7f4f776e65722076616c7565206973206e756c6c00000000000000000000000000600082015250565b6000610cf2601383610acc565b9150610cfd82610cbc565b602082019050919050565b60006020820190508181036000830152610d2181610ce5565b9050919050565b7f746f6b656e20646f65736e742065787369737473000000000000000000000000600082015250565b6000610d5e601483610acc565b9150610d6982610d28565b602082019050919050565b60006020820190508181036000830152610d8d81610d51565b9050919050565b7f72656369657665722061646472657373206973206e756c6c0000000000000000600082015250565b6000610dca601883610acc565b9150610dd582610d94565b602082019050919050565b60006020820190508181036000830152610df981610dbd565b9050919050565b7f6f776e6572206f6620746f6b656e206e6f7420636f7272656374000000000000600082015250565b6000610e36601a83610acc565b9150610e4182610e00565b602082019050919050565b60006020820190508181036000830152610e6581610e29565b9050919050565b7f4e487b7100000000000000000000000000000000000000000000000000000000600052601160045260246000fd5b6000610ea682610955565b91507fffffffffffffffffffffffffffffffffffffffffffffffffffffffffffffffff8203610ed857610ed7610e6c565b5b600182019050919050565b6000610eee82610955565b915060008203610f0157610f00610e6c565b5b60018203905091905056fea2646970667358221220c3bfd12873047cc22f807c862e660aca2cda858e5dd5803ce54649215521f37664736f6c63430008130033",
  "immutableReferences": {},
  "source": "// SPDX-License-Identifier: MIT\r\npragma solidity ^0.8.0;\r\n\r\nimport \"./ERC721.sol\";\r\n\r\ncontract ERC721Ennumerator is ERC721 {\r\n    uint256[] private _allTokens;\r\n\r\n    // tokenId to index in _allTokens array\r\n    mapping(uint => uint) private _allTokensIndex;\r\n    // owner to array of all tokens owned by him\r\n    mapping(address => uint256[]) private _ownedTokens;\r\n    // tokenId to index of owner token list (above)\r\n    mapping(uint => uint) private _ownedTokensIndex;\r\n\r\n    function totatSupply() internal view returns (uint) {\r\n        return _allTokens.length;\r\n    }\r\n\r\n    // function tokenByIndex(uint _index) external view returns (uint);\r\n\r\n    // function tokenOfOwnerByIndex(\r\n    //     address owner,\r\n    //     uint _index\r\n    // ) external view returns (uint);\r\n\r\n    function _mint(uint256 tokenID, address to) internal override(ERC721) {\r\n        super._mint(tokenID, to);\r\n        _addTokensToAllTokensEnnumeration(tokenID);\r\n        _addTokensToOwnerTokensEnnumeration(tokenID, to);\r\n    }\r\n\r\n    function _addTokensToOwnerTokensEnnumeration(\r\n        uint tokenID,\r\n        address to\r\n    ) private {\r\n        _ownedTokens[to].push(tokenID);\r\n        _ownedTokensIndex[tokenID] = _ownedTokens[to].length;\r\n    }\r\n\r\n    function tokenByIndex(uint index) public view returns (uint) {\r\n        require(index < totatSupply(), \"Not enough tokens\");\r\n        return _allTokens[index];\r\n    }\r\n\r\n    function tokenOfOwnerByIndex(\r\n        address owner,\r\n        uint index\r\n    ) public view returns (uint) {\r\n        require(index < balanceOf(owner), \"Owner Index out of bonds \");\r\n        return _ownedTokens[owner][index];\r\n    }\r\n\r\n    function _addTokensToAllTokensEnnumeration(uint tokenID) private {\r\n        _allTokensIndex[tokenID] = _allTokens.length;\r\n        _allTokens.push(tokenID);\r\n    }\r\n}\r\n",
  "sourcePath": "G:\\nft-market-place\\src\\contracts\\ERC721Ennumerator.sol",
  "compiler": {
    "name": "solc",
    "version": "0.8.19+commit.7dd6d404.Emscripten.clang"
  },
  "schemaVersion": "3.4.13",
  "updatedAt": "2023-04-12T18:22:14.080Z",
  "devdoc": {
    "kind": "dev",
    "methods": {},
    "version": 1
  },
  "userdoc": {
    "kind": "user",
    "methods": {},
    "version": 1
  }
}