{
  "contractName": "ERC721Ennumerator",
  "abi": [
    {
      "anonymous": false,
      "inputs": [
        {
          "indexed": true,
          "internalType": "address",
          "name": "from",
          "type": "address"
        },
        {
          "indexed": true,
          "internalType": "address",
          "name": "to",
          "type": "address"
        },
        {
          "indexed": true,
          "internalType": "uint256",
          "name": "tokenId",
          "type": "uint256"
        }
      ],
      "name": "Transfer",
      "type": "event"
    },
    {
      "inputs": [
        {
          "internalType": "address",
          "name": "_owner",
          "type": "address"
        }
      ],
      "name": "balanceOf",
      "outputs": [
        {
          "internalType": "uint256",
          "name": "",
          "type": "uint256"
        }
      ],
      "stateMutability": "view",
      "type": "function"
    },
    {
      "inputs": [
        {
          "internalType": "uint256",
          "name": "_tokenId",
          "type": "uint256"
        }
      ],
      "name": "ownerOf",
      "outputs": [
        {
          "internalType": "address",
          "name": "",
          "type": "address"
        }
      ],
      "stateMutability": "view",
      "type": "function"
    },
    {
      "inputs": [
        {
          "internalType": "address",
          "name": "_from",
          "type": "address"
        },
        {
          "internalType": "address",
          "name": "_to",
          "type": "address"
        },
        {
          "internalType": "uint256",
          "name": "tokenID",
          "type": "uint256"
        }
      ],
      "name": "transferFrom",
      "outputs": [],
      "stateMutability": "nonpayable",
      "type": "function"
    },
    {
      "inputs": [
        {
          "internalType": "uint256",
          "name": "index",
          "type": "uint256"
        }
      ],
      "name": "tokenByIndex",
      "outputs": [
        {
          "internalType": "uint256",
          "name": "",
          "type": "uint256"
        }
      ],
      "stateMutability": "view",
      "type": "function"
    },
    {
      "inputs": [
        {
          "internalType": "address",
          "name": "owner",
          "type": "address"
        },
        {
          "internalType": "uint256",
          "name": "index",
          "type": "uint256"
        }
      ],
      "name": "tokenOfOwnerByIndex",
      "outputs": [
        {
          "internalType": "uint256",
          "name": "",
          "type": "uint256"
        }
      ],
      "stateMutability": "view",
      "type": "function"
    }
  ],
  "bytecode": "0x608060405234801561001057600080fd5b50610b29806100206000396000f3fe608060405234801561001057600080fd5b50600436106100575760003560e01c806323b872dd1461005c5780632f745c59146100785780634f6ccce7146100a85780636352211e146100d857806370a0823114610108575b600080fd5b610076600480360381019061007191906106b6565b610138565b005b610092600480360381019061008d9190610709565b610148565b60405161009f9190610758565b60405180910390f35b6100c260048036038101906100bd9190610773565b6101f8565b6040516100cf9190610758565b60405180910390f35b6100f260048036038101906100ed9190610773565b610269565b6040516100ff91906107af565b60405180910390f35b610122600480360381019061011d91906107ca565b610319565b60405161012f9190610758565b60405180910390f35b6101438383836103d0565b505050565b600061015383610319565b8210610194576040517f08c379a000000000000000000000000000000000000000000000000000000000815260040161018b90610854565b60405180910390fd5b600560008473ffffffffffffffffffffffffffffffffffffffff1673ffffffffffffffffffffffffffffffffffffffff16815260200190815260200160002082815481106101e5576101e4610874565b5b9060005260206000200154905092915050565b6000610202610610565b8210610243576040517f08c379a000000000000000000000000000000000000000000000000000000000815260040161023a906108ef565b60405180910390fd5b6003828154811061025757610256610874565b5b90600052602060002001549050919050565b60008060008084815260200190815260200160002060009054906101000a900473ffffffffffffffffffffffffffffffffffffffff169050600073ffffffffffffffffffffffffffffffffffffffff168173ffffffffffffffffffffffffffffffffffffffff1603610310576040517f08c379a00000000000000000000000000000000000000000000000000000000081526004016103079061095b565b60405180910390fd5b80915050919050565b60008073ffffffffffffffffffffffffffffffffffffffff168273ffffffffffffffffffffffffffffffffffffffff1603610389576040517f08c379a00000000000000000000000000000000000000000000000000000000081526004016103809061095b565b60405180910390fd5b600160008373ffffffffffffffffffffffffffffffffffffffff1673ffffffffffffffffffffffffffffffffffffffff168152602001908152602001600020549050919050565b600073ffffffffffffffffffffffffffffffffffffffff168273ffffffffffffffffffffffffffffffffffffffff160361043f576040517f08c379a0000000000000000000000000000000000000000000000000000000008152600401610436906109c7565b60405180910390fd5b8273ffffffffffffffffffffffffffffffffffffffff1661045f82610269565b73ffffffffffffffffffffffffffffffffffffffff16146104b5576040517f08c379a00000000000000000000000000000000000000000000000000000000081526004016104ac90610a33565b60405180910390fd5b8160008083815260200190815260200160002060006101000a81548173ffffffffffffffffffffffffffffffffffffffff021916908373ffffffffffffffffffffffffffffffffffffffff160217905550600160008373ffffffffffffffffffffffffffffffffffffffff1673ffffffffffffffffffffffffffffffffffffffff168152602001908152602001600020600081548092919061055690610a82565b9190505550600160008473ffffffffffffffffffffffffffffffffffffffff1673ffffffffffffffffffffffffffffffffffffffff16815260200190815260200160002060008154809291906105ab90610aca565b9190505550808273ffffffffffffffffffffffffffffffffffffffff168473ffffffffffffffffffffffffffffffffffffffff167fddf252ad1be2c89b69c2b068fc378daa952ba7f163c4a11628f55a4df523b3ef60405160405180910390a4505050565b6000600380549050905090565b600080fd5b600073ffffffffffffffffffffffffffffffffffffffff82169050919050565b600061064d82610622565b9050919050565b61065d81610642565b811461066857600080fd5b50565b60008135905061067a81610654565b92915050565b6000819050919050565b61069381610680565b811461069e57600080fd5b50565b6000813590506106b08161068a565b92915050565b6000806000606084860312156106cf576106ce61061d565b5b60006106dd8682870161066b565b93505060206106ee8682870161066b565b92505060406106ff868287016106a1565b9150509250925092565b600080604083850312156107205761071f61061d565b5b600061072e8582860161066b565b925050602061073f858286016106a1565b9150509250929050565b61075281610680565b82525050565b600060208201905061076d6000830184610749565b92915050565b6000602082840312156107895761078861061d565b5b6000610797848285016106a1565b91505092915050565b6107a981610642565b82525050565b60006020820190506107c460008301846107a0565b92915050565b6000602082840312156107e0576107df61061d565b5b60006107ee8482850161066b565b91505092915050565b600082825260208201905092915050565b7f4f776e657220496e646578206f7574206f6620626f6e64732000000000000000600082015250565b600061083e6019836107f7565b915061084982610808565b602082019050919050565b6000602082019050818103600083015261086d81610831565b9050919050565b7f4e487b7100000000000000000000000000000000000000000000000000000000600052603260045260246000fd5b7f4e6f7420656e6f75676820746f6b656e73000000000000000000000000000000600082015250565b60006108d96011836107f7565b91506108e4826108a3565b602082019050919050565b60006020820190508181036000830152610908816108cc565b9050919050565b7f4f776e65722076616c7565206973206e756c6c00000000000000000000000000600082015250565b60006109456013836107f7565b91506109508261090f565b602082019050919050565b6000602082019050818103600083015261097481610938565b9050919050565b7f72656369657665722061646472657373206973206e756c6c0000000000000000600082015250565b60006109b16018836107f7565b91506109bc8261097b565b602082019050919050565b600060208201905081810360008301526109e0816109a4565b9050919050565b7f6f776e6572206f6620746f6b656e206e6f7420636f7272656374000000000000600082015250565b6000610a1d601a836107f7565b9150610a28826109e7565b602082019050919050565b60006020820190508181036000830152610a4c81610a10565b9050919050565b7f4e487b7100000000000000000000000000000000000000000000000000000000600052601160045260246000fd5b6000610a8d82610680565b91507fffffffffffffffffffffffffffffffffffffffffffffffffffffffffffffffff8203610abf57610abe610a53565b5b600182019050919050565b6000610ad582610680565b915060008203610ae857610ae7610a53565b5b60018203905091905056fea2646970667358221220795d38bb78bb5e1f7adadbb2b0898c9423918ea004e466d162e5f15bcb5ed8c664736f6c63430008130033",
  "immutableReferences": {},
  "source": "// SPDX-License-Identifier: MIT\r\npragma solidity ^0.8.0;\r\n\r\nimport \"./ERC721.sol\";\r\n\r\ncontract ERC721Ennumerator is ERC721 {\r\n    uint256[] private _allTokens;\r\n\r\n    // tokenId to index in _allTokens array\r\n    mapping(uint => uint) private _allTokensIndex;\r\n    // owner to array of all tokens owned by him\r\n    mapping(address => uint256[]) private _ownedTokens;\r\n    // tokenId to index of owner token list (above)\r\n    mapping(uint => uint) private _ownedTokensIndex;\r\n\r\n    function totatSupply() internal view returns (uint) {\r\n        return _allTokens.length;\r\n    }\r\n\r\n    // function tokenByIndex(uint _index) external view returns (uint);\r\n\r\n    // function tokenOfOwnerByIndex(\r\n    //     address owner,\r\n    //     uint _index\r\n    // ) external view returns (uint);\r\n\r\n    function _mint(uint256 tokenID, address to) internal override(ERC721) {\r\n        super._mint(tokenID, to);\r\n        _addTokensToAllTokensEnnumeration(tokenID);\r\n        _addTokensToOwnerTokensEnnumeration(tokenID, to);\r\n    }\r\n\r\n    function _addTokensToOwnerTokensEnnumeration(\r\n        uint tokenID,\r\n        address to\r\n    ) private {\r\n        _ownedTokens[to].push(tokenID);\r\n        _ownedTokensIndex[tokenID] = _ownedTokens[to].length;\r\n    }\r\n\r\n    function tokenByIndex(uint index) public view returns (uint) {\r\n        require(index < totatSupply(), \"Not enough tokens\");\r\n        return _allTokens[index];\r\n    }\r\n\r\n    function tokenOfOwnerByIndex(\r\n        address owner,\r\n        uint index\r\n    ) public view returns (uint) {\r\n        require(index < balanceOf(owner), \"Owner Index out of bonds \");\r\n        return _ownedTokens[owner][index];\r\n    }\r\n\r\n    function _addTokensToAllTokensEnnumeration(uint tokenID) private {\r\n        _allTokensIndex[tokenID] = _allTokens.length;\r\n        _allTokens.push(tokenID);\r\n    }\r\n}\r\n",
  "sourcePath": "G:\\nft-market-place\\src\\contracts\\ERC721Ennumerator.sol",
  "compiler": {
    "name": "solc",
    "version": "0.8.19+commit.7dd6d404.Emscripten.clang"
  },
  "schemaVersion": "3.4.13",
  "updatedAt": "2023-04-10T20:18:42.059Z",
  "devdoc": {
    "kind": "dev",
    "methods": {},
    "version": 1
  },
  "userdoc": {
    "kind": "user",
    "methods": {},
    "version": 1
  }
}