{
  "contractName": "ERC721",
  "abi": [
    {
      "anonymous": false,
      "inputs": [
        {
          "indexed": true,
          "internalType": "address",
          "name": "from",
          "type": "address"
        },
        {
          "indexed": true,
          "internalType": "address",
          "name": "to",
          "type": "address"
        },
        {
          "indexed": true,
          "internalType": "uint256",
          "name": "tokenId",
          "type": "uint256"
        }
      ],
      "name": "Transfer",
      "type": "event"
    },
    {
      "inputs": [
        {
          "internalType": "address",
          "name": "_owner",
          "type": "address"
        }
      ],
      "name": "balanceOf",
      "outputs": [
        {
          "internalType": "uint256",
          "name": "",
          "type": "uint256"
        }
      ],
      "stateMutability": "view",
      "type": "function"
    },
    {
      "inputs": [
        {
          "internalType": "uint256",
          "name": "_tokenId",
          "type": "uint256"
        }
      ],
      "name": "ownerOf",
      "outputs": [
        {
          "internalType": "address",
          "name": "",
          "type": "address"
        }
      ],
      "stateMutability": "view",
      "type": "function"
    },
    {
      "inputs": [
        {
          "internalType": "address",
          "name": "_from",
          "type": "address"
        },
        {
          "internalType": "address",
          "name": "_to",
          "type": "address"
        },
        {
          "internalType": "uint256",
          "name": "tokenID",
          "type": "uint256"
        }
      ],
      "name": "transferFrom",
      "outputs": [],
      "stateMutability": "nonpayable",
      "type": "function"
    }
  ],
  "bytecode": "0x608060405234801561001057600080fd5b5061083e806100206000396000f3fe608060405234801561001057600080fd5b50600436106100415760003560e01c806323b872dd146100465780636352211e1461006257806370a0823114610092575b600080fd5b610060600480360381019061005b9190610512565b6100c2565b005b61007c60048036038101906100779190610565565b6100d2565b60405161008991906105a1565b60405180910390f35b6100ac60048036038101906100a791906105bc565b610182565b6040516100b991906105f8565b60405180910390f35b6100cd838383610239565b505050565b60008060008084815260200190815260200160002060009054906101000a900473ffffffffffffffffffffffffffffffffffffffff169050600073ffffffffffffffffffffffffffffffffffffffff168173ffffffffffffffffffffffffffffffffffffffff1603610179576040517f08c379a000000000000000000000000000000000000000000000000000000000815260040161017090610670565b60405180910390fd5b80915050919050565b60008073ffffffffffffffffffffffffffffffffffffffff168273ffffffffffffffffffffffffffffffffffffffff16036101f2576040517f08c379a00000000000000000000000000000000000000000000000000000000081526004016101e990610670565b60405180910390fd5b600160008373ffffffffffffffffffffffffffffffffffffffff1673ffffffffffffffffffffffffffffffffffffffff168152602001908152602001600020549050919050565b600073ffffffffffffffffffffffffffffffffffffffff168273ffffffffffffffffffffffffffffffffffffffff16036102a8576040517f08c379a000000000000000000000000000000000000000000000000000000000815260040161029f906106dc565b60405180910390fd5b8273ffffffffffffffffffffffffffffffffffffffff166102c8826100d2565b73ffffffffffffffffffffffffffffffffffffffff161461031e576040517f08c379a000000000000000000000000000000000000000000000000000000000815260040161031590610748565b60405180910390fd5b8160008083815260200190815260200160002060006101000a81548173ffffffffffffffffffffffffffffffffffffffff021916908373ffffffffffffffffffffffffffffffffffffffff160217905550600160008373ffffffffffffffffffffffffffffffffffffffff1673ffffffffffffffffffffffffffffffffffffffff16815260200190815260200160002060008154809291906103bf90610797565b9190505550600160008473ffffffffffffffffffffffffffffffffffffffff1673ffffffffffffffffffffffffffffffffffffffff1681526020019081526020016000206000815480929190610414906107df565b9190505550808273ffffffffffffffffffffffffffffffffffffffff168473ffffffffffffffffffffffffffffffffffffffff167fddf252ad1be2c89b69c2b068fc378daa952ba7f163c4a11628f55a4df523b3ef60405160405180910390a4505050565b600080fd5b600073ffffffffffffffffffffffffffffffffffffffff82169050919050565b60006104a98261047e565b9050919050565b6104b98161049e565b81146104c457600080fd5b50565b6000813590506104d6816104b0565b92915050565b6000819050919050565b6104ef816104dc565b81146104fa57600080fd5b50565b60008135905061050c816104e6565b92915050565b60008060006060848603121561052b5761052a610479565b5b6000610539868287016104c7565b935050602061054a868287016104c7565b925050604061055b868287016104fd565b9150509250925092565b60006020828403121561057b5761057a610479565b5b6000610589848285016104fd565b91505092915050565b61059b8161049e565b82525050565b60006020820190506105b66000830184610592565b92915050565b6000602082840312156105d2576105d1610479565b5b60006105e0848285016104c7565b91505092915050565b6105f2816104dc565b82525050565b600060208201905061060d60008301846105e9565b92915050565b600082825260208201905092915050565b7f4f776e65722076616c7565206973206e756c6c00000000000000000000000000600082015250565b600061065a601383610613565b915061066582610624565b602082019050919050565b600060208201905081810360008301526106898161064d565b9050919050565b7f72656369657665722061646472657373206973206e756c6c0000000000000000600082015250565b60006106c6601883610613565b91506106d182610690565b602082019050919050565b600060208201905081810360008301526106f5816106b9565b9050919050565b7f6f776e6572206f6620746f6b656e206e6f7420636f7272656374000000000000600082015250565b6000610732601a83610613565b915061073d826106fc565b602082019050919050565b6000602082019050818103600083015261076181610725565b9050919050565b7f4e487b7100000000000000000000000000000000000000000000000000000000600052601160045260246000fd5b60006107a2826104dc565b91507fffffffffffffffffffffffffffffffffffffffffffffffffffffffffffffffff82036107d4576107d3610768565b5b600182019050919050565b60006107ea826104dc565b9150600082036107fd576107fc610768565b5b60018203905091905056fea26469706673582212207bf6047af52332c15980af846ecb8db255ce5ff3829ceee87a4530de637514f864736f6c63430008130033",
  "immutableReferences": {},
  "source": "// SPDX-License-Identifier: MIT\r\npragma solidity ^0.8.0;\r\n\r\nimport \"./ERC721.sol\";\r\n\r\ncontract ERC721 {\r\n    mapping(uint => address) private _tokenOwner;\r\n    mapping(address => uint) private _OwnedTokenCounts;\r\n    mapping(uint => address) private _tokenApproval;\r\n    event Transfer(\r\n        address indexed from,\r\n        address indexed to,\r\n        uint indexed tokenId\r\n    );\r\n\r\n    function _mint(uint tokenId, address to) internal virtual {\r\n        require(to != address(0), \"Address is 0\");\r\n        require(!_exists(tokenId), \"Token already minted\");\r\n\r\n        _tokenOwner[tokenId] = to;\r\n        _OwnedTokenCounts[to]++;\r\n\r\n        emit Transfer(address(0), to, tokenId);\r\n    }\r\n\r\n    function balanceOf(address _owner) public view returns (uint) {\r\n        require(_owner != address(0), \"Owner value is null\");\r\n        return _OwnedTokenCounts[_owner];\r\n    }\r\n\r\n    function ownerOf(uint _tokenId) public view returns (address) {\r\n        address owner = _tokenOwner[_tokenId];\r\n        require(owner != address(0), \"Owner value is null\");\r\n        return owner;\r\n    }\r\n\r\n    function _exists(uint tokenId) internal view returns (bool) {\r\n        address owner = _tokenOwner[tokenId];\r\n        return owner != address(0);\r\n    }\r\n\r\n    function _transferFrom(address _from, address _to, uint tokenID) internal {\r\n        require(_to != address(0), \"reciever address is null\");\r\n        require(ownerOf(tokenID) == _from, \"owner of token not correct\");\r\n        _tokenOwner[tokenID] = _to;\r\n        _OwnedTokenCounts[_to]++;\r\n        _OwnedTokenCounts[_from]--;\r\n        emit Transfer(_from, _to, tokenID);\r\n    }\r\n\r\n    function transferFrom(address _from, address _to, uint tokenID) public {\r\n        _transferFrom(_from, _to, tokenID);\r\n    }\r\n\r\n}\r\n",
  "sourcePath": "G:\\nft-market-place\\src\\contracts\\ERC721.sol",
  "compiler": {
    "name": "solc",
    "version": "0.8.19+commit.7dd6d404.Emscripten.clang"
  },
  "schemaVersion": "3.4.13",
  "updatedAt": "2023-04-10T20:18:42.034Z",
  "devdoc": {
    "kind": "dev",
    "methods": {},
    "version": 1
  },
  "userdoc": {
    "kind": "user",
    "methods": {},
    "version": 1
  }
}