{
  "contractName": "KryptoBirdz",
  "abi": [
    {
      "inputs": [],
      "stateMutability": "nonpayable",
      "type": "constructor"
    },
    {
      "anonymous": false,
      "inputs": [
        {
          "indexed": true,
          "internalType": "address",
          "name": "from",
          "type": "address"
        },
        {
          "indexed": true,
          "internalType": "address",
          "name": "to",
          "type": "address"
        },
        {
          "indexed": true,
          "internalType": "uint256",
          "name": "tokenId",
          "type": "uint256"
        }
      ],
      "name": "Transfer",
      "type": "event"
    },
    {
      "inputs": [
        {
          "internalType": "uint256",
          "name": "",
          "type": "uint256"
        }
      ],
      "name": "KryptoBird",
      "outputs": [
        {
          "internalType": "string",
          "name": "",
          "type": "string"
        }
      ],
      "stateMutability": "view",
      "type": "function",
      "constant": true
    },
    {
      "inputs": [],
      "name": "NameGetter",
      "outputs": [
        {
          "internalType": "string",
          "name": "",
          "type": "string"
        }
      ],
      "stateMutability": "view",
      "type": "function",
      "constant": true
    },
    {
      "inputs": [
        {
          "internalType": "string",
          "name": "",
          "type": "string"
        }
      ],
      "name": "_KryptoBirdExists",
      "outputs": [
        {
          "internalType": "bool",
          "name": "",
          "type": "bool"
        }
      ],
      "stateMutability": "view",
      "type": "function",
      "constant": true
    },
    {
      "inputs": [],
      "name": "symbolGetter",
      "outputs": [
        {
          "internalType": "string",
          "name": "",
          "type": "string"
        }
      ],
      "stateMutability": "view",
      "type": "function",
      "constant": true
    },
    {
      "inputs": [
        {
          "internalType": "string",
          "name": "_KryptoBird",
          "type": "string"
        }
      ],
      "name": "mint",
      "outputs": [],
      "stateMutability": "nonpayable",
      "type": "function"
    }
  ],
  "bytecode": "0x60806040523480156200001157600080fd5b506040518060400160405280600a81526020017f4b727970746f62697264000000000000000000000000000000000000000000008152506040518060400160405280600681526020017f4b424952445a00000000000000000000000000000000000000000000000000008152508181816000908162000091919062000328565b508060019081620000a3919062000328565b50505050506200040f565b600081519050919050565b7f4e487b7100000000000000000000000000000000000000000000000000000000600052604160045260246000fd5b7f4e487b7100000000000000000000000000000000000000000000000000000000600052602260045260246000fd5b600060028204905060018216806200013057607f821691505b602082108103620001465762000145620000e8565b5b50919050565b60008190508160005260206000209050919050565b60006020601f8301049050919050565b600082821b905092915050565b600060088302620001b07fffffffffffffffffffffffffffffffffffffffffffffffffffffffffffffffff8262000171565b620001bc868362000171565b95508019841693508086168417925050509392505050565b6000819050919050565b6000819050919050565b60006200020962000203620001fd84620001d4565b620001de565b620001d4565b9050919050565b6000819050919050565b6200022583620001e8565b6200023d620002348262000210565b8484546200017e565b825550505050565b600090565b6200025462000245565b620002618184846200021a565b505050565b5b8181101562000289576200027d6000826200024a565b60018101905062000267565b5050565b601f821115620002d857620002a2816200014c565b620002ad8462000161565b81016020851015620002bd578190505b620002d5620002cc8562000161565b83018262000266565b50505b505050565b600082821c905092915050565b6000620002fd60001984600802620002dd565b1980831691505092915050565b6000620003188383620002ea565b9150826002028217905092915050565b6200033382620000ae565b67ffffffffffffffff8111156200034f576200034e620000b9565b5b6200035b825462000117565b620003688282856200028d565b600060209050601f831160018114620003a057600084156200038b578287015190505b6200039785826200030a565b86555062000407565b601f198416620003b0866200014c565b60005b82811015620003da57848901518255600182019150602085019450602081019050620003b3565b86831015620003fa5784890151620003f6601f891682620002ea565b8355505b6001600288020188555050505b505050505050565b610e7a806200041f6000396000f3fe608060405234801561001057600080fd5b50600436106100575760003560e01c80630d546dfd1461005c57806317c2272e1461007a578063c7f05aa114610098578063d85d3d27146100c8578063f8eaeb1e146100e4575b600080fd5b610064610114565b60405161007191906106d7565b60405180910390f35b6100826101a6565b60405161008f91906106d7565b60405180910390f35b6100b260048036038101906100ad9190610743565b610238565b6040516100bf91906106d7565b60405180910390f35b6100e260048036038101906100dd91906108a5565b6102e4565b005b6100fe60048036038101906100f991906108a5565b6103e0565b60405161010b9190610909565b60405180910390f35b60606001805461012390610953565b80601f016020809104026020016040519081016040528092919081815260200182805461014f90610953565b801561019c5780601f106101715761010080835404028352916020019161019c565b820191906000526020600020905b81548152906001019060200180831161017f57829003601f168201915b5050505050905090565b6060600080546101b590610953565b80601f01602080910402602001604051908101604052809291908181526020018280546101e190610953565b801561022e5780601f106102035761010080835404028352916020019161022e565b820191906000526020600020905b81548152906001019060200180831161021157829003601f168201915b5050505050905090565b6004818154811061024857600080fd5b90600052602060002001600091509050805461026390610953565b80601f016020809104026020016040519081016040528092919081815260200182805461028f90610953565b80156102dc5780601f106102b1576101008083540402835291602001916102dc565b820191906000526020600020905b8154815290600101906020018083116102bf57829003601f168201915b505050505081565b6005816040516102f491906109c0565b908152602001604051809103902060009054906101000a900460ff1615610350576040517f08c379a000000000000000000000000000000000000000000000000000000000815260040161034790610a23565b60405180910390fd5b6004819080600181540180825580915050600190039060005260206000200160009091909190915090816103849190610bef565b50600060016004805490506103999190610cf0565b90506103a58133610416565b60016005836040516103b791906109c0565b908152602001604051809103902060006101000a81548160ff0219169083151502179055505050565b6005818051602081018201805184825260208301602085012081835280955050505050506000915054906101000a900460ff1681565b600073ffffffffffffffffffffffffffffffffffffffff168173ffffffffffffffffffffffffffffffffffffffff1603610485576040517f08c379a000000000000000000000000000000000000000000000000000000000815260040161047c90610d70565b60405180910390fd5b61048e826105d5565b156104ce576040517f08c379a00000000000000000000000000000000000000000000000000000000081526004016104c590610ddc565b60405180910390fd5b806002600084815260200190815260200160002060006101000a81548173ffffffffffffffffffffffffffffffffffffffff021916908373ffffffffffffffffffffffffffffffffffffffff160217905550600360008273ffffffffffffffffffffffffffffffffffffffff1673ffffffffffffffffffffffffffffffffffffffff168152602001908152602001600020600081548092919061057090610dfc565b9190505550818173ffffffffffffffffffffffffffffffffffffffff16600073ffffffffffffffffffffffffffffffffffffffff167fddf252ad1be2c89b69c2b068fc378daa952ba7f163c4a11628f55a4df523b3ef60405160405180910390a45050565b6000806002600084815260200190815260200160002060009054906101000a900473ffffffffffffffffffffffffffffffffffffffff169050600073ffffffffffffffffffffffffffffffffffffffff168173ffffffffffffffffffffffffffffffffffffffff161415915050919050565b600081519050919050565b600082825260208201905092915050565b60005b83811015610681578082015181840152602081019050610666565b60008484015250505050565b6000601f19601f8301169050919050565b60006106a982610647565b6106b38185610652565b93506106c3818560208601610663565b6106cc8161068d565b840191505092915050565b600060208201905081810360008301526106f1818461069e565b905092915050565b6000604051905090565b600080fd5b600080fd5b6000819050919050565b6107208161070d565b811461072b57600080fd5b50565b60008135905061073d81610717565b92915050565b60006020828403121561075957610758610703565b5b60006107678482850161072e565b91505092915050565b600080fd5b600080fd5b7f4e487b7100000000000000000000000000000000000000000000000000000000600052604160045260246000fd5b6107b28261068d565b810181811067ffffffffffffffff821117156107d1576107d061077a565b5b80604052505050565b60006107e46106f9565b90506107f082826107a9565b919050565b600067ffffffffffffffff8211156108105761080f61077a565b5b6108198261068d565b9050602081019050919050565b82818337600083830152505050565b6000610848610843846107f5565b6107da565b90508281526020810184848401111561086457610863610775565b5b61086f848285610826565b509392505050565b600082601f83011261088c5761088b610770565b5b813561089c848260208601610835565b91505092915050565b6000602082840312156108bb576108ba610703565b5b600082013567ffffffffffffffff8111156108d9576108d8610708565b5b6108e584828501610877565b91505092915050565b60008115159050919050565b610903816108ee565b82525050565b600060208201905061091e60008301846108fa565b92915050565b7f4e487b7100000000000000000000000000000000000000000000000000000000600052602260045260246000fd5b6000600282049050600182168061096b57607f821691505b60208210810361097e5761097d610924565b5b50919050565b600081905092915050565b600061099a82610647565b6109a48185610984565b93506109b4818560208601610663565b80840191505092915050565b60006109cc828461098f565b915081905092915050565b7f4b727970746f4269726420616c72656164792065787369737473000000000000600082015250565b6000610a0d601a83610652565b9150610a18826109d7565b602082019050919050565b60006020820190508181036000830152610a3c81610a00565b9050919050565b60008190508160005260206000209050919050565b60006020601f8301049050919050565b600082821b905092915050565b600060088302610aa57fffffffffffffffffffffffffffffffffffffffffffffffffffffffffffffffff82610a68565b610aaf8683610a68565b95508019841693508086168417925050509392505050565b6000819050919050565b6000610aec610ae7610ae28461070d565b610ac7565b61070d565b9050919050565b6000819050919050565b610b0683610ad1565b610b1a610b1282610af3565b848454610a75565b825550505050565b600090565b610b2f610b22565b610b3a818484610afd565b505050565b5b81811015610b5e57610b53600082610b27565b600181019050610b40565b5050565b601f821115610ba357610b7481610a43565b610b7d84610a58565b81016020851015610b8c578190505b610ba0610b9885610a58565b830182610b3f565b50505b505050565b600082821c905092915050565b6000610bc660001984600802610ba8565b1980831691505092915050565b6000610bdf8383610bb5565b9150826002028217905092915050565b610bf882610647565b67ffffffffffffffff811115610c1157610c1061077a565b5b610c1b8254610953565b610c26828285610b62565b600060209050601f831160018114610c595760008415610c47578287015190505b610c518582610bd3565b865550610cb9565b601f198416610c6786610a43565b60005b82811015610c8f57848901518255600182019150602085019450602081019050610c6a565b86831015610cac5784890151610ca8601f891682610bb5565b8355505b6001600288020188555050505b505050505050565b7f4e487b7100000000000000000000000000000000000000000000000000000000600052601160045260246000fd5b6000610cfb8261070d565b9150610d068361070d565b9250828203905081811115610d1e57610d1d610cc1565b5b92915050565b7f4164647265737320697320300000000000000000000000000000000000000000600082015250565b6000610d5a600c83610652565b9150610d6582610d24565b602082019050919050565b60006020820190508181036000830152610d8981610d4d565b9050919050565b7f546f6b656e20616c7265616479206d696e746564000000000000000000000000600082015250565b6000610dc6601483610652565b9150610dd182610d90565b602082019050919050565b60006020820190508181036000830152610df581610db9565b9050919050565b6000610e078261070d565b91507fffffffffffffffffffffffffffffffffffffffffffffffffffffffffffffffff8203610e3957610e38610cc1565b5b60018201905091905056fea2646970667358221220251074e706f01058aaeadd1b8849f0a652688a3f24af689cfa8c19c3578d460c64736f6c63430008130033",
  "immutableReferences": {},
  "source": "// SPDX-License-Identifier: MIT\npragma solidity ^0.8.0;\nimport \"./ERC721Connector.sol\";\n\ncontract KryptoBirdz is ERC721Connector {\n    string[] public KryptoBird;\n    mapping(string => bool) public _KryptoBirdExists;\n\n    function mint(string memory _KryptoBird) public {\n        require(!_KryptoBirdExists[_KryptoBird], \"KryptoBird already exsists\");\n        KryptoBird.push(_KryptoBird);\n        uint _id = KryptoBird.length - 1;\n        _mint(_id, msg.sender);\n        _KryptoBirdExists[_KryptoBird] = true;\n    }\n\n    // a constructor that calls the ERC721Connector\n    // constructor with the values \"Kryptobird\"\n    // and \"KBIRDZ\" to set the name and symbol\n    // variables for this contract.\n    constructor() ERC721Connector(\"Kryptobird\", \"KBIRDZ\") {}\n}\n",
  "sourcePath": "G:\\nft-market-place\\src\\contracts\\KryptoBirdz.sol",
  "compiler": {
    "name": "solc",
    "version": "0.8.19+commit.7dd6d404.Emscripten.clang"
  },
  "schemaVersion": "3.4.13",
  "updatedAt": "2023-04-06T14:04:50.200Z",
  "networkType": "ethereum",
  "devdoc": {
    "kind": "dev",
    "methods": {},
    "version": 1
  },
  "userdoc": {
    "kind": "user",
    "methods": {},
    "version": 1
  }
}