{
  "contractName": "KryptoBirdz",
  "abi": [
    {
      "inputs": [],
      "stateMutability": "nonpayable",
      "type": "constructor"
    },
    {
      "anonymous": false,
      "inputs": [
        {
          "indexed": true,
          "internalType": "address",
          "name": "owner",
          "type": "address"
        },
        {
          "indexed": true,
          "internalType": "address",
          "name": "approved",
          "type": "address"
        },
        {
          "indexed": true,
          "internalType": "uint256",
          "name": "tokenId",
          "type": "uint256"
        }
      ],
      "name": "Approval",
      "type": "event"
    },
    {
      "anonymous": false,
      "inputs": [
        {
          "indexed": true,
          "internalType": "address",
          "name": "from",
          "type": "address"
        },
        {
          "indexed": true,
          "internalType": "address",
          "name": "to",
          "type": "address"
        },
        {
          "indexed": true,
          "internalType": "uint256",
          "name": "tokenId",
          "type": "uint256"
        }
      ],
      "name": "Transfer",
      "type": "event"
    },
    {
      "inputs": [
        {
          "internalType": "uint256",
          "name": "",
          "type": "uint256"
        }
      ],
      "name": "KryptoBird",
      "outputs": [
        {
          "internalType": "string",
          "name": "",
          "type": "string"
        }
      ],
      "stateMutability": "view",
      "type": "function",
      "constant": true
    },
    {
      "inputs": [],
      "name": "NameGetter",
      "outputs": [
        {
          "internalType": "string",
          "name": "",
          "type": "string"
        }
      ],
      "stateMutability": "view",
      "type": "function",
      "constant": true
    },
    {
      "inputs": [
        {
          "internalType": "string",
          "name": "",
          "type": "string"
        }
      ],
      "name": "_KryptoBirdExists",
      "outputs": [
        {
          "internalType": "bool",
          "name": "",
          "type": "bool"
        }
      ],
      "stateMutability": "view",
      "type": "function",
      "constant": true
    },
    {
      "inputs": [
        {
          "internalType": "address",
          "name": "_to",
          "type": "address"
        },
        {
          "internalType": "uint256",
          "name": "tokenId",
          "type": "uint256"
        }
      ],
      "name": "approve",
      "outputs": [],
      "stateMutability": "nonpayable",
      "type": "function"
    },
    {
      "inputs": [
        {
          "internalType": "address",
          "name": "_owner",
          "type": "address"
        }
      ],
      "name": "balanceOf",
      "outputs": [
        {
          "internalType": "uint256",
          "name": "",
          "type": "uint256"
        }
      ],
      "stateMutability": "view",
      "type": "function",
      "constant": true
    },
    {
      "inputs": [
        {
          "internalType": "uint256",
          "name": "_tokenId",
          "type": "uint256"
        }
      ],
      "name": "ownerOf",
      "outputs": [
        {
          "internalType": "address",
          "name": "",
          "type": "address"
        }
      ],
      "stateMutability": "view",
      "type": "function",
      "constant": true
    },
    {
      "inputs": [],
      "name": "symbolGetter",
      "outputs": [
        {
          "internalType": "string",
          "name": "",
          "type": "string"
        }
      ],
      "stateMutability": "view",
      "type": "function",
      "constant": true
    },
    {
      "inputs": [
        {
          "internalType": "uint256",
          "name": "index",
          "type": "uint256"
        }
      ],
      "name": "tokenByIndex",
      "outputs": [
        {
          "internalType": "uint256",
          "name": "",
          "type": "uint256"
        }
      ],
      "stateMutability": "view",
      "type": "function",
      "constant": true
    },
    {
      "inputs": [
        {
          "internalType": "address",
          "name": "owner",
          "type": "address"
        },
        {
          "internalType": "uint256",
          "name": "index",
          "type": "uint256"
        }
      ],
      "name": "tokenOfOwnerByIndex",
      "outputs": [
        {
          "internalType": "uint256",
          "name": "",
          "type": "uint256"
        }
      ],
      "stateMutability": "view",
      "type": "function",
      "constant": true
    },
    {
      "inputs": [
        {
          "internalType": "address",
          "name": "_from",
          "type": "address"
        },
        {
          "internalType": "address",
          "name": "_to",
          "type": "address"
        },
        {
          "internalType": "uint256",
          "name": "tokenID",
          "type": "uint256"
        }
      ],
      "name": "transferFrom",
      "outputs": [],
      "stateMutability": "nonpayable",
      "type": "function"
    },
    {
      "inputs": [
        {
          "internalType": "string",
          "name": "_KryptoBird",
          "type": "string"
        }
      ],
      "name": "mint",
      "outputs": [],
      "stateMutability": "nonpayable",
      "type": "function"
    }
  ],
  "bytecode": "0x60806040523480156200001157600080fd5b506040518060400160405280600a81526020017f4b727970746f62697264000000000000000000000000000000000000000000008152506040518060400160405280600681526020017f4b424952445a00000000000000000000000000000000000000000000000000008152508181816000908162000091919062000328565b508060019081620000a3919062000328565b50505050506200040f565b600081519050919050565b7f4e487b7100000000000000000000000000000000000000000000000000000000600052604160045260246000fd5b7f4e487b7100000000000000000000000000000000000000000000000000000000600052602260045260246000fd5b600060028204905060018216806200013057607f821691505b602082108103620001465762000145620000e8565b5b50919050565b60008190508160005260206000209050919050565b60006020601f8301049050919050565b600082821b905092915050565b600060088302620001b07fffffffffffffffffffffffffffffffffffffffffffffffffffffffffffffffff8262000171565b620001bc868362000171565b95508019841693508086168417925050509392505050565b6000819050919050565b6000819050919050565b60006200020962000203620001fd84620001d4565b620001de565b620001d4565b9050919050565b6000819050919050565b6200022583620001e8565b6200023d620002348262000210565b8484546200017e565b825550505050565b600090565b6200025462000245565b620002618184846200021a565b505050565b5b8181101562000289576200027d6000826200024a565b60018101905062000267565b5050565b601f821115620002d857620002a2816200014c565b620002ad8462000161565b81016020851015620002bd578190505b620002d5620002cc8562000161565b83018262000266565b50505b505050565b600082821c905092915050565b6000620002fd60001984600802620002dd565b1980831691505092915050565b6000620003188383620002ea565b9150826002028217905092915050565b6200033382620000ae565b67ffffffffffffffff8111156200034f576200034e620000b9565b5b6200035b825462000117565b620003688282856200028d565b600060209050601f831160018114620003a057600084156200038b578287015190505b6200039785826200030a565b86555062000407565b601f198416620003b0866200014c565b60005b82811015620003da57848901518255600182019150602085019450602081019050620003b3565b86831015620003fa5784890151620003f6601f891682620002ea565b8355505b6001600288020188555050505b505050505050565b611d40806200041f6000396000f3fe608060405234801561001057600080fd5b50600436106100a95760003560e01c80634f6ccce7116100715780634f6ccce7146101525780636352211e1461018257806370a08231146101b2578063c7f05aa1146101e2578063d85d3d2714610212578063f8eaeb1e1461022e576100a9565b8063095ea7b3146100ae5780630d546dfd146100ca57806317c2272e146100e857806323b872dd146101065780632f745c5914610122575b600080fd5b6100c860048036038101906100c3919061108b565b61025e565b005b6100d26103f9565b6040516100df919061115b565b60405180910390f35b6100f061048b565b6040516100fd919061115b565b60405180910390f35b610120600480360381019061011b919061117d565b61051d565b005b61013c6004803603810190610137919061108b565b610540565b60405161014991906111df565b60405180910390f35b61016c600480360381019061016791906111fa565b6105f0565b60405161017991906111df565b60405180910390f35b61019c600480360381019061019791906111fa565b610661565b6040516101a99190611236565b60405180910390f35b6101cc60048036038101906101c79190611251565b610712565b6040516101d991906111df565b60405180910390f35b6101fc60048036038101906101f791906111fa565b6107c9565b604051610209919061115b565b60405180910390f35b61022c600480360381019061022791906113b3565b610875565b005b610248600480360381019061024391906113b3565b610971565b6040516102559190611417565b60405180910390f35b600061026982610661565b90508073ffffffffffffffffffffffffffffffffffffffff168373ffffffffffffffffffffffffffffffffffffffff16036102d9576040517f08c379a00000000000000000000000000000000000000000000000000000000081526004016102d09061147e565b60405180910390fd5b8073ffffffffffffffffffffffffffffffffffffffff163373ffffffffffffffffffffffffffffffffffffffff1614610347576040517f08c379a000000000000000000000000000000000000000000000000000000000815260040161033e906114ea565b60405180910390fd5b826004600084815260200190815260200160002060006101000a81548173ffffffffffffffffffffffffffffffffffffffff021916908373ffffffffffffffffffffffffffffffffffffffff160217905550818373ffffffffffffffffffffffffffffffffffffffff168273ffffffffffffffffffffffffffffffffffffffff167f8c5be1e5ebec7d5bd14f71427d1e84f3dd0314c0f7b2291e5b200ac8c7c3b92560405160405180910390a4505050565b60606001805461040890611539565b80601f016020809104026020016040519081016040528092919081815260200182805461043490611539565b80156104815780601f1061045657610100808354040283529160200191610481565b820191906000526020600020905b81548152906001019060200180831161046457829003601f168201915b5050505050905090565b60606000805461049a90611539565b80601f01602080910402602001604051908101604052809291908181526020018280546104c690611539565b80156105135780601f106104e857610100808354040283529160200191610513565b820191906000526020600020905b8154815290600101906020018083116104f657829003601f168201915b5050505050905090565b61052733826109a7565b61053057600080fd5b61053b838383610a36565b505050565b600061054b83610712565b821061058c576040517f08c379a0000000000000000000000000000000000000000000000000000000008152600401610583906115b6565b60405180910390fd5b600760008473ffffffffffffffffffffffffffffffffffffffff1673ffffffffffffffffffffffffffffffffffffffff16815260200190815260200160002082815481106105dd576105dc6115d6565b5b9060005260206000200154905092915050565b60006105fa610c77565b821061063b576040517f08c379a000000000000000000000000000000000000000000000000000000000815260040161063290611651565b60405180910390fd5b6005828154811061064f5761064e6115d6565b5b90600052602060002001549050919050565b6000806002600084815260200190815260200160002060009054906101000a900473ffffffffffffffffffffffffffffffffffffffff169050600073ffffffffffffffffffffffffffffffffffffffff168173ffffffffffffffffffffffffffffffffffffffff1603610709576040517f08c379a0000000000000000000000000000000000000000000000000000000008152600401610700906116bd565b60405180910390fd5b80915050919050565b60008073ffffffffffffffffffffffffffffffffffffffff168273ffffffffffffffffffffffffffffffffffffffff1603610782576040517f08c379a0000000000000000000000000000000000000000000000000000000008152600401610779906116bd565b60405180910390fd5b600360008373ffffffffffffffffffffffffffffffffffffffff1673ffffffffffffffffffffffffffffffffffffffff168152602001908152602001600020549050919050565b600981815481106107d957600080fd5b9060005260206000200160009150905080546107f490611539565b80601f016020809104026020016040519081016040528092919081815260200182805461082090611539565b801561086d5780601f106108425761010080835404028352916020019161086d565b820191906000526020600020905b81548152906001019060200180831161085057829003601f168201915b505050505081565b600a816040516108859190611719565b908152602001604051809103902060009054906101000a900460ff16156108e1576040517f08c379a00000000000000000000000000000000000000000000000000000000081526004016108d89061177c565b60405180910390fd5b6009819080600181540180825580915050600190039060005260206000200160009091909190915090816109159190611948565b506000600160098054905061092a9190611a49565b90506109368133610c84565b6001600a836040516109489190611719565b908152602001604051809103902060006101000a81548160ff0219169083151502179055505050565b600a818051602081018201805184825260208301602085012081835280955050505050506000915054906101000a900460ff1681565b60006109b282610ca5565b6109f1576040517f08c379a00000000000000000000000000000000000000000000000000000000081526004016109e890611ac9565b60405180910390fd5b60006109fc83610661565b90508073ffffffffffffffffffffffffffffffffffffffff168473ffffffffffffffffffffffffffffffffffffffff161491505092915050565b600073ffffffffffffffffffffffffffffffffffffffff168273ffffffffffffffffffffffffffffffffffffffff1603610aa5576040517f08c379a0000000000000000000000000000000000000000000000000000000008152600401610a9c90611b35565b60405180910390fd5b8273ffffffffffffffffffffffffffffffffffffffff16610ac582610661565b73ffffffffffffffffffffffffffffffffffffffff1614610b1b576040517f08c379a0000000000000000000000000000000000000000000000000000000008152600401610b1290611ba1565b60405180910390fd5b816002600083815260200190815260200160002060006101000a81548173ffffffffffffffffffffffffffffffffffffffff021916908373ffffffffffffffffffffffffffffffffffffffff160217905550600360008373ffffffffffffffffffffffffffffffffffffffff1673ffffffffffffffffffffffffffffffffffffffff1681526020019081526020016000206000815480929190610bbd90611bc1565b9190505550600360008473ffffffffffffffffffffffffffffffffffffffff1673ffffffffffffffffffffffffffffffffffffffff1681526020019081526020016000206000815480929190610c1290611c09565b9190505550808273ffffffffffffffffffffffffffffffffffffffff168473ffffffffffffffffffffffffffffffffffffffff167fddf252ad1be2c89b69c2b068fc378daa952ba7f163c4a11628f55a4df523b3ef60405160405180910390a4505050565b6000600580549050905090565b610c8e8282610d17565b610c9782610ed6565b610ca18282610f1f565b5050565b6000806002600084815260200190815260200160002060009054906101000a900473ffffffffffffffffffffffffffffffffffffffff169050600073ffffffffffffffffffffffffffffffffffffffff168173ffffffffffffffffffffffffffffffffffffffff161415915050919050565b600073ffffffffffffffffffffffffffffffffffffffff168173ffffffffffffffffffffffffffffffffffffffff1603610d86576040517f08c379a0000000000000000000000000000000000000000000000000000000008152600401610d7d90611c7e565b60405180910390fd5b610d8f82610ca5565b15610dcf576040517f08c379a0000000000000000000000000000000000000000000000000000000008152600401610dc690611cea565b60405180910390fd5b806002600084815260200190815260200160002060006101000a81548173ffffffffffffffffffffffffffffffffffffffff021916908373ffffffffffffffffffffffffffffffffffffffff160217905550600360008273ffffffffffffffffffffffffffffffffffffffff1673ffffffffffffffffffffffffffffffffffffffff1681526020019081526020016000206000815480929190610e7190611bc1565b9190505550818173ffffffffffffffffffffffffffffffffffffffff16600073ffffffffffffffffffffffffffffffffffffffff167fddf252ad1be2c89b69c2b068fc378daa952ba7f163c4a11628f55a4df523b3ef60405160405180910390a45050565b6005805490506006600083815260200190815260200160002081905550600581908060018154018082558091505060019003906000526020600020016000909190919091505550565b600760008273ffffffffffffffffffffffffffffffffffffffff1673ffffffffffffffffffffffffffffffffffffffff168152602001908152602001600020829080600181540180825580915050600190039060005260206000200160009091909190915055600760008273ffffffffffffffffffffffffffffffffffffffff1673ffffffffffffffffffffffffffffffffffffffff1681526020019081526020016000208054905060086000848152602001908152602001600020819055505050565b6000604051905090565b600080fd5b600080fd5b600073ffffffffffffffffffffffffffffffffffffffff82169050919050565b600061102282610ff7565b9050919050565b61103281611017565b811461103d57600080fd5b50565b60008135905061104f81611029565b92915050565b6000819050919050565b61106881611055565b811461107357600080fd5b50565b6000813590506110858161105f565b92915050565b600080604083850312156110a2576110a1610fed565b5b60006110b085828601611040565b92505060206110c185828601611076565b9150509250929050565b600081519050919050565b600082825260208201905092915050565b60005b838110156111055780820151818401526020810190506110ea565b60008484015250505050565b6000601f19601f8301169050919050565b600061112d826110cb565b61113781856110d6565b93506111478185602086016110e7565b61115081611111565b840191505092915050565b600060208201905081810360008301526111758184611122565b905092915050565b60008060006060848603121561119657611195610fed565b5b60006111a486828701611040565b93505060206111b586828701611040565b92505060406111c686828701611076565b9150509250925092565b6111d981611055565b82525050565b60006020820190506111f460008301846111d0565b92915050565b6000602082840312156112105761120f610fed565b5b600061121e84828501611076565b91505092915050565b61123081611017565b82525050565b600060208201905061124b6000830184611227565b92915050565b60006020828403121561126757611266610fed565b5b600061127584828501611040565b91505092915050565b600080fd5b600080fd5b7f4e487b7100000000000000000000000000000000000000000000000000000000600052604160045260246000fd5b6112c082611111565b810181811067ffffffffffffffff821117156112df576112de611288565b5b80604052505050565b60006112f2610fe3565b90506112fe82826112b7565b919050565b600067ffffffffffffffff82111561131e5761131d611288565b5b61132782611111565b9050602081019050919050565b82818337600083830152505050565b600061135661135184611303565b6112e8565b90508281526020810184848401111561137257611371611283565b5b61137d848285611334565b509392505050565b600082601f83011261139a5761139961127e565b5b81356113aa848260208601611343565b91505092915050565b6000602082840312156113c9576113c8610fed565b5b600082013567ffffffffffffffff8111156113e7576113e6610ff2565b5b6113f384828501611385565b91505092915050565b60008115159050919050565b611411816113fc565b82525050565b600060208201905061142c6000830184611408565b92915050565b7f4572726f7220617070726f76616c20746f2063757272656e74206f776e657200600082015250565b6000611468601f836110d6565b915061147382611432565b602082019050919050565b600060208201905081810360008301526114978161145b565b9050919050565b7f4375727272656e742063616c6c6572206973206e6f7420746865206f776e6572600082015250565b60006114d46020836110d6565b91506114df8261149e565b602082019050919050565b60006020820190508181036000830152611503816114c7565b9050919050565b7f4e487b7100000000000000000000000000000000000000000000000000000000600052602260045260246000fd5b6000600282049050600182168061155157607f821691505b6020821081036115645761156361150a565b5b50919050565b7f4f776e657220496e646578206f7574206f6620626f6e64732000000000000000600082015250565b60006115a06019836110d6565b91506115ab8261156a565b602082019050919050565b600060208201905081810360008301526115cf81611593565b9050919050565b7f4e487b7100000000000000000000000000000000000000000000000000000000600052603260045260246000fd5b7f4e6f7420656e6f75676820746f6b656e73000000000000000000000000000000600082015250565b600061163b6011836110d6565b915061164682611605565b602082019050919050565b6000602082019050818103600083015261166a8161162e565b9050919050565b7f4f776e65722076616c7565206973206e756c6c00000000000000000000000000600082015250565b60006116a76013836110d6565b91506116b282611671565b602082019050919050565b600060208201905081810360008301526116d68161169a565b9050919050565b600081905092915050565b60006116f3826110cb565b6116fd81856116dd565b935061170d8185602086016110e7565b80840191505092915050565b600061172582846116e8565b915081905092915050565b7f4b727970746f4269726420616c72656164792065787369737473000000000000600082015250565b6000611766601a836110d6565b915061177182611730565b602082019050919050565b6000602082019050818103600083015261179581611759565b9050919050565b60008190508160005260206000209050919050565b60006020601f8301049050919050565b600082821b905092915050565b6000600883026117fe7fffffffffffffffffffffffffffffffffffffffffffffffffffffffffffffffff826117c1565b61180886836117c1565b95508019841693508086168417925050509392505050565b6000819050919050565b600061184561184061183b84611055565b611820565b611055565b9050919050565b6000819050919050565b61185f8361182a565b61187361186b8261184c565b8484546117ce565b825550505050565b600090565b61188861187b565b611893818484611856565b505050565b5b818110156118b7576118ac600082611880565b600181019050611899565b5050565b601f8211156118fc576118cd8161179c565b6118d6846117b1565b810160208510156118e5578190505b6118f96118f1856117b1565b830182611898565b50505b505050565b600082821c905092915050565b600061191f60001984600802611901565b1980831691505092915050565b6000611938838361190e565b9150826002028217905092915050565b611951826110cb565b67ffffffffffffffff81111561196a57611969611288565b5b6119748254611539565b61197f8282856118bb565b600060209050601f8311600181146119b257600084156119a0578287015190505b6119aa858261192c565b865550611a12565b601f1984166119c08661179c565b60005b828110156119e8578489015182556001820191506020850194506020810190506119c3565b86831015611a055784890151611a01601f89168261190e565b8355505b6001600288020188555050505b505050505050565b7f4e487b7100000000000000000000000000000000000000000000000000000000600052601160045260246000fd5b6000611a5482611055565b9150611a5f83611055565b9250828203905081811115611a7757611a76611a1a565b5b92915050565b7f746f6b656e20646f65736e742065787369737473000000000000000000000000600082015250565b6000611ab36014836110d6565b9150611abe82611a7d565b602082019050919050565b60006020820190508181036000830152611ae281611aa6565b9050919050565b7f72656369657665722061646472657373206973206e756c6c0000000000000000600082015250565b6000611b1f6018836110d6565b9150611b2a82611ae9565b602082019050919050565b60006020820190508181036000830152611b4e81611b12565b9050919050565b7f6f776e6572206f6620746f6b656e206e6f7420636f7272656374000000000000600082015250565b6000611b8b601a836110d6565b9150611b9682611b55565b602082019050919050565b60006020820190508181036000830152611bba81611b7e565b9050919050565b6000611bcc82611055565b91507fffffffffffffffffffffffffffffffffffffffffffffffffffffffffffffffff8203611bfe57611bfd611a1a565b5b600182019050919050565b6000611c1482611055565b915060008203611c2757611c26611a1a565b5b600182039050919050565b7f4164647265737320697320300000000000000000000000000000000000000000600082015250565b6000611c68600c836110d6565b9150611c7382611c32565b602082019050919050565b60006020820190508181036000830152611c9781611c5b565b9050919050565b7f546f6b656e20616c7265616479206d696e746564000000000000000000000000600082015250565b6000611cd46014836110d6565b9150611cdf82611c9e565b602082019050919050565b60006020820190508181036000830152611d0381611cc7565b905091905056fea2646970667358221220a0f99d07bd6964bb902dfbbecf40803d2ac8aaa625891612d7a136970830be4564736f6c63430008130033",
  "immutableReferences": {},
  "source": "// SPDX-License-Identifier: MIT\npragma solidity ^0.8.0;\nimport \"./ERC721Connector.sol\";\n\ncontract KryptoBirdz is ERC721Connector {\n    string[] public KryptoBird;\n    mapping(string => bool) public _KryptoBirdExists;\n\n    function mint(string memory _KryptoBird) public {\n        require(!_KryptoBirdExists[_KryptoBird], \"KryptoBird already exsists\");\n        KryptoBird.push(_KryptoBird);\n        uint _id = KryptoBird.length - 1;\n        _mint(_id, msg.sender);\n        _KryptoBirdExists[_KryptoBird] = true;\n    }\n\n    // a constructor that calls the ERC721Connector\n    // constructor with the values \"Kryptobird\"\n    // and \"KBIRDZ\" to set the name and symbol\n    // variables for this contract.\n    constructor() ERC721Connector(\"Kryptobird\", \"KBIRDZ\") {}\n}\n",
  "sourcePath": "G:\\nft-market-place\\src\\contracts\\KryptoBirdz.sol",
  "compiler": {
    "name": "solc",
    "version": "0.8.19+commit.7dd6d404.Emscripten.clang"
  },
  "schemaVersion": "3.4.13",
  "updatedAt": "2023-04-12T18:22:22.582Z",
  "networkType": "ethereum",
  "devdoc": {
    "kind": "dev",
    "methods": {},
    "version": 1
  },
  "userdoc": {
    "kind": "user",
    "methods": {},
    "version": 1
  }
}