{
  "contractName": "KryptoBirdz",
  "abi": [
    {
      "inputs": [],
      "stateMutability": "nonpayable",
      "type": "constructor"
    },
    {
      "anonymous": false,
      "inputs": [
        {
          "indexed": true,
          "internalType": "address",
          "name": "from",
          "type": "address"
        },
        {
          "indexed": true,
          "internalType": "address",
          "name": "to",
          "type": "address"
        },
        {
          "indexed": true,
          "internalType": "uint256",
          "name": "tokenId",
          "type": "uint256"
        }
      ],
      "name": "Transfer",
      "type": "event"
    },
    {
      "inputs": [
        {
          "internalType": "uint256",
          "name": "",
          "type": "uint256"
        }
      ],
      "name": "KryptoBird",
      "outputs": [
        {
          "internalType": "string",
          "name": "",
          "type": "string"
        }
      ],
      "stateMutability": "view",
      "type": "function"
    },
    {
      "inputs": [],
      "name": "NameGetter",
      "outputs": [
        {
          "internalType": "string",
          "name": "",
          "type": "string"
        }
      ],
      "stateMutability": "view",
      "type": "function"
    },
    {
      "inputs": [
        {
          "internalType": "string",
          "name": "",
          "type": "string"
        }
      ],
      "name": "_KryptoBirdExists",
      "outputs": [
        {
          "internalType": "bool",
          "name": "",
          "type": "bool"
        }
      ],
      "stateMutability": "view",
      "type": "function"
    },
    {
      "inputs": [
        {
          "internalType": "address",
          "name": "_owner",
          "type": "address"
        }
      ],
      "name": "balanceOf",
      "outputs": [
        {
          "internalType": "uint256",
          "name": "",
          "type": "uint256"
        }
      ],
      "stateMutability": "view",
      "type": "function"
    },
    {
      "inputs": [
        {
          "internalType": "uint256",
          "name": "_tokenId",
          "type": "uint256"
        }
      ],
      "name": "ownerOf",
      "outputs": [
        {
          "internalType": "address",
          "name": "",
          "type": "address"
        }
      ],
      "stateMutability": "view",
      "type": "function"
    },
    {
      "inputs": [],
      "name": "symbolGetter",
      "outputs": [
        {
          "internalType": "string",
          "name": "",
          "type": "string"
        }
      ],
      "stateMutability": "view",
      "type": "function"
    },
    {
      "inputs": [],
      "name": "totatSupply",
      "outputs": [
        {
          "internalType": "uint256",
          "name": "",
          "type": "uint256"
        }
      ],
      "stateMutability": "view",
      "type": "function"
    },
    {
      "inputs": [
        {
          "internalType": "string",
          "name": "_KryptoBird",
          "type": "string"
        }
      ],
      "name": "mint",
      "outputs": [],
      "stateMutability": "nonpayable",
      "type": "function"
    }
  ],
  "bytecode": "0x60806040523480156200001157600080fd5b506040518060400160405280600a81526020017f4b727970746f62697264000000000000000000000000000000000000000000008152506040518060400160405280600681526020017f4b424952445a00000000000000000000000000000000000000000000000000008152508181816000908162000091919062000328565b508060019081620000a3919062000328565b50505050506200040f565b600081519050919050565b7f4e487b7100000000000000000000000000000000000000000000000000000000600052604160045260246000fd5b7f4e487b7100000000000000000000000000000000000000000000000000000000600052602260045260246000fd5b600060028204905060018216806200013057607f821691505b602082108103620001465762000145620000e8565b5b50919050565b60008190508160005260206000209050919050565b60006020601f8301049050919050565b600082821b905092915050565b600060088302620001b07fffffffffffffffffffffffffffffffffffffffffffffffffffffffffffffffff8262000171565b620001bc868362000171565b95508019841693508086168417925050509392505050565b6000819050919050565b6000819050919050565b60006200020962000203620001fd84620001d4565b620001de565b620001d4565b9050919050565b6000819050919050565b6200022583620001e8565b6200023d620002348262000210565b8484546200017e565b825550505050565b600090565b6200025462000245565b620002618184846200021a565b505050565b5b8181101562000289576200027d6000826200024a565b60018101905062000267565b5050565b601f821115620002d857620002a2816200014c565b620002ad8462000161565b81016020851015620002bd578190505b620002d5620002cc8562000161565b83018262000266565b50505b505050565b600082821c905092915050565b6000620002fd60001984600802620002dd565b1980831691505092915050565b6000620003188383620002ea565b9150826002028217905092915050565b6200033382620000ae565b67ffffffffffffffff8111156200034f576200034e620000b9565b5b6200035b825462000117565b620003688282856200028d565b600060209050601f831160018114620003a057600084156200038b578287015190505b6200039785826200030a565b86555062000407565b601f198416620003b0866200014c565b60005b82811015620003da57848901518255600182019150602085019450602081019050620003b3565b86831015620003fa5784890151620003f6601f891682620002ea565b8355505b6001600288020188555050505b505050505050565b61122c806200041f6000396000f3fe608060405234801561001057600080fd5b50600436106100885760003560e01c806370a082311161005b57806370a0823114610117578063c7f05aa114610147578063d85d3d2714610177578063f8eaeb1e1461019357610088565b80630d546dfd1461008d57806317c2272e146100ab5780632aefc8d2146100c95780636352211e146100e7575b600080fd5b6100956101c3565b6040516100a2919061093e565b60405180910390f35b6100b3610255565b6040516100c0919061093e565b60405180910390f35b6100d16102e7565b6040516100de9190610979565b60405180910390f35b61010160048036038101906100fc91906109d4565b6102f4565b60405161010e9190610a42565b60405180910390f35b610131600480360381019061012c9190610a89565b6103a5565b60405161013e9190610979565b60405180910390f35b610161600480360381019061015c91906109d4565b61045c565b60405161016e919061093e565b60405180910390f35b610191600480360381019061018c9190610beb565b610508565b005b6101ad60048036038101906101a89190610beb565b610604565b6040516101ba9190610c4f565b60405180910390f35b6060600180546101d290610c99565b80601f01602080910402602001604051908101604052809291908181526020018280546101fe90610c99565b801561024b5780601f106102205761010080835404028352916020019161024b565b820191906000526020600020905b81548152906001019060200180831161022e57829003601f168201915b5050505050905090565b60606000805461026490610c99565b80601f016020809104026020016040519081016040528092919081815260200182805461029090610c99565b80156102dd5780601f106102b2576101008083540402835291602001916102dd565b820191906000526020600020905b8154815290600101906020018083116102c057829003601f168201915b5050505050905090565b6000600480549050905090565b6000806002600084815260200190815260200160002060009054906101000a900473ffffffffffffffffffffffffffffffffffffffff169050600073ffffffffffffffffffffffffffffffffffffffff168173ffffffffffffffffffffffffffffffffffffffff160361039c576040517f08c379a000000000000000000000000000000000000000000000000000000000815260040161039390610d16565b60405180910390fd5b80915050919050565b60008073ffffffffffffffffffffffffffffffffffffffff168273ffffffffffffffffffffffffffffffffffffffff1603610415576040517f08c379a000000000000000000000000000000000000000000000000000000000815260040161040c90610d16565b60405180910390fd5b600360008373ffffffffffffffffffffffffffffffffffffffff1673ffffffffffffffffffffffffffffffffffffffff168152602001908152602001600020549050919050565b6008818154811061046c57600080fd5b90600052602060002001600091509050805461048790610c99565b80601f01602080910402602001604051908101604052809291908181526020018280546104b390610c99565b80156105005780601f106104d557610100808354040283529160200191610500565b820191906000526020600020905b8154815290600101906020018083116104e357829003601f168201915b505050505081565b6009816040516105189190610d72565b908152602001604051809103902060009054906101000a900460ff1615610574576040517f08c379a000000000000000000000000000000000000000000000000000000000815260040161056b90610dd5565b60405180910390fd5b6008819080600181540180825580915050600190039060005260206000200160009091909190915090816105a89190610fa1565b50600060016008805490506105bd91906110a2565b90506105c9813361063a565b60016009836040516105db9190610d72565b908152602001604051809103902060006101000a81548160ff0219169083151502179055505050565b6009818051602081018201805184825260208301602085012081835280955050505050506000915054906101000a900460ff1681565b6106448282610651565b61064d82610810565b5050565b600073ffffffffffffffffffffffffffffffffffffffff168173ffffffffffffffffffffffffffffffffffffffff16036106c0576040517f08c379a00000000000000000000000000000000000000000000000000000000081526004016106b790611122565b60405180910390fd5b6106c98261083c565b15610709576040517f08c379a00000000000000000000000000000000000000000000000000000000081526004016107009061118e565b60405180910390fd5b806002600084815260200190815260200160002060006101000a81548173ffffffffffffffffffffffffffffffffffffffff021916908373ffffffffffffffffffffffffffffffffffffffff160217905550600360008273ffffffffffffffffffffffffffffffffffffffff1673ffffffffffffffffffffffffffffffffffffffff16815260200190815260200160002060008154809291906107ab906111ae565b9190505550818173ffffffffffffffffffffffffffffffffffffffff16600073ffffffffffffffffffffffffffffffffffffffff167fddf252ad1be2c89b69c2b068fc378daa952ba7f163c4a11628f55a4df523b3ef60405160405180910390a45050565b600481908060018154018082558091505060019003906000526020600020016000909190919091505550565b6000806002600084815260200190815260200160002060009054906101000a900473ffffffffffffffffffffffffffffffffffffffff169050600073ffffffffffffffffffffffffffffffffffffffff168173ffffffffffffffffffffffffffffffffffffffff161415915050919050565b600081519050919050565b600082825260208201905092915050565b60005b838110156108e85780820151818401526020810190506108cd565b60008484015250505050565b6000601f19601f8301169050919050565b6000610910826108ae565b61091a81856108b9565b935061092a8185602086016108ca565b610933816108f4565b840191505092915050565b600060208201905081810360008301526109588184610905565b905092915050565b6000819050919050565b61097381610960565b82525050565b600060208201905061098e600083018461096a565b92915050565b6000604051905090565b600080fd5b600080fd5b6109b181610960565b81146109bc57600080fd5b50565b6000813590506109ce816109a8565b92915050565b6000602082840312156109ea576109e961099e565b5b60006109f8848285016109bf565b91505092915050565b600073ffffffffffffffffffffffffffffffffffffffff82169050919050565b6000610a2c82610a01565b9050919050565b610a3c81610a21565b82525050565b6000602082019050610a576000830184610a33565b92915050565b610a6681610a21565b8114610a7157600080fd5b50565b600081359050610a8381610a5d565b92915050565b600060208284031215610a9f57610a9e61099e565b5b6000610aad84828501610a74565b91505092915050565b600080fd5b600080fd5b7f4e487b7100000000000000000000000000000000000000000000000000000000600052604160045260246000fd5b610af8826108f4565b810181811067ffffffffffffffff82111715610b1757610b16610ac0565b5b80604052505050565b6000610b2a610994565b9050610b368282610aef565b919050565b600067ffffffffffffffff821115610b5657610b55610ac0565b5b610b5f826108f4565b9050602081019050919050565b82818337600083830152505050565b6000610b8e610b8984610b3b565b610b20565b905082815260208101848484011115610baa57610ba9610abb565b5b610bb5848285610b6c565b509392505050565b600082601f830112610bd257610bd1610ab6565b5b8135610be2848260208601610b7b565b91505092915050565b600060208284031215610c0157610c0061099e565b5b600082013567ffffffffffffffff811115610c1f57610c1e6109a3565b5b610c2b84828501610bbd565b91505092915050565b60008115159050919050565b610c4981610c34565b82525050565b6000602082019050610c646000830184610c40565b92915050565b7f4e487b7100000000000000000000000000000000000000000000000000000000600052602260045260246000fd5b60006002820490506001821680610cb157607f821691505b602082108103610cc457610cc3610c6a565b5b50919050565b7f4f776e65722076616c7565206973206e756c6c00000000000000000000000000600082015250565b6000610d006013836108b9565b9150610d0b82610cca565b602082019050919050565b60006020820190508181036000830152610d2f81610cf3565b9050919050565b600081905092915050565b6000610d4c826108ae565b610d568185610d36565b9350610d668185602086016108ca565b80840191505092915050565b6000610d7e8284610d41565b915081905092915050565b7f4b727970746f4269726420616c72656164792065787369737473000000000000600082015250565b6000610dbf601a836108b9565b9150610dca82610d89565b602082019050919050565b60006020820190508181036000830152610dee81610db2565b9050919050565b60008190508160005260206000209050919050565b60006020601f8301049050919050565b600082821b905092915050565b600060088302610e577fffffffffffffffffffffffffffffffffffffffffffffffffffffffffffffffff82610e1a565b610e618683610e1a565b95508019841693508086168417925050509392505050565b6000819050919050565b6000610e9e610e99610e9484610960565b610e79565b610960565b9050919050565b6000819050919050565b610eb883610e83565b610ecc610ec482610ea5565b848454610e27565b825550505050565b600090565b610ee1610ed4565b610eec818484610eaf565b505050565b5b81811015610f1057610f05600082610ed9565b600181019050610ef2565b5050565b601f821115610f5557610f2681610df5565b610f2f84610e0a565b81016020851015610f3e578190505b610f52610f4a85610e0a565b830182610ef1565b50505b505050565b600082821c905092915050565b6000610f7860001984600802610f5a565b1980831691505092915050565b6000610f918383610f67565b9150826002028217905092915050565b610faa826108ae565b67ffffffffffffffff811115610fc357610fc2610ac0565b5b610fcd8254610c99565b610fd8828285610f14565b600060209050601f83116001811461100b5760008415610ff9578287015190505b6110038582610f85565b86555061106b565b601f19841661101986610df5565b60005b828110156110415784890151825560018201915060208501945060208101905061101c565b8683101561105e578489015161105a601f891682610f67565b8355505b6001600288020188555050505b505050505050565b7f4e487b7100000000000000000000000000000000000000000000000000000000600052601160045260246000fd5b60006110ad82610960565b91506110b883610960565b92508282039050818111156110d0576110cf611073565b5b92915050565b7f4164647265737320697320300000000000000000000000000000000000000000600082015250565b600061110c600c836108b9565b9150611117826110d6565b602082019050919050565b6000602082019050818103600083015261113b816110ff565b9050919050565b7f546f6b656e20616c7265616479206d696e746564000000000000000000000000600082015250565b60006111786014836108b9565b915061118382611142565b602082019050919050565b600060208201905081810360008301526111a78161116b565b9050919050565b60006111b982610960565b91507fffffffffffffffffffffffffffffffffffffffffffffffffffffffffffffffff82036111eb576111ea611073565b5b60018201905091905056fea26469706673582212206125f5517257b1fd2413dd2270958cd31beab2205da65674b2eb70fe699aa51764736f6c63430008130033",
  "immutableReferences": {},
  "source": "// SPDX-License-Identifier: MIT\npragma solidity ^0.8.0;\nimport \"./ERC721Connector.sol\";\n\ncontract KryptoBirdz is ERC721Connector {\n    string[] public KryptoBird;\n    mapping(string => bool) public _KryptoBirdExists;\n\n    function mint(string memory _KryptoBird) public {\n        require(!_KryptoBirdExists[_KryptoBird], \"KryptoBird already exsists\");\n        KryptoBird.push(_KryptoBird);\n        uint _id = KryptoBird.length - 1;\n        _mint(_id, msg.sender);\n        _KryptoBirdExists[_KryptoBird] = true;\n    }\n\n    // a constructor that calls the ERC721Connector\n    // constructor with the values \"Kryptobird\"\n    // and \"KBIRDZ\" to set the name and symbol\n    // variables for this contract.\n    constructor() ERC721Connector(\"Kryptobird\", \"KBIRDZ\") {}\n}\n",
  "sourcePath": "G:\\nft-market-place\\src\\contracts\\KryptoBirdz.sol",
  "compiler": {
    "name": "solc",
    "version": "0.8.19+commit.7dd6d404.Emscripten.clang"
  },
  "schemaVersion": "3.4.13",
  "updatedAt": "2023-04-07T18:28:14.084Z",
  "devdoc": {
    "kind": "dev",
    "methods": {},
    "version": 1
  },
  "userdoc": {
    "kind": "user",
    "methods": {},
    "version": 1
  }
}