{
  "contractName": "KryptoBirdz",
  "abi": [
    {
      "inputs": [],
      "stateMutability": "nonpayable",
      "type": "constructor"
    },
    {
      "anonymous": false,
      "inputs": [
        {
          "indexed": true,
          "internalType": "address",
          "name": "_owner",
          "type": "address"
        },
        {
          "indexed": true,
          "internalType": "address",
          "name": "_approved",
          "type": "address"
        },
        {
          "indexed": true,
          "internalType": "uint256",
          "name": "_tokenId",
          "type": "uint256"
        }
      ],
      "name": "Approval",
      "type": "event"
    },
    {
      "anonymous": false,
      "inputs": [
        {
          "indexed": true,
          "internalType": "address",
          "name": "_from",
          "type": "address"
        },
        {
          "indexed": true,
          "internalType": "address",
          "name": "_to",
          "type": "address"
        },
        {
          "indexed": true,
          "internalType": "uint256",
          "name": "_tokenId",
          "type": "uint256"
        }
      ],
      "name": "Transfer",
      "type": "event"
    },
    {
      "inputs": [
        {
          "internalType": "uint256",
          "name": "",
          "type": "uint256"
        }
      ],
      "name": "KryptoBird",
      "outputs": [
        {
          "internalType": "string",
          "name": "",
          "type": "string"
        }
      ],
      "stateMutability": "view",
      "type": "function"
    },
    {
      "inputs": [],
      "name": "NameGetter",
      "outputs": [
        {
          "internalType": "string",
          "name": "",
          "type": "string"
        }
      ],
      "stateMutability": "view",
      "type": "function"
    },
    {
      "inputs": [],
      "name": "SymbolGetter",
      "outputs": [
        {
          "internalType": "string",
          "name": "",
          "type": "string"
        }
      ],
      "stateMutability": "view",
      "type": "function"
    },
    {
      "inputs": [
        {
          "internalType": "string",
          "name": "",
          "type": "string"
        }
      ],
      "name": "_KryptoBirdExists",
      "outputs": [
        {
          "internalType": "bool",
          "name": "",
          "type": "bool"
        }
      ],
      "stateMutability": "view",
      "type": "function"
    },
    {
      "inputs": [
        {
          "internalType": "bytes4",
          "name": "interfaceId",
          "type": "bytes4"
        }
      ],
      "name": "_registerInterface",
      "outputs": [],
      "stateMutability": "nonpayable",
      "type": "function"
    },
    {
      "inputs": [
        {
          "internalType": "address",
          "name": "_to",
          "type": "address"
        },
        {
          "internalType": "uint256",
          "name": "tokenId",
          "type": "uint256"
        }
      ],
      "name": "approve",
      "outputs": [],
      "stateMutability": "nonpayable",
      "type": "function"
    },
    {
      "inputs": [
        {
          "internalType": "address",
          "name": "_owner",
          "type": "address"
        }
      ],
      "name": "balanceOf",
      "outputs": [
        {
          "internalType": "uint256",
          "name": "",
          "type": "uint256"
        }
      ],
      "stateMutability": "view",
      "type": "function"
    },
    {
      "inputs": [
        {
          "internalType": "bytes",
          "name": "objectSign",
          "type": "bytes"
        }
      ],
      "name": "calcFingerPrint",
      "outputs": [
        {
          "internalType": "bytes4",
          "name": "",
          "type": "bytes4"
        }
      ],
      "stateMutability": "pure",
      "type": "function"
    },
    {
      "inputs": [
        {
          "internalType": "uint256",
          "name": "_tokenId",
          "type": "uint256"
        }
      ],
      "name": "ownerOf",
      "outputs": [
        {
          "internalType": "address",
          "name": "",
          "type": "address"
        }
      ],
      "stateMutability": "view",
      "type": "function"
    },
    {
      "inputs": [
        {
          "internalType": "bytes4",
          "name": "interfaceId",
          "type": "bytes4"
        }
      ],
      "name": "supportsInterface",
      "outputs": [
        {
          "internalType": "bool",
          "name": "",
          "type": "bool"
        }
      ],
      "stateMutability": "view",
      "type": "function"
    },
    {
      "inputs": [
        {
          "internalType": "uint256",
          "name": "index",
          "type": "uint256"
        }
      ],
      "name": "tokenByIndex",
      "outputs": [
        {
          "internalType": "uint256",
          "name": "",
          "type": "uint256"
        }
      ],
      "stateMutability": "view",
      "type": "function"
    },
    {
      "inputs": [
        {
          "internalType": "address",
          "name": "owner",
          "type": "address"
        },
        {
          "internalType": "uint256",
          "name": "index",
          "type": "uint256"
        }
      ],
      "name": "tokenOfOwnerByIndex",
      "outputs": [
        {
          "internalType": "uint256",
          "name": "",
          "type": "uint256"
        }
      ],
      "stateMutability": "view",
      "type": "function"
    },
    {
      "inputs": [],
      "name": "totalSupply",
      "outputs": [
        {
          "internalType": "uint256",
          "name": "",
          "type": "uint256"
        }
      ],
      "stateMutability": "view",
      "type": "function"
    },
    {
      "inputs": [
        {
          "internalType": "address",
          "name": "_from",
          "type": "address"
        },
        {
          "internalType": "address",
          "name": "_to",
          "type": "address"
        },
        {
          "internalType": "uint256",
          "name": "tokenID",
          "type": "uint256"
        }
      ],
      "name": "transferFrom",
      "outputs": [],
      "stateMutability": "nonpayable",
      "type": "function"
    },
    {
      "inputs": [
        {
          "internalType": "string",
          "name": "_KryptoBird",
          "type": "string"
        }
      ],
      "name": "mint",
      "outputs": [],
      "stateMutability": "nonpayable",
      "type": "function"
    }
  ],
  "bytecode": "0x608060405234801562000010575f80fd5b506040518060400160405280600a81526020017f4b727970746f62697264000000000000000000000000000000000000000000008152506040518060400160405280600681526020017f4b424952445a00000000000000000000000000000000000000000000000000008152508181620000d5620000c96040518060400160405280601981526020017f737570706f727473496e74657266616365286279746573342900000000000000815250620003af60201b60201c565b620003bf60201b60201c565b8160019081620000e69190620006f7565b508060029081620000f89190620006f7565b5062000196620001436040518060400160405280601481526020017f53796d626f6c4765747465722862797465733429000000000000000000000000815250620003af60201b60201c565b620001896040518060400160405280601281526020017f4e616d6547657474657228627974657334290000000000000000000000000000815250620003af60201b60201c565b18620003bf60201b60201c565b5050620002c3620001e26040518060400160405280600f81526020017f617070726f766528627974657334290000000000000000000000000000000000815250620003af60201b60201c565b620002286040518060400160405280601481526020017f7472616e7366657246726f6d2862797465733429000000000000000000000000815250620003af60201b60201c565b6200026e6040518060400160405280600f81526020017f6f776e65724f6628627974657334290000000000000000000000000000000000815250620003af60201b60201c565b620002b46040518060400160405280601181526020017f62616c616e63654f662862797465733429000000000000000000000000000000815250620003af60201b60201c565b181818620003bf60201b60201c565b620003a76200030d6040518060400160405280601b81526020017f746f6b656e4f664f776e65724279496e64657828627974657334290000000000815250620003af60201b60201c565b620003536040518060400160405280601481526020017f746f6b656e4279496e6465782862797465733429000000000000000000000000815250620003af60201b60201c565b620003996040518060400160405280601381526020017f746f74616c537570706c79286279746573342900000000000000000000000000815250620003af60201b60201c565b1818620003bf60201b60201c565b505062000859565b5f81805190602001209050919050565b63ffffffff60e01b817bffffffffffffffffffffffffffffffffffffffffffffffffffffffff1916036200042a576040517f08c379a0000000000000000000000000000000000000000000000000000000008152600401620004219062000839565b60405180910390fd5b60015f80837bffffffffffffffffffffffffffffffffffffffffffffffffffffffff19167bffffffffffffffffffffffffffffffffffffffffffffffffffffffff191681526020019081526020015f205f6101000a81548160ff02191690831515021790555050565b5f81519050919050565b7f4e487b71000000000000000000000000000000000000000000000000000000005f52604160045260245ffd5b7f4e487b71000000000000000000000000000000000000000000000000000000005f52602260045260245ffd5b5f60028204905060018216806200050f57607f821691505b602082108103620005255762000524620004ca565b5b50919050565b5f819050815f5260205f209050919050565b5f6020601f8301049050919050565b5f82821b905092915050565b5f60088302620005897fffffffffffffffffffffffffffffffffffffffffffffffffffffffffffffffff826200054c565b6200059586836200054c565b95508019841693508086168417925050509392505050565b5f819050919050565b5f819050919050565b5f620005df620005d9620005d384620005ad565b620005b6565b620005ad565b9050919050565b5f819050919050565b620005fa83620005bf565b620006126200060982620005e6565b84845462000558565b825550505050565b5f90565b620006286200061a565b62000635818484620005ef565b505050565b5b818110156200065c57620006505f826200061e565b6001810190506200063b565b5050565b601f821115620006ab5762000675816200052b565b62000680846200053d565b8101602085101562000690578190505b620006a86200069f856200053d565b8301826200063a565b50505b505050565b5f82821c905092915050565b5f620006cd5f1984600802620006b0565b1980831691505092915050565b5f620006e78383620006bc565b9150826002028217905092915050565b620007028262000493565b67ffffffffffffffff8111156200071e576200071d6200049d565b5b6200072a8254620004f7565b6200073782828562000660565b5f60209050601f8311600181146200076d575f841562000758578287015190505b620007648582620006da565b865550620007d3565b601f1984166200077d866200052b565b5f5b82811015620007a6578489015182556001820191506020850194506020810190506200077f565b86831015620007c65784890151620007c2601f891682620006bc565b8355505b6001600288020188555050505b505050505050565b5f82825260208201905092915050565b7f4552433136353a20494e56414c494420494e54455246414345000000000000005f82015250565b5f62000821601983620007db565b91506200082e82620007eb565b602082019050919050565b5f6020820190508181035f830152620008528162000813565b9050919050565b61209580620008675f395ff3fe608060405234801561000f575f80fd5b50600436106100f3575f3560e01c80634f6ccce711610095578063c7f05aa111610064578063c7f05aa114610295578063d85d3d27146102c5578063ec9c48d5146102e1578063f8eaeb1e14610311576100f3565b80634f6ccce7146101e75780635f756f70146102175780636352211e1461023557806370a0823114610265576100f3565b806317c2272e116100d157806317c2272e1461015f57806318160ddd1461017d57806323b872dd1461019b5780632f745c59146101b7576100f3565b806301ffc9a7146100f7578063068417d914610127578063095ea7b314610143575b5f80fd5b610111600480360381019061010c9190611222565b610341565b60405161011e9190611267565b60405180910390f35b610141600480360381019061013c9190611222565b6103a4565b005b61015d6004803603810190610158919061130d565b610475565b005b61016761060c565b60405161017491906113d5565b60405180910390f35b61018561069c565b6040516101929190611404565b60405180910390f35b6101b560048036038101906101b0919061141d565b6106a8565b005b6101d160048036038101906101cc919061130d565b6106ca565b6040516101de9190611404565b60405180910390f35b61020160048036038101906101fc919061146d565b610775565b60405161020e9190611404565b60405180910390f35b61021f6107e3565b60405161022c91906113d5565b60405180910390f35b61024f600480360381019061024a919061146d565b610873565b60405161025c91906114a7565b60405180910390f35b61027f600480360381019061027a91906114c0565b61091f565b60405161028c9190611404565b60405180910390f35b6102af60048036038101906102aa919061146d565b6109d3565b6040516102bc91906113d5565b60405180910390f35b6102df60048036038101906102da9190611617565b610a79565b005b6102fb60048036038101906102f691906116fc565b610b6f565b6040516103089190611752565b60405180910390f35b61032b60048036038101906103269190611617565b610b7f565b6040516103389190611267565b60405180910390f35b5f805f837bffffffffffffffffffffffffffffffffffffffffffffffffffffffff19167bffffffffffffffffffffffffffffffffffffffffffffffffffffffff191681526020019081526020015f205f9054906101000a900460ff169050919050565b63ffffffff60e01b817bffffffffffffffffffffffffffffffffffffffffffffffffffffffff19160361040c576040517f08c379a0000000000000000000000000000000000000000000000000000000008152600401610403906117b5565b60405180910390fd5b60015f80837bffffffffffffffffffffffffffffffffffffffffffffffffffffffff19167bffffffffffffffffffffffffffffffffffffffffffffffffffffffff191681526020019081526020015f205f6101000a81548160ff02191690831515021790555050565b5f61047f82610873565b90508073ffffffffffffffffffffffffffffffffffffffff168373ffffffffffffffffffffffffffffffffffffffff16036104ef576040517f08c379a00000000000000000000000000000000000000000000000000000000081526004016104e69061181d565b60405180910390fd5b8073ffffffffffffffffffffffffffffffffffffffff163373ffffffffffffffffffffffffffffffffffffffff161461055d576040517f08c379a000000000000000000000000000000000000000000000000000000000815260040161055490611885565b60405180910390fd5b8260055f8481526020019081526020015f205f6101000a81548173ffffffffffffffffffffffffffffffffffffffff021916908373ffffffffffffffffffffffffffffffffffffffff160217905550818373ffffffffffffffffffffffffffffffffffffffff168273ffffffffffffffffffffffffffffffffffffffff167f8c5be1e5ebec7d5bd14f71427d1e84f3dd0314c0f7b2291e5b200ac8c7c3b92560405160405180910390a4505050565b60606001805461061b906118d0565b80601f0160208091040260200160405190810160405280929190818152602001828054610647906118d0565b80156106925780601f1061066957610100808354040283529160200191610692565b820191905f5260205f20905b81548152906001019060200180831161067557829003601f168201915b5050505050905090565b5f600680549050905090565b6106b23382610bb4565b6106ba575f80fd5b6106c5838383610c41565b505050565b5f6106d48361091f565b8210610715576040517f08c379a000000000000000000000000000000000000000000000000000000000815260040161070c9061194a565b60405180910390fd5b60085f8473ffffffffffffffffffffffffffffffffffffffff1673ffffffffffffffffffffffffffffffffffffffff1681526020019081526020015f20828154811061076457610763611968565b5b905f5260205f200154905092915050565b5f61077e61069c565b82106107bf576040517f08c379a00000000000000000000000000000000000000000000000000000000081526004016107b6906119df565b60405180910390fd5b600682815481106107d3576107d2611968565b5b905f5260205f2001549050919050565b6060600280546107f2906118d0565b80601f016020809104026020016040519081016040528092919081815260200182805461081e906118d0565b80156108695780601f1061084057610100808354040283529160200191610869565b820191905f5260205f20905b81548152906001019060200180831161084c57829003601f168201915b5050505050905090565b5f8060035f8481526020019081526020015f205f9054906101000a900473ffffffffffffffffffffffffffffffffffffffff1690505f73ffffffffffffffffffffffffffffffffffffffff168173ffffffffffffffffffffffffffffffffffffffff1603610916576040517f08c379a000000000000000000000000000000000000000000000000000000000815260040161090d90611a47565b60405180910390fd5b80915050919050565b5f8073ffffffffffffffffffffffffffffffffffffffff168273ffffffffffffffffffffffffffffffffffffffff160361098e576040517f08c379a000000000000000000000000000000000000000000000000000000000815260040161098590611a47565b60405180910390fd5b60045f8373ffffffffffffffffffffffffffffffffffffffff1673ffffffffffffffffffffffffffffffffffffffff1681526020019081526020015f20549050919050565b600a81815481106109e2575f80fd5b905f5260205f20015f9150905080546109fa906118d0565b80601f0160208091040260200160405190810160405280929190818152602001828054610a26906118d0565b8015610a715780601f10610a4857610100808354040283529160200191610a71565b820191905f5260205f20905b815481529060010190602001808311610a5457829003601f168201915b505050505081565b600b81604051610a899190611a9f565b90815260200160405180910390205f9054906101000a900460ff1615610ae4576040517f08c379a0000000000000000000000000000000000000000000000000000000008152600401610adb90611aff565b60405180910390fd5b600a81908060018154018082558091505060019003905f5260205f20015f909190919091509081610b159190611cba565b505f6001600a80549050610b299190611db6565b9050610b358133610e78565b6001600b83604051610b479190611a9f565b90815260200160405180910390205f6101000a81548160ff0219169083151502179055505050565b5f81805190602001209050919050565b600b818051602081018201805184825260208301602085012081835280955050505050505f915054906101000a900460ff1681565b5f610bbe82610e99565b610bfd576040517f08c379a0000000000000000000000000000000000000000000000000000000008152600401610bf490611e33565b60405180910390fd5b5f610c0783610873565b90508073ffffffffffffffffffffffffffffffffffffffff168473ffffffffffffffffffffffffffffffffffffffff161491505092915050565b5f73ffffffffffffffffffffffffffffffffffffffff168273ffffffffffffffffffffffffffffffffffffffff1603610caf576040517f08c379a0000000000000000000000000000000000000000000000000000000008152600401610ca690611e9b565b60405180910390fd5b8273ffffffffffffffffffffffffffffffffffffffff16610ccf82610873565b73ffffffffffffffffffffffffffffffffffffffff1614610d25576040517f08c379a0000000000000000000000000000000000000000000000000000000008152600401610d1c90611f03565b60405180910390fd5b8160035f8381526020019081526020015f205f6101000a81548173ffffffffffffffffffffffffffffffffffffffff021916908373ffffffffffffffffffffffffffffffffffffffff16021790555060045f8373ffffffffffffffffffffffffffffffffffffffff1673ffffffffffffffffffffffffffffffffffffffff1681526020019081526020015f205f815480929190610dc190611f21565b919050555060045f8473ffffffffffffffffffffffffffffffffffffffff1673ffffffffffffffffffffffffffffffffffffffff1681526020019081526020015f205f815480929190610e1390611f68565b9190505550808273ffffffffffffffffffffffffffffffffffffffff168473ffffffffffffffffffffffffffffffffffffffff167fddf252ad1be2c89b69c2b068fc378daa952ba7f163c4a11628f55a4df523b3ef60405160405180910390a4505050565b610e828282610f06565b610e8b826110bd565b610e958282611101565b5050565b5f8060035f8481526020019081526020015f205f9054906101000a900473ffffffffffffffffffffffffffffffffffffffff1690505f73ffffffffffffffffffffffffffffffffffffffff168173ffffffffffffffffffffffffffffffffffffffff161415915050919050565b5f73ffffffffffffffffffffffffffffffffffffffff168173ffffffffffffffffffffffffffffffffffffffff1603610f74576040517f08c379a0000000000000000000000000000000000000000000000000000000008152600401610f6b90611fd9565b60405180910390fd5b610f7d82610e99565b15610fbd576040517f08c379a0000000000000000000000000000000000000000000000000000000008152600401610fb490612041565b60405180910390fd5b8060035f8481526020019081526020015f205f6101000a81548173ffffffffffffffffffffffffffffffffffffffff021916908373ffffffffffffffffffffffffffffffffffffffff16021790555060045f8273ffffffffffffffffffffffffffffffffffffffff1673ffffffffffffffffffffffffffffffffffffffff1681526020019081526020015f205f81548092919061105990611f21565b9190505550818173ffffffffffffffffffffffffffffffffffffffff165f73ffffffffffffffffffffffffffffffffffffffff167fddf252ad1be2c89b69c2b068fc378daa952ba7f163c4a11628f55a4df523b3ef60405160405180910390a45050565b60068054905060075f8381526020019081526020015f2081905550600681908060018154018082558091505060019003905f5260205f20015f909190919091505550565b60085f8273ffffffffffffffffffffffffffffffffffffffff1673ffffffffffffffffffffffffffffffffffffffff1681526020019081526020015f2082908060018154018082558091505060019003905f5260205f20015f909190919091505560085f8273ffffffffffffffffffffffffffffffffffffffff1673ffffffffffffffffffffffffffffffffffffffff1681526020019081526020015f208054905060095f8481526020019081526020015f20819055505050565b5f604051905090565b5f80fd5b5f80fd5b5f7fffffffff0000000000000000000000000000000000000000000000000000000082169050919050565b611201816111cd565b811461120b575f80fd5b50565b5f8135905061121c816111f8565b92915050565b5f60208284031215611237576112366111c5565b5b5f6112448482850161120e565b91505092915050565b5f8115159050919050565b6112618161124d565b82525050565b5f60208201905061127a5f830184611258565b92915050565b5f73ffffffffffffffffffffffffffffffffffffffff82169050919050565b5f6112a982611280565b9050919050565b6112b98161129f565b81146112c3575f80fd5b50565b5f813590506112d4816112b0565b92915050565b5f819050919050565b6112ec816112da565b81146112f6575f80fd5b50565b5f81359050611307816112e3565b92915050565b5f8060408385031215611323576113226111c5565b5b5f611330858286016112c6565b9250506020611341858286016112f9565b9150509250929050565b5f81519050919050565b5f82825260208201905092915050565b5f5b83811015611382578082015181840152602081019050611367565b5f8484015250505050565b5f601f19601f8301169050919050565b5f6113a78261134b565b6113b18185611355565b93506113c1818560208601611365565b6113ca8161138d565b840191505092915050565b5f6020820190508181035f8301526113ed818461139d565b905092915050565b6113fe816112da565b82525050565b5f6020820190506114175f8301846113f5565b92915050565b5f805f60608486031215611434576114336111c5565b5b5f611441868287016112c6565b9350506020611452868287016112c6565b9250506040611463868287016112f9565b9150509250925092565b5f60208284031215611482576114816111c5565b5b5f61148f848285016112f9565b91505092915050565b6114a18161129f565b82525050565b5f6020820190506114ba5f830184611498565b92915050565b5f602082840312156114d5576114d46111c5565b5b5f6114e2848285016112c6565b91505092915050565b5f80fd5b5f80fd5b7f4e487b71000000000000000000000000000000000000000000000000000000005f52604160045260245ffd5b6115298261138d565b810181811067ffffffffffffffff82111715611548576115476114f3565b5b80604052505050565b5f61155a6111bc565b90506115668282611520565b919050565b5f67ffffffffffffffff821115611585576115846114f3565b5b61158e8261138d565b9050602081019050919050565b828183375f83830152505050565b5f6115bb6115b68461156b565b611551565b9050828152602081018484840111156115d7576115d66114ef565b5b6115e284828561159b565b509392505050565b5f82601f8301126115fe576115fd6114eb565b5b813561160e8482602086016115a9565b91505092915050565b5f6020828403121561162c5761162b6111c5565b5b5f82013567ffffffffffffffff811115611649576116486111c9565b5b611655848285016115ea565b91505092915050565b5f67ffffffffffffffff821115611678576116776114f3565b5b6116818261138d565b9050602081019050919050565b5f6116a061169b8461165e565b611551565b9050828152602081018484840111156116bc576116bb6114ef565b5b6116c784828561159b565b509392505050565b5f82601f8301126116e3576116e26114eb565b5b81356116f384826020860161168e565b91505092915050565b5f60208284031215611711576117106111c5565b5b5f82013567ffffffffffffffff81111561172e5761172d6111c9565b5b61173a848285016116cf565b91505092915050565b61174c816111cd565b82525050565b5f6020820190506117655f830184611743565b92915050565b7f4552433136353a20494e56414c494420494e54455246414345000000000000005f82015250565b5f61179f601983611355565b91506117aa8261176b565b602082019050919050565b5f6020820190508181035f8301526117cc81611793565b9050919050565b7f4572726f7220617070726f76616c20746f2063757272656e74206f776e6572005f82015250565b5f611807601f83611355565b9150611812826117d3565b602082019050919050565b5f6020820190508181035f830152611834816117fb565b9050919050565b7f4375727272656e742063616c6c6572206973206e6f7420746865206f776e65725f82015250565b5f61186f602083611355565b915061187a8261183b565b602082019050919050565b5f6020820190508181035f83015261189c81611863565b9050919050565b7f4e487b71000000000000000000000000000000000000000000000000000000005f52602260045260245ffd5b5f60028204905060018216806118e757607f821691505b6020821081036118fa576118f96118a3565b5b50919050565b7f4f776e657220496e646578206f7574206f6620626f6e647320000000000000005f82015250565b5f611934601983611355565b915061193f82611900565b602082019050919050565b5f6020820190508181035f83015261196181611928565b9050919050565b7f4e487b71000000000000000000000000000000000000000000000000000000005f52603260045260245ffd5b7f4e6f7420656e6f75676820746f6b656e730000000000000000000000000000005f82015250565b5f6119c9601183611355565b91506119d482611995565b602082019050919050565b5f6020820190508181035f8301526119f6816119bd565b9050919050565b7f4f776e65722076616c7565206973206e756c6c000000000000000000000000005f82015250565b5f611a31601383611355565b9150611a3c826119fd565b602082019050919050565b5f6020820190508181035f830152611a5e81611a25565b9050919050565b5f81905092915050565b5f611a798261134b565b611a838185611a65565b9350611a93818560208601611365565b80840191505092915050565b5f611aaa8284611a6f565b915081905092915050565b7f4b727970746f4269726420616c726561647920657873697374730000000000005f82015250565b5f611ae9601a83611355565b9150611af482611ab5565b602082019050919050565b5f6020820190508181035f830152611b1681611add565b9050919050565b5f819050815f5260205f209050919050565b5f6020601f8301049050919050565b5f82821b905092915050565b5f60088302611b797fffffffffffffffffffffffffffffffffffffffffffffffffffffffffffffffff82611b3e565b611b838683611b3e565b95508019841693508086168417925050509392505050565b5f819050919050565b5f611bbe611bb9611bb4846112da565b611b9b565b6112da565b9050919050565b5f819050919050565b611bd783611ba4565b611beb611be382611bc5565b848454611b4a565b825550505050565b5f90565b611bff611bf3565b611c0a818484611bce565b505050565b5b81811015611c2d57611c225f82611bf7565b600181019050611c10565b5050565b601f821115611c7257611c4381611b1d565b611c4c84611b2f565b81016020851015611c5b578190505b611c6f611c6785611b2f565b830182611c0f565b50505b505050565b5f82821c905092915050565b5f611c925f1984600802611c77565b1980831691505092915050565b5f611caa8383611c83565b9150826002028217905092915050565b611cc38261134b565b67ffffffffffffffff811115611cdc57611cdb6114f3565b5b611ce682546118d0565b611cf1828285611c31565b5f60209050601f831160018114611d22575f8415611d10578287015190505b611d1a8582611c9f565b865550611d81565b601f198416611d3086611b1d565b5f5b82811015611d5757848901518255600182019150602085019450602081019050611d32565b86831015611d745784890151611d70601f891682611c83565b8355505b6001600288020188555050505b505050505050565b7f4e487b71000000000000000000000000000000000000000000000000000000005f52601160045260245ffd5b5f611dc0826112da565b9150611dcb836112da565b9250828203905081811115611de357611de2611d89565b5b92915050565b7f746f6b656e20646f65736e7420657873697374730000000000000000000000005f82015250565b5f611e1d601483611355565b9150611e2882611de9565b602082019050919050565b5f6020820190508181035f830152611e4a81611e11565b9050919050565b7f72656369657665722061646472657373206973206e756c6c00000000000000005f82015250565b5f611e85601883611355565b9150611e9082611e51565b602082019050919050565b5f6020820190508181035f830152611eb281611e79565b9050919050565b7f6f776e6572206f6620746f6b656e206e6f7420636f72726563740000000000005f82015250565b5f611eed601a83611355565b9150611ef882611eb9565b602082019050919050565b5f6020820190508181035f830152611f1a81611ee1565b9050919050565b5f611f2b826112da565b91507fffffffffffffffffffffffffffffffffffffffffffffffffffffffffffffffff8203611f5d57611f5c611d89565b5b600182019050919050565b5f611f72826112da565b91505f8203611f8457611f83611d89565b5b600182039050919050565b7f41646472657373206973203000000000000000000000000000000000000000005f82015250565b5f611fc3600c83611355565b9150611fce82611f8f565b602082019050919050565b5f6020820190508181035f830152611ff081611fb7565b9050919050565b7f546f6b656e20616c7265616479206d696e7465640000000000000000000000005f82015250565b5f61202b601483611355565b915061203682611ff7565b602082019050919050565b5f6020820190508181035f8301526120588161201f565b905091905056fea264697066735822122025da0b221d23b1082559a60f7217b9e57037a9889c97d29942cea3a79ca032c164736f6c63430008140033",
  "immutableReferences": {},
  "source": "// SPDX-License-Identifier: MIT\npragma solidity ^0.8.0;\nimport \"./ERC721Connector.sol\";\n\ncontract KryptoBirdz is ERC721Connector {\n    string[] public KryptoBird;\n    mapping(string => bool) public _KryptoBirdExists;\n\n    function mint(string memory _KryptoBird) public {\n        require(!_KryptoBirdExists[_KryptoBird], \"KryptoBird already exsists\");\n        KryptoBird.push(_KryptoBird);\n        uint _id = KryptoBird.length - 1;\n        _mint(_id, msg.sender);\n        _KryptoBirdExists[_KryptoBird] = true;\n    }\n\n    // a constructor that calls the ERC721Connector\n    // constructor with the values \"Kryptobird\"\n    // and \"KBIRDZ\" to set the name and symbol\n    // variables for this contract.\n    constructor() ERC721Connector(\"Kryptobird\", \"KBIRDZ\") {}\n}\n",
  "sourcePath": "G:\\nft-market-place\\src\\contracts\\KryptoBirdz.sol",
  "compiler": {
    "name": "solc",
    "version": "0.8.20+commit.a1b79de6.Emscripten.clang"
  },
  "schemaVersion": "3.4.13",
  "updatedAt": "2023-05-22T08:10:58.545Z",
  "devdoc": {
    "kind": "dev",
    "methods": {},
    "version": 1
  },
  "userdoc": {
    "kind": "user",
    "methods": {
      "NameGetter()": {
        "notice": "A descriptive name for a collection of NFTs in this contract"
      },
      "SymbolGetter()": {
        "notice": "An abbreviated name for NFTs in this contract"
      }
    },
    "version": 1
  }
}